S01200005472616E736D697465722E73726563E9
S11300000C942A000C9447000C9447000C9447006D
S11300100C9447000C9447000C9447000C942C0259
S11300200C9447000C9447000C9447000C94470030
S11300300C9447000C9447000C9447000C94470020
S11300400C9447000C9447000C9447000C94470010
S11300500C94470011241FBECFE5D8E0DEBFCDBF0E
S113006010E0A0E6B0E0E8E1FDE102C005900D92E9
S1130070A23FB107D9F727E0A2EFB0E001C01D927B
S1130080AD33B207E1F70E94670C0C948A0E0C940E
S11300900000FC010396928381832FEF3FEF3483AA
S11300A02383968385839087878310820895FC0138
S11300B0118610860895CF93DF939C01FB01DC0128
S11300C01196CD91DC911297D383C2838C819D814B
S11300D0958384838C819D81DC0113967C936E933C
S11300E012977D836C8331872087F90180818F5F2C
S11300F08083DF91CF910895CF93DF93EB01488103
S113010059814F3F2FEF520721F4FC01A781B0859D
S11301100DC0DC01139601C0DF011296ED91FC9134
S113012013972081318142175307B0F71296ED914E
S1130130FC911397FB83EA83D583C483BD83AC838B
S11301401396DC93CE93129799878887FC012081BC
S11301502F5F2083DF91CF910895CF93DF93FC012C
S1130160A085B185C281D381848195819D838C834F
S1130170C481D581828193819B838A8311968D91D9
S11301809C911297E817F90731F4848195811296AE
S11301909C938E931197118610868C9181508C9329
S11301A0DF91CF9108951BBC89EF8ABD8BE08EBD92
S11301B089B7806189BF089531E1FC0130833197AB
S11301C022E220833197A3E3A083319760833197A0
S11301D0708331971082319760E860833197108281
S11301E0319762E06083319763E06083319764E024
S11301F06083319765E06083319766E0608331976F
S113020067E06083319768E06083319769E06083D9
S1130210319760E1608331973083319732E13083E5
S1130220319733E13083319734E13083319735E1CD
S11302303083319736E13083319737E1308331971A
S113024038E13083319739E13083319730E23083BC
S1130250319731E2308331972083319723E2208331
S11302603197408331975083319726E22083319729
S113027027E22083319728E22083319729E22083E3
S1130280319720E32083319721E3208386970895D3
S11302900E94D300A0912B07B0912C07CD91CDBF24
S11302A0DD91DEBFFF91EF91DF91CF91BF91AF91CF
S11302B09F918F917F916F915F914F913F912F917A
S11302C01F910F91FF90EF90DF90CF90BF90AF9070
S11302D09F908F907F906F905F904F903F902F9062
S11302E01F900F900FBE0F90089581E008950F9214
S11302F00FB6F8940F921F9211242F923F924F92AF
S11303005F926F927F928F929F92AF92BF92CF92A1
S1130310DF92EF92FF920F931F932F933F934F938C
S11303205F936F937F938F939F93AF93BF93CF9379
S1130330DF93EF93FF93A0912B07B0912C070DB699
S11303400D920EB60D920E94C706A0912B07B09194
S11303502C07CD91CDBFDD91DEBFFF91EF91DF91F1
S1130360CF91BF91AF919F918F917F916F915F9149
S11303704F913F912F911F910F91FF90EF90DF903C
S1130380CF90BF90AF909F908F907F906F905F9031
S11303904F903F902F901F900F900FBE0F90089595
S11303A00F920FB6F8940F921F9211242F923F923E
S11303B04F925F926F927F928F929F92AF92BF9271
S11303C0CF92DF92EF92FF920F931F932F933F935D
S11303D04F935F936F937F938F939F93AF93BF9349
S11303E0CF93DF93EF93FF93A0912B07B0912C074A
S11303F00DB60D920EB60D920E945A0581110E94FF
S1130400C706A0912B07B0912C07CD91CDBFDD91EC
S1130410DEBFFF91EF91DF91CF91BF91AF919F919B
S11304208F917F916F915F914F913F912F911F9188
S11304300F91FF90EF90DF90CF90BF90AF909F907F
S11304408F907F906F905F904F903F902F901F9070
S11304500F900FBE0F9008950E94D0011895EAEFF7
S1130460F0E0AEEFB0E0B183A08313821282E6ED38
S1130470F6E0F093F900E093F800138212821182FF
S1130480108288ED95E013969C938E931297ED93CA
S1130490FC939093F5008093F4009093F70080937D
S11304A0F60080E090E89093F3008093F2000895C2
S11304B0CF93DF93EC01AAEFB0E001C0DF01ED912F
S11304C0FC911197EC17FD07C8F312968D919C913E
S11304D013979D01280F391FC217D30749F42A81A6
S11304E03B81820F931F13969C938E931297ED0179
S11304F08A819B819E01280F391FE217F307C1F4FB
S11305002091F8003091F900E217F30771F022818D
S11305103381820F931F9B838A83ED91FC91119702
S1130520808191819983888305C03983288302C09F
S1130530F983E883CA17DB0711F0CD93DC93DF91CD
S1130540CF910895EF92FF920F931F93CF93DF9370
S11305508C010E944A058091F8009091F900892B42
S113056011F40E942F028091F2009091F3008023F5
S11305709123892B09F067C00115110511F00C5F57
S11305801F4F0115110509F461C08091F600909187
S1130590F7008017910708F45CC0C091FA00D0916D
S11305A0FB00EAEFF0E002C0FE01EC018A819B81CE
S11305B08017910720F4888199810097A9F7809189
S11305C0F8009091F900C817D90709F445C0E080F4
S11305D0F18084E0E80EF11C888199819183808305
S11305E02A813B81201B310B2930310550F0CE018B
S11305F0800F911FFC01338322831B830A830E9493
S113060058022A813B818091F6009091F700821B69
S1130610930B9093F7008093F6004091F40050916F
S1130620F5008417950720F49093F5008093F40067
S11306308091F2009091F300282B392B3B832A837D
S1130640198218820BC0E12CF12C08C0E12CF12C8A
S113065005C0E12CF12C02C0E12CF12C0E941406FF
S1130660C701DF91CF911F910F91FF90EF900895F3
S11306700F931F93CF93DF93009751F1EC012497CD
S11306804A815B812091F2003091F300BA01622328
S11306907323672BE9F068817981672BC9F420956E
S11306A03095242335233B832A830E944A058A817B
S11306B09B812091F6003091F700820F931F909355
S11306C0F7008093F600CE010E9458020E9414069F
S11306D0DF91CF911F910F910895E091F306F0916E
S11306E0F4068081811107C08FEF9FEF9093DE069F
S11306F08093DD060895E091F306F091F4060580F9
S1130700F681E02D0680F781E02D8281938190931C
S1130710DE068093DD0608956F927F928F929F92FA
S1130720AF92BF92CF92DF92EF920F931F93CF932A
S1130730DF93CDB7DEB74C01F5018789908D215049
S113074031093C01620E731E20E00FC0822F90E03D
S1130750FB01E80FF91F3081D501A80FB91F599685
S11307603C938081882319F02F5F283078F3F501BA
S113077010A2F3E0FE1520F40F2EF3E0EF2EF02D7F
S1130780F501E68AC50102960E945700C5010C9640
S11307900E945700F501B186A08684E090E08E198E
S11307A0910995878487B38AA28A11A212A213A2FF
S11307B014A215A2A801B401C3010E94DC00F50132
S11307C091838083C114D10419F0F601B182A0820F
S11307D0DF91CF911F910F91EF90DF90CF90BF9059
S11307E0AF909F908F907F906F90089580910707AE
S11307F08230E0F30E947701F9CFCF93C0E010C0BC
S11308008C2F90E09C01220F331F220F331F220FE5
S1130810331F820F931F895F984F0E944900CF5F57
S1130820C43070F38EEF96E00E94490085EF96E0A5
S11308300E94490088EE96E00E9449008EEF96E0FF
S11308409093F4068093F30685EF96E09093F20676
S11308508093F106CF910895CF93DF93EC010FB607
S1130860F8940F928091E7068F5F8093E70680915A
S11308702B0790912C07892B59F4D0932C07C09304
S11308802B078091E706813099F40E94FD0310C084
S11308908091E30681110CC0E0912B07F0912C07A5
S11308A096898E89891720F0D0932C07C0932B0743
S11308B08091DF068F5F8093DF068E899091E40636
S11308C0981710F48093E40690E09C01220F331FE4
S11308D0220F331F220F331F820F931FBE016E5F3F
S11308E07F4F895F984F0E945B000F900FBE8091ED
S11308F0E306882351F0E0912B07F0912C079689A9
S11309008E89981710F40E947701DF91CF91089592
S11309100F931F93CF93DF93EC010091E5061091A1
S1130920E60680912B0790912C0702960E94AD0059
S1130930C00FD11FE0912B07F0912C07D383C28302
S1130940C017D10768F460912B0770912C07809130
S1130950F1069091F2066E5F7F4F0E947C0017C0F3
S113096060912B0770912C078091F3069091F40607
S11309706E5F7F4F0E947C008091DD069091DE06C1
S1130980C817D90720F4D093DE06C093DD06DF91A3
S1130990CF911F910F9108952F923F924F925F92A2
S11309A06F927F928F929F92AF92BF92CF92DF927B
S11309B0EF92FF920F931F93CF93DF933C011B01A0
S11309C05A012901CA010E94A2026C01892B71F00B
S11309D086E290E00E94A202EC01892B19F0D88EE5
S11309E0CF8A06C0C6010E94380302C0C0E0D0E02E
S11309F0209791F0950140E050E0812C912C5E010C
S1130A006701E02E8201B101C3010E948C03CE0173
S1130A100E942C0481E001C08FEFDF91CF911F91E0
S1130A200F91FF90EF90DF90CF90BF90AF909F9089
S1130A308F907F906F905F904F903F902F9008958C
S1130A40EF92FF920F930F2EFBEDEF2EF6E0FF2EA9
S1130A50F02D00E020E030E045E550E06EE670E087
S1130A6086EF93E00E94CC04813081F4F8948FEFF8
S1130A709FEF9093DE068093DD0681E08093E3068A
S1130A801092E6061092E5060E9448010F91FF902D
S1130A90EF9008958091DA068F5F8093DA060895C7
S1130AA00FB6F8940F928091E5069091E6060F90A8
S1130AB00FBE0895DF92EF92FF920F931F93CF938F
S1130AC0DF938091DA06811197C0E090E506F090FB
S1130AD0E6068FEFE81AF80AF092E606E092E506D9
S1130AE0E114F104B9F48091F3069091F406209195
S1130AF0F1063091F2063093F4062093F3069093B6
S1130B00F2068093F1068091E0068F5F8093E00601
S1130B100E946D038091DD069091DE06E816F906C9
S1130B2028F4D12C53C0DD24D39401C0D12CE091FE
S1130B30F306F091F4068081811107C08FEF9FEFD7
S1130B409093DE068093DD0641C0E091F306F091B8
S1130B50F4060580F681E02DC681D7818A819B81C8
S1130B60E816F90628F49093DE068093DD062EC07D
S1130B708E010E5F1F4FC8010E94AD008C899D89B4
S1130B80892B21F0CE010C960E94AD008E899091A4
S1130B90E406981710F48093E40690E09C01220F79
S1130BA0331F220F331F220F331F820F931FB801ED
S1130BB0895F984F0E945B009E89E0912B07F0911A
S1130BC02C078689981708F0AECFB1CFE0912B0798
S1130BD0F0912C07868990E0FC01EE0FFF1FEE0FC9
S1130BE0FF1FEE0FFF1F8E0F9F1FFC01E95FF84FE1
S1130BF08081823040F409C08091E2068F5F809347
S1130C00E206D12C02C0DD24D3948091E10688232E
S1130C1011F0DD24D3948D2DDF91CF911F910F918D
S1130C20FF90EF90DF9008950F931F93CF93DF937E
S1130C300FB6F8940F928091DA0681508093DA0609
S1130C408091DA06811158C08091E706811133C082
S1130C5056C0E091ED06F091EE06C681D781CE0133
S1130C600C960E94AD008E010E5F1F4FC8010E94BA
S1130C70AD008E899091E406981710F48093E406F1
S1130C8090E09C01220F331F220F331F220F331FCA
S1130C90820F931FB801895F984F0E945B009E8961
S1130CA0E0912B07F0912C078689981730F081E0AA
S1130CB08093E10602C0C0E0D0E08091E806811193
S1130CC0C8CFCD2B11F00E946D03C091E206CC2356
S1130CD059F00E945A05882319F081E08093E106B7
S1130CE0C150B9F71092E2068091E106882331F0F1
S1130CF00E94770181E003C080E001C080E00F9092
S1130D000FBEDF91CF911F910F9108950F931F9301
S1130D10CF93DF938C01EB010E944A054091E506D5
S1130D205091E606F80120813181C9018C0F9D1F85
S1130D304217530740F48217930768F4481759077A
S1130D4060F020E00FC08217930748F04817590756
S1130D5040F020E007C020E005C021E003C021E00E
S1130D6001C021E0F80191838083222329F060E00F
S1130D70841B950B0E9488040E941406811102C0F2
S1130D800E947701DF91CF911F910F910895809177
S1130D90DA06882321F081E08093E1060895109219
S1130DA0E1062091E40601C02150822F90E0FC016D
S1130DB0EE0FFF1FEE0FFF1FEE0FFF1FE80FF91FCF
S1130DC0E95FF84F3081332379F3AC01440F551FA9
S1130DD0440F551F440F551F480F591FDF01018051
S1130DE0F281E02D0280F381E02D1296FC93EE93C4
S1130DF01197465F584FE417F50729F44281538150
S1130E00FD0152834183FC01EE0FFF1FEE0FFF1F14
S1130E10EE0FFF1F8E0F9F1FFC01E95FF84F01804B
S1130E20F281E02D8681978190932C0780932B0784
S1130E302093E4060895FF920F931F93CF93DF93BB
S1130E4081114EC0082F10E017C09E01220F331FDE
S1130E50F901EC0FFD1FEE0FFF1FE752FF4FF58066
S1130E60F10EC48140E06F2D8C2F0E9437096F2D45
S1130E708C2F0E944C0A1F5FC02FD0E0FE01EE0FA2
S1130E80FF1FEC0FFD1FEE0FFF1FE752FF4F838183
S1130E901817D8F210E016C0FE01EE0FFF1FEC0F7A
S1130EA0FD1FEE0FFF1FE752FF4F0281010FF1807C
S1130EB040E0602F8F2D0E943709602F8F2D0E94F4
S1130EC04C0A1F5FFE01EE0FFF1FEC0FFD1FEE0F1C
S1130ED0FF1FE752FF4F80811817F0F280E001C036
S1130EE082EEDF91CF911F910F91FF9008955F9251
S1130EF06F927F928F929F92AF92BF92CF92DF9226
S1130F00EF92FF920F931F93CF93DF931F92CDB76E
S1130F10DEB76115710509F487C0811187C06B01C3
S1130F20E82E612C812C912C540168C0F801EE0F3D
S1130F30FF1FE00FF11FEE0FFF1FE752FF4F7580F9
S1130F40760C548041E0672D852D0E94370940E0DE
S1130F50672D852D0E94A009F12C39C0F801EE0FF0
S1130F60FF1FE00FF11FEE0FFF1FE752FF4F6281DB
S1130F706F0DAE014F5F5F4F81810E94090A898125
S1130F80811124C081149104A104B10411F0689466
S1130F9080F8E1101BC08F2D90E0FC01EE0FFF1FC5
S1130FA0E80FF91FE353FF4FE60DF11D81E090E0D8
S1130FB0008002C0880F991F0A94E2F7092E000CE2
S1130FC0AA0BBB0B882A992AAA2ABB2AF394F801F4
S1130FD0EE0FFF1FE00FF11FEE0FFF1FE752FF4F51
S1130FE08081F81608F4BACF40E0672D852D0E9461
S1130FF03709672D852D0E944C0A63940E2D10E04D
S1131000F801EE0FFF1FE00FF11FEE0FFF1FE75275
S1131010FF4F8381681608F489CFF601808291829C
S1131020A282B38280E003C081EE01C082EE0F9001
S1131030DF91CF911F910F91FF90EF90DF90CF90B0
S1131040BF90AF909F908F907F906F905F90089526
S1131050EF92FF920F931F93CF93DF9381114EC0B2
S1131060C82FD0E0FE01E35DF84F8081813009F4A0
S113107047C0FE01EE0FFF1FEE0FFF1FE152FF4FAF
S11310808281811114C0FE01EE0FFF1FEE0FFF1FBE
S1131090E152FF4F618141E080810E943709811153
S11310A031C0C35DD84F81E0888380E030C0813097
S11310B059F5CE01880F991F880F991F9C01215261
S11310C03F4F7901F9010381802F0E948A0A182F6A
S11310D041E0F701618180810E943709182B802F3C
S11310E00E94BB0A182B802F0E94C70A812B71F41F
S11310F0C35DD84F81E0888380E009C081EC07C0DC
S113110082EC05C081E003C081E001C081E0DF9191
S1131110CF911F910F91FF90EF900895811132C0EC
S113112090E0FC01E35DF84F2081213069F5FC017A
S1131130EE0FFF1FEE0FFF1FE152FF4F228121111F
S113114010C0880F991F880F991FFC01E152FF4FAF
S1131150618140E080810E94A0098823B9F081E088
S113116008952130A9F4880F991F880F991FFC0155
S1131170E152FF4F60E083810E94D80A882351F036
S113118081E0089581EC089583EC089580E008954A
S113119081E0089580E00895811132C090E0FC015F
S11311A0E35DF84F2081213069F5FC01EE0FFF1F4C
S11311B0EE0FFF1FE152FF4F2281211110C0880F53
S11311C0991F880F991FFC01E152FF4F618141E093
S11311D080810E94A0098823B9F081E0089521301C
S11311E0A9F4880F991F880F991FFC01E152FF4F42
S11311F064E683810E94D80A882351F081E008952F
S113120081EC089583EC089580E0089581E00895C9
S113121080E00895811121C090E0FC01E35DF84F66
S113122020812130E1F4FC01EE0FFF1FEE0FFF1FC0
S1131230E152FF4F22812223A1F06536A0F4880FEA
S1131240991F880F991FFC01E152FF4F83810E946F
S1131250D80A882351F081E0089581EC089583EC45
S1131260089581E0089581E0089580E00895423072
S113127008F060C0683008F05FC08130E1F030F001
S1131280823071F1833009F440C058C02AB381E040
S113129090E0062E02C0880F991F0A94E2F750E0EE
S11312A002C0440F551F6A95E2F780958223482BAC
S11312B04ABB80E0089527B381E090E0062E02C087
S11312C0880F991F0A94E2F750E002C0440F551F9B
S11312D06A95E2F780958223482B47BB80E0089506
S11312E024B381E090E0062E02C0880F991F0A946F
S11312F0E2F750E002C0440F551F6A95E2F780956B
S11313008223482B44BB80E0089521B381E090E020
S1131310062E02C0880F991F0A94E2F750E002C01B
S1131320440F551F6A95E2F780958223482B41BBF1
S113133080E0089581E0089581E0089581E00895B2
S1131340423008F060C0683008F05FC08130E1F0DE
S113135030F0823071F1833009F440C058C02BB3AF
S113136081E090E0062E02C0880F991F0A94E2F7EC
S113137050E002C0440F551F6A95E2F7809582231E
S1131380482B4BBB80E0089528B381E090E0062E03
S113139002C0880F991F0A94E2F750E002C0440F7C
S11313A0551F6A95E2F780958223482B48BB80E05D
S11313B0089525B381E090E0062E02C0880F991F9E
S11313C00A94E2F750E002C0440F551F6A95E2F711
S11313D080958223482B45BB80E0089522B381E0A9
S11313E090E0062E02C0880F991F0A94E2F750E09D
S11313F002C0440F551F6A95E2F780958223482B5B
S113140042BB80E0089581E0089581E0089581E081
S113141008956830D8F541155105D1F1813091F026
S113142028F08230D9F0833029F134C089B390E0B8
S113143002C0959587956A95E2F78170FA018083D9
S113144080E0089586B390E002C0959587956A95EB
S1131450E2F78170FA01808380E0089583B390E01D
S113146002C0959587956A95E2F78170FA018083A9
S113147080E0089580B390E002C0959587956A95C1
S1131480E2F78170FA01808380E0089581E0089595
S113149081E0089581E008956830C0F5813091F0CD
S11314A028F08230D9F0833029F132C081E090E015
S11314B002C0880F991F6A95E2F79BB3892B8BBBF7
S11314C080E0089581E090E002C0880F991F6A953A
S11314D0E2F798B3892B88BB80E0089581E090E01F
S11314E002C0880F991F6A95E2F795B3892B85BBD3
S11314F080E0089581E090E002C0880F991F6A950A
S1131500E2F792B3892B82BB80E0089581E00895CD
S113151081E00895833069F585B5E2E6F0E09285CF
S1131520492F417050E000245695479507945695ED
S113153047950794542F402D8F7B482B91FB2227EE
S113154020F930E0220F331F220F331F220F331FE5
S1131550477F242B838530E1839FC00111242F7C96
S1131560282B25BD41E067E083E00E94370980E035
S1131570089581E00895833041F485B590916B001E
S1131580887F892B85BD80E0089581E008958330AC
S113159069F425B590916D0030E1939FC001112449
S11315A0922F9F7C892B85BD80E0089581E008956A
S11315B09FEF960F943610F5833011F580916D00EE
S11315C0823001F570E080E090E00E94910D20E00F
S11315D030E048EC52E40E94EE0C20E030E040E8B9
S11315E053E40E941D0E20E030E040E85FE30E94D7
S11315F0810C0E94600D63BD80E0089581E0089530
S113160081E0089581E008950F931F93CF93DF93B2
S113161000D000D0CDB7DEB780913607811107C066
S1131620809173000E941B0781E080933607BE01FE
S11316306F5F7F4F809173000E947707809132071C
S113164090913307A0913407B091350749815A81AD
S11316506B817C8184179507A607B70709F042C000
S113166080912E0790912F07A0913007B0913107F8
S1131670481759076A077B07A9F140932E0750932F
S11316802F07609330077093310740FF11C0433434
S113169080E158076105710519F40E94870B22C087
S11316A04334544061057105E9F40E948C0B1AC05F
S11316B0411551056105710591F414C08A019B011E
S11316C0082E04C036952795179507950A94D2F7E6
S11316D000FF03C00E94910B05C08F5F01C081E031
S11316E08D3060F389819A81AB81BC81809332070C
S11316F090933307A0933407B09335070F900F905E
S11317000F900F90DF91CF911F910F91089581E079
S11317108093390780E0089581E08093380780E062
S113172008958D3020F48093370780E0089582ED8A
S11317300895CF93DF9300D01F92CDB7DEB70E94F8
S113174050059A83898380913C07811107C0809159
S1131750CC000E94280881E080933C07CE010396C8
S11317600E94480CEB8180916000E81731F0E0930F
S1131770600010923B0710923A07E43009F482C0EB
S113178080913B078130F9F038F0823009F440C091
S1131790833009F454C076C08091CC000E948E0836
S11317A081E080933B07EB8186E1E89FF0011124FF
S11317B0EC58FF4F6089718982899389CE01019623
S11317C00E9486065FC086E1E89FF0011124EC5870
S11317D0FF4F658980913A07680F60933A078091BB
S11317E0CC000E940A0980913A07843619F482E0F9
S11317F080933B07EB8186E1E89FF0011124EC58CC
S1131800FF4F648970E0CE0101960E9486063AC0BB
S11318108091CC000E94CC0883E080933B07EB814D
S113182086E1E89FF0011124EC58FF4F6481758133
S113183086819781CE0101960E94860623C086E1A7
S1131840E89FF0011124EC58FF4F858960913A0715
S1131850681B60933A078091CC000E940A0980912A
S11318603A07811102C010923B07EB8186E1E89FA1
S1131870F0011124EC58FF4F648970E0CE01019609
S11318800E9486060F900F900F90DF91CF910895DC
S1131890009731F020916100FC01208380E00895DD
S11318A082EB0895CF93DF9300D0CDB7DEB70E94CB
S11318B050059A8389830E94040B62E370E0CE0191
S11318C001960E948606F7CF0E94990BFDCFE12C6A
S11318D0F12C01E020E030E045E550E063EE70E0FB
S11318E082E59CE00E94CC0420E030E045E550E035
S11318F067EE70E084E69CE00E94CC040E94200520
S1131900FFCF5058BB27AA270E94990C0C94E30DD3
S11319100E94D50D38F00E94DC0D20F039F49F3F71
S113192019F426F40C94D20D0EF4E095E7FB0C9414
S1131930CC0DE92F0E94F40D58F3BA176207730710
S11319408407950720F079F4A6F50C94160E0EF48E
S1131950E0950B2EBA2FA02D0B01B90190010C01BB
S1131960CA01A0011124FF27591B99F0593F50F4D3
S1131970503E68F11A16F040A22F232F342F44272B
S1131980585FF3CF469537952795A795F040539523
S1131990C9F77EF41F16BA0B620B730B840BBAF0F3
S11319A09150A1F0FF0FBB1F661F771F881FC2F75E
S11319B00EC0BA0F621F731F841F48F48795779572
S11319C06795B795F7959E3F08F0B0CF9395880F2C
S11319D008F09927EE0F9795879508950E94020DB8
S11319E00C94E30D0E94DC0D58F00E94D50D40F0DC
S11319F029F45F3F29F00C94CC0D51110C94170E6F
S1131A000C94D20D0E94F40D68F39923B1F355237D
S1131A1091F3951B550BBB27AA27621773078407FD
S1131A2038F09F5F5F4F220F331F441FAA1FA9F393
S1131A3035D00E2E3AF0E0E832D091505040E69581
S1131A40001CCAF72BD0FE2F29D0660F771F881FE2
S1131A50BB1F261737074807AB07B0E809F0BB0BD5
S1131A60802DBF01FF2793585F4F3AF09E3F5105E9
S1131A7078F00C94CC0D0C94170E5F3FE4F3983E71
S1131A80D4F3869577956795B795F7959F5FC9F7D2
S1131A90880F911D9695879597F90895E1E0660F53
S1131AA0771F881FBB1F621773078407BA0720F0CC
S1131AB0621B730B840BBA0BEE1F88F7E095089535
S1131AC00E94FC0D88F09F5798F0B92F9927B751C1
S1131AD0B0F0E1F0660F771F881F991F1AF0BA95CE
S1131AE0C9F714C0B13091F00E94160EB1E0089508
S1131AF00C94160E672F782F8827B85F39F0B93FFA
S1131B00CCF3869577956795B395D9F73EF4909580
S1131B108095709561957F4F8F4F9F4F0895E894FE
S1131B2009C097FB3EF490958095709561957F4F21
S1131B308F4F9F4F9923A9F0F92F96E9BB279395CF
S1131B40F695879577956795B795F111F8CFFAF4DF
S1131B50BB0F11F460FF1BC06F5F7F4F8F4F9F4F10
S1131B6016C0882311F096E911C0772321F09EE86E
S1131B70872F762F05C0662371F096E8862F70E0D4
S1131B8060E02AF09A95660F771F881FDAF7880FAE
S1131B909695879597F9089597F99F6780E870E07F
S1131BA060E008959FEF80EC089500240A941616CF
S1131BB0170618060906089500240A941216130637
S1131BC0140605060895092E0394000C11F48823C5
S1131BD052F0BB0F40F4BF2B11F460FF04C06F5FE1
S1131BE07F4F8F4F9F4F089557FD9058440F551FB7
S1131BF059F05F3F71F04795880F97FB991F61F08B
S1131C009F3F79F087950895121613061406551F01
S1131C10F2CF4695F1DF08C0161617061806991F6D
S1131C20F1CF86957105610508940895E894BB2762
S1131C3066277727CB0197F908950E94300E0C94FC
S1131C40E30D0E94D50D38F00E94DC0D20F09523A1
S1131C5011F00C94CC0D0C94D20D11240C94170E8D
S1131C600E94F40D70F3959FC1F3950F50E0551F3A
S1131C70629FF001729FBB27F00DB11D639FAA27DD
S1131C80F00DB11DAA1F649F6627B00DA11D661F2C
S1131C90829F2227B00DA11D621F739FB00DA11D4D
S1131CA0621F839FA00D611D221F749F3327A00D07
S1131CB0611D231F849F600D211D822F762F6A2FA3
S1131CC011249F5750409AF0F1F088234AF0EE0F08
S1131CD0FF1FBB1F661F771F881F91505040A9F735
S1131CE09E3F510580F00C94CC0D0C94170E5F3F71
S1131CF0E4F3983ED4F3869577956795B795F79571
S1131D00E7959F5FC1F7FE2B880F911D96958795E8
S10B1D1097F90895F894FFCF40
S1131D1804040503000505000505000203024944FF
S1131D284C450000B80B0000F4010000F401000069
S1131D38F4010000DC0500000A02DC050000FA00DA
S1131D480000FA000000FA000000EE0200000A0495
S1131D58B0040000C8000000C8000000C80000006B
S1131D68580200000A052C0100003200000032006D
S1131D78000032000000960000000A14000102036B
S1131D880405060708090A0B0C04020103020503EB
S1131D98070103484D4900496E64696361746F72B1
S1051DA8000035
S9030000FC
