:100000000C9439000C9456000C9456000C94560035
:100010000C9456000C9456000C9456000C94B400AA
:100020000C9456000C9456000C9456000C945600F8
:100030000C9456000C9456000C9456000C945600E8
:100040000C9456000C9456000C9456000C945600D8
:100050000C945600D406DF06EA06F50600070B07E7
:1000600016070F0A2B0A470A7F0AAD0AE40A3E0B5D
:100070005A0B11241FBECFE5D8E0DEBFCDBF10E084
:10008000A0E6B0E0E4EEFAE102C005900D92AC3DCE
:10009000B107D9F721E0ACEDB0E001C01D92AF315E
:1000A000B207E1F70E94AA0B0C94700D0C940000AB
:1000B0000F920FB6F8940F921F9211242F923F9235
:1000C0004F925F926F927F928F929F92AF92BF9268
:1000D000CF92DF92EF92FF920F931F932F933F9354
:1000E0004F935F936F937F938F939F93AF93BF9340
:1000F000CF93DF93EF93FF93A0910E01B0910F0187
:100100000DB60D920EB60D920E94D30081110E9481
:10011000ED01A0910E01B0910F01CD91CDBFDD9108
:10012000DEBFFF91EF91DF91CF91BF91AF919F9192
:100130008F917F916F915F914F913F912F911F917F
:100140000F91FF90EF90DF90CF90BF90AF909F9076
:100150008F907F906F905F904F903F902F901F9067
:100160000F900FBE0F9008950E9458001895E091CF
:10017000E800F091E9008081811107C08FEF9FEFC7
:100180009093DE008093DD000895E091E800F09107
:10019000E9000580F681E02D808191819093DE0059
:1001A0008093DD0008950F931F93CF93DF93809189
:1001B000DC00811101C1C091E400D091E5008E0105
:1001C0000F5F1F4F1093E5000093E4000115110528
:1001D000B9F48091E8009091E9002091E600309117
:1001E000E7003093E9002093E8009093E7008093C4
:1001F000E6008091DF008F5F8093DF000E94B700F0
:100200008091DD009091DE000817190720F480E04E
:10021000B8C081E001C080E0E091E800F091E90021
:100220009081911107C02FEF3FEF3093DE002093B4
:10023000DD00A7C0E091E800F091E9000580F681BB
:10024000E02D0680F781E02D22813381021713070C
:1002500028F43093DE002093DD0093C0A285B3859F
:100260002481358146815781E9015D834C83268154
:10027000378144815581E9015B834A8311962D9131
:100280003C911297AF014E5F5F4F2417350731F451
:100290002681378112963C932E93119713861286EE
:1002A0009C9191509C93A489B589109719F126854A
:1002B000378560897189E9017D836C832089318963
:1002C00066857785E9017B836A8311966D917C91C0
:1002D00012979F01245F3F4F6217730731F4208903
:1002E000318912963C932E931197158A148A9C910A
:1002F00091509C9326899091E300921710F42093DB
:10030000E30030E0D901AA0FBB1FAA0FBB1FAA0F41
:10031000BB1F2A0F3B1FD901A651BF4F11960D904D
:10032000BC91A02DB583A48314962D913C91159773
:100330003783268314962D913C911597E9015B83B1
:100340004A8315965C934E931497A689B0E09D015D
:10035000220F331F220F331F220F331FA20FB31F91
:10036000A651BF4FB387A2879C919F5F9C9326891C
:10037000E0910E01F0910F019689291708F049CFFD
:100380004BCFE0910E01F0910F01268930E0F90189
:10039000EE0FFF1FEE0FFF1FEE0FFF1F2E0F3F1F71
:1003A000F901E651FF4F9081923008F081E0909181
:1003B000E00091110CC00CC08091E1009091E2002E
:1003C00001969093E2008093E10080E001C081E01B
:1003D000DF91CF911F910F9108958091DC008823C8
:1003E00021F081E08093E00008951092E0002091D8
:1003F000E30001C02150822F90E0FC01EE0FFF1FAF
:10040000EE0FFF1FEE0FFF1FE80FF91FE651FF4F22
:100410003081332379F3AC01440F551F440F551F2E
:10042000440F551F480F591FDF010180F281E02D55
:100430000280F381E02D1296FC93EE9311974351C5
:100440005F4FE417F50729F442815381FD01528380
:100450004183FC01EE0FFF1FEE0FFF1FEE0FFF1F8A
:100460008E0F9F1FFC01E651FF4F0180F281E02DAE
:100470008681978190930F0180930E012093E30072
:100480000895DF92EF92FF920F931F93CF93DF9324
:10049000C82F80916200853109F4B0C08F3F21F0F0
:1004A000843109F0C3C087C00F2EF3E7EF2EF0E0D0
:1004B000FF2EF02DF701D08040E061818D2D0E944C
:1004C000010640E0F70162818D2D0E94010606E6DB
:1004D00010E0F801D1814C2F417064858D2F0E946E
:1004E00001064C2F427050E055954795F801638501
:1004F0008D2F0E9401064C2F447050E05595479572
:1005000055954795F80162858D2F0E9401064C2F65
:10051000487050E0559547955595479555954795A1
:10052000F80161858D2F0E9401064C2F407150E02B
:1005300055954795559547955595479555954795A3
:10054000F80160858D2F0E9401064C2F407250E00B
:100550005595479555954795559547955595479583
:1005600055954795F80167818D2F0E9401064C2F04
:10057000407450E0042E452F000C441F550B000C16
:10058000441F551FF80166818D2F0E9401064C2FD4
:10059000441F4427441FF80165818D2F0E940106E6
:1005A00041E0F70163818D2D0E94010684E1809373
:1005B00062008FEF40C061E472E082E00E943D097A
:1005C0008B3FB1F521E432E041E050E060E070E0C3
:1005D00082E00E942E0861E472E082E00E943D0900
:1005E0008111F9CFE3E7F0E040E0638180810E9470
:1005F000010685E1809362008FEF1DC061E472E027
:1006000082E00E943D09C82F8B3F49F421E432E08B
:1006100042E050E060E070E082E00E94AC08C1116E
:1006200009C08FEF8093620080E005C081E003C0C5
:100630008FEF01C08FEFDF91CF911F910F91FF904E
:10064000EF90DF9008950F931F93CF93DF93C82F00
:1006500080916100843109F485C08F3F09F0A5C005
:1006600006E610E0F801D08141E062818D2F0E9402
:10067000010640E0F80163818D2F0E940106F80118
:10068000D1814C2F417064858D2F0E9401064C2F23
:10069000427050E055954795F80163858D2F0E9473
:1006A00001064C2F447050E0559547955595479558
:1006B000F80162858D2F0E9401064C2F487050E092
:1006C000559547955595479555954795F8016185F9
:1006D0008D2F0E9401064C2F407150E05595479593
:1006E000559547955595479555954795F8016085DA
:1006F0008D2F0E9401064C2F407250E05595479572
:1007000055954795559547955595479555954795D1
:10071000F80167818D2F0E9401064C2F407450E034
:10072000042E452F000C441F550B000C441F551F71
:10073000F80166818D2F0E9401064C2F441F44272B
:10074000441FF80165818D2F0E940106E3E7F0E068
:1007500041E0638180810E94010684E18093610011
:100760008FEF26C061E472E082E00E943D098B3F7A
:10077000F1F421E432E041E050E060E070E082E03A
:100780000E942E0861E472E082E00E943D0981111E
:10079000F9CFE3E7F0E040E0638180810E94010649
:1007A0008FEF8093610080E003C081E001C08FEF94
:1007B000DF91CF911F910F9108958F929F92AF92E9
:1007C000BF92CF92DF92EF92FF920F931F93CF933E
:1007D000DF93809160008B3009F4D5C090F48830AD
:1007E00009F4B3C038F4853009F48DC0863009F4BB
:1007F000A2C0FBC0893009F4B2C08A3009F4B9C084
:10080000F4C08E3009F4DDC038F48C3009F4C5C072
:100810008D3009F4CCC0E9C08F3009F4DCC08F3FC3
:1008200009F0E3C082E00E942707C6E6D0E08D8091
:10083000098141E0682D802F0E9498059E8041E04B
:10084000692D802F0E949805AF8041E06A2D802F8E
:100850000E949805B88441E06B2D802F0E94980576
:10086000C98441E06C2D802F0E949805DA8441E014
:100870006D2D802F0E949805EB8441E06E2D802F16
:100880000E949805FC8441E06F2D802F0E949805FE
:10089000188141E06A81812F0E94980541E06B81B7
:1008A000812F0E94980541E06C81812F0E9498055C
:1008B00040E0682D802F0E94010640E0692D802FC6
:1008C0000E94010640E06A2D802F0E94010640E050
:1008D0006B2D802F0E94010640E06C2D802F0E941E
:1008E000010640E06D2D802F0E94010640E06E2D34
:1008F000802F0E94010640E06F2D802F0E9401068C
:1009000085E08093600061E472E082E00E943D092E
:10091000C82F8B3F49F421E432E04FE050E060E023
:1009200070E082E00E94AC08C11161C086E0809353
:1009300060008FEF6FC080E30E944102811159C0B7
:1009400088E0809360008FEF65C080E30E944102E1
:10095000811151C089E0809360008FEF5BC080E31C
:100960000E944102811149C08AE0809360008FEFAC
:1009700051C088E30E944102811141C08BE0809305
:1009800060008FEF47C08CE00E944102811139C0A6
:100990008CE0809360008FEF3DC081E00E944102B7
:1009A000811131C08DE0809360008FEF33C086E00D
:1009B0000E944102811129C08EE0809360008FEF78
:1009C00029C080E80E944102811121C08FE08093FC
:1009D00060008FEF1FC082E00E944102811119C0A8
:1009E0008FEF8093600080E015C081E013C08FEF2F
:1009F00011C08FEF0FC08FEF0DC08FEF0BC08FEFC7
:100A000009C08FEF07C08FEF05C08FEF03C08FEFD6
:100A100001C08FEFDF91CF911F910F91FF90EF9069
:100A2000DF90CF90BF90AF909F908F9008950097E8
:100A3000B9F020911001FC01E20FF11D80818823A3
:100A400059F00E94230381110DC0809110018F5F26
:100A50008093100182E008951092100180E00895C3
:100A600081E0089582E00895CF93DF93CDB7DEB79C
:100A70002A970FB6F894DEBF0FBECDBFAE014F5F11
:100A80005F4F0E946E058FEF9FEF09C0CE01019668
:100A90000E941705811102C090E001C091E0811110
:100AA000F5CF892F2A960FB6F894DEBF0FBECDBFC3
:100AB000DF91CF910895DC01FC0101C03196808166
:100AC0008111FCCF319705C08C9190819D938083DB
:100AD0003197AE17BF07C0F380E008950F931F93BF
:100AE000CF93DF938A01611571058105910521F48A
:100AF00080E3FA01808313C0EA012AE030E040E09D
:100B000050E00E942E0D605D6993622F732F842F39
:100B1000952F611571058105910579F71882C80136
:100B20000E945B0580E0DF91CF911F910F910895A6
:100B3000423008F060C0683008F05FC08130E1F0FA
:100B400030F0823071F1833009F440C058C02AB3CC
:100B500081E090E0062E02C0880F991F0A94E2F708
:100B600050E002C0440F551F6A95E2F7809582233A
:100B7000482B4ABB80E0089527B381E090E0062E21
:100B800002C0880F991F0A94E2F750E002C0440F98
:100B9000551F6A95E2F780958223482B47BB80E07A
:100BA000089524B381E090E0062E02C0880F991FBB
:100BB0000A94E2F750E002C0440F551F6A95E2F72D
:100BC00080958223482B44BB80E0089521B381E0C7
:100BD00090E0062E02C0880F991F0A94E2F750E0B9
:100BE00002C0440F551F6A95E2F780958223482B77
:100BF00041BB80E0089581E0089581E0089581E09F
:100C00000895423008F060C0683008F05FC081305D
:100C1000E1F030F0823071F1833009F440C058C007
:100C20002BB381E090E0062E02C0880F991F0A9432
:100C3000E2F750E002C0440F551F6A95E2F7809535
:100C40008223482B4BBB80E0089528B381E090E0DD
:100C5000062E02C0880F991F0A94E2F750E002C0E6
:100C6000440F551F6A95E2F780958223482B48BBB5
:100C700080E0089525B381E090E0062E02C0880F41
:100C8000991F0A94E2F750E002C0440F551F6A957D
:100C9000E2F780958223482B45BB80E0089522B37C
:100CA00081E090E0062E02C0880F991F0A94E2F7B7
:100CB00050E002C0440F551F6A95E2F780958223E9
:100CC000482B42BB80E0089581E0089581E00895BB
:100CD00081E00895823008F04EC090E0FC01EE0FF4
:100CE000FF1F8E0F9F1FFC01E558FF4F828183304D
:100CF00009F128F4813041F0823089F0A2C08430BB
:100D000021F1853069F19DC080E090E0A0E8BDE36D
:100D1000FB0180839183A283B38380E0089580E008
:100D200090E0A0E0BFE3FB0180839183A283B383C3
:100D300080E0089580E090E0A0E8B0E4FB018083CB
:100D40009183A283B38380E0089580E090E0A0E8DF
:100D5000B1E4FB0180839183A283B38380E0089593
:100D600080E090E0A0E8B2E4FB0180839183A2835D
:100D7000B38380E00895823009F065C090E0FC0103
:100D8000EE0FFF1F8E0F9F1FFC01E558FF4FE28102
:100D90008E2F90E0FC013197E730F10508F055C047
:100DA000E65DFF4F0C94500D80E090E0A0E8BDE3BD
:100DB000FB0180839183A283B38380E0089580E068
:100DC00090E0A0E0BFE3FB0180839183A283B38323
:100DD00080E0089580E090E0A0E0B0E4FB01808333
:100DE0009183A283B38380E0089580E090E0A0E83F
:100DF000B0E4FB0180839183A283B38380E00895F4
:100E000080E090E0A0E0B1E4FB0180839183A283C5
:100E1000B38380E0089580E090E0A0E8B1E4FB01B6
:100E200080839183A283B38380E0089580E090E083
:100E3000A0E8B2E4FB0180839183A283B38380E0C6
:100E400008958CEF089580E008958CEF0895813027
:100E5000B1F018F0823071F144C090E0FC01EE0F67
:100E6000FF1F8E0F9F1FFC01E558FF4F808183BF3E
:100E700089B78C7F9181892B89BF80E0089590E0AC
:100E8000FC01EE0FFF1F8E0F9F1FFC01E558FF4F67
:100E900080818EBD89B7282F277E9181892F90E090
:100EA000880F991F880F991F880F991F822B89BF60
:100EB00080E0089590E0FC01EE0FFF1F8E0F9F1F52
:100EC000FC01E558FF4F808185BD89B7282F2F731E
:100ED000918130E4939FC0011124822B89BF80E06F
:100EE00008958EEF0895813071F018F0823031F05E
:100EF0001FC0E2E5F0E0A3E5B0E009C0E4E4F0E003
:100F0000A5E4B0E004C0ECE4F0E0AEE4B0E071834E
:100F100060832C9190E0FC01EE0FFF1F8E0F9F1F4E
:100F2000FC01E558FF4F8281822B8C9380E008956D
:100F30008EEF08956115710509F47AC0813041F191
:100F400020F0823009F452C075C090E0FC01EE0F31
:100F5000FF1F8E0F9F1FFC01E558FF4F80818111FD
:100F600009C008B600FE68C0FB01108298B7916006
:100F700098BF0895883009F061C008B601FE60C0CE
:100F800081E0FB01808388B7826088BF80E008959C
:100F900090E0FC01EE0FFF1F8E0F9F1FFC01E55834
:100FA000FF4F8081811109C008B602FE4BC0FB01D2
:100FB000108298B7946098BF0895883009F044C0B3
:100FC00098B7892F807194FF08C081E0FB0180836E
:100FD00088B7806188BF80E0089593FF37C091E0B3
:100FE000FB01908398B7986098BF089590E0FC014A
:100FF000EE0FFF1F8E0F9F1FFC01E558FF4F8081F2
:10100000811109C008B606FE23C0FB01108298B703
:10101000906498BF08958830E9F408B607FE1CC0B4
:1010200081E0FB01808388B7806888BF80E00895F5
:101030008FEF08958EEF08958DEF089580E0089565
:101040008DEF08958DEF089580E008958DEF089558
:101050008DEF089580E008958DEF08958F929F920F
:10106000AF92BF92CF92DF92EF92FF921F93CF93F6
:10107000DF9300D000D0CDB7DEB7182F6A017B0117
:10108000833008F054C02115310509F452C0309363
:101090001201209311018091130181114CC0BE01F6
:1010A0006F5F7F4F812F0E946A068C3FF1F189802C
:1010B0009A80AB80BC8020E030E0A901C501B4017A
:1010C0000E94D60B882361F0C701B6010E947C0CF8
:1010D000A50194010E94DB0B0E944D0C6B017C0169
:1010E000BB27AF2D9E2D8D2D809316019093170158
:1010F000A0931801B0931901C0921401892B8A2B77
:101100008B2B49F481E0809315016C2D70E0812FC9
:101110000E94730705C06FEF70E0812F0E94730774
:1011200081E0809313018DEF07C08CEF05C08EEF37
:1011300003C081E001C081E00F900F900F900F90ED
:10114000DF91CF911F91FF90EF90DF90CF90BF90F4
:10115000AF909F908F9008958F929F92AF92BF9281
:10116000DF92EF92FF920F931F93CF93DF9300D004
:1011700000D0CDB7DEB7182F042FD52EE62EF72ED0
:10118000833008F065C02115310509F463C0309340
:101190001201209311018091130181115DC0BE01E4
:1011A0006F5F7F4F812F0E946A068C3F09F44EC00B
:1011B00089809A80AB80BC8020E030E0A901C50125
:1011C000B4010E94D60B882381F0602F7D2D8E2DD7
:1011D0009F2D0E947C0CA50194010E94DB0B0E94B4
:1011E0004D0C062FD72EE82EF92EA8EEB3E0202FB7
:1011F0003D2D4E2D5F2D0E94560DBB27A92F982FF8
:10120000872F8093160190931701A0931801B09334
:10121000190128EE029F002D112400931401892B3F
:101220008A2B8B2B49F481E080931501602F70E0AD
:10123000812F0E94730705C06FEF70E0812F0E941D
:10124000730781E0809313018DEF07C08CEF05C019
:101250008EEF03C081E001C081E00F900F900F90EE
:101260000F90DF91CF911F910F91FF90EF90DF9042
:10127000BF90AF909F908F9008951F93CF93DF936F
:101280001F92CDB7DEB790911301992309F44CC09A
:1012900020911101309112012617370709F046C03D
:1012A00090911301913009F043C0182FBE016F5F78
:1012B0007F4F0E949A07811135C0809115018130BE
:1012C00041F410921301109215011092140180E064
:1012D00030C08091160190911701A0911801B09132
:1012E00019010197A109B109809316019093170183
:1012F000A0931801B0931901892B8A2B8B2B59F4D9
:1013000081E0809315016091140170E0812F0E94AB
:1013100073078DEF0EC06FEF70E0812F0E9473078F
:101320008DEF07C080E005C08BEF03C081E001C0F6
:1013300081E00F90DF91CF911F910895CF93DF93BC
:101340001F92CDB7DEB790E1981B9983809164001E
:10135000813019F08230C1F038C0662329F08AE26A
:101360000E9423038111FBCF88E10E944102811179
:10137000FBCF80911D01815080931D01811125C0FB
:1013800082E08093640021C0662379F080E10E94AE
:1013900041028111FBCF80E20E9423038111FBCF28
:1013A00080E10E9441028111FBCF8CE10E94410249
:1013B0008111FBCF80911D018F5F80931D01998169
:1013C000891718F081E0809364000F90DF91CF912E
:1013D00008951F93CF93DF931F92CDB7DEB7198285
:1013E0008CE191E00E949F0BCE0101960E949A0B26
:1013F000209163008AEF820F833020F480911A01DC
:10140000811129833981832F90E0FC013397E830E3
:10141000F10508F082C1EF5CFF4F0C94500D2317CB
:10142000A9F010921D0181E00E9441028111FBCFC1
:1014300082E00E9441028111FBCF84E890E00E948B
:1014400017058111FACF82E08093640060E08EE09E
:101450000E949E0967C12317A9F010921D0181E027
:101460000E9441028111FBCF82E00E944102811162
:10147000FBCF83E990E00E9417058111FACF82E04B
:101480008093640060E087E00E949E094BC12317AF
:1014900081F186E080931D0181E00E94410281116B
:1014A000FBCF82E00E9441028111FBCF80911D01A0
:1014B00080680E9441028111F9CF8BE990E00E947F
:1014C00017058111FACF81E08093640080EC0E94BF
:1014D00041028111FBCF10E008C08AE20E94230381
:1014E0008111FBCF163028F41F5F80911C01181763
:1014F000A0F360911C018AE00E949E0913C123178A
:10150000C1F010921D0180E00E94A70B81E00E94B3
:1015100041028111FBCF82E00E9441028111FBCF89
:1015200086EA90E00E9417058111FACF82E080934D
:10153000640060E087E00E949E0980911A018F5F3D
:1015400080931A01883209F0EDC010921B011092AD
:101550001A0189E00E94A40BE5C02317C1F0109284
:101560001D0180E00E94A70B81E00E9441028111D1
:10157000FBCF82E00E9441028111FBCF8EEA90E016
:101580000E9417058111FACF82E08093640060E029
:101590008AE00E949E0980911A018F5F80931A0150
:1015A000883209F0BFC010921A0180911B018F5F31
:1015B00080931B01833021F488E00E94A40BB2C009
:1015C00085E00E94A40BAEC02317F1F089E0809360
:1015D0001D0180E00E94A70B81E00E944102811161
:1015E000FBCF82E00E9441028111FBCF89EB90E0AA
:1015F0000E9417058111FACF81E08093640080EC8E
:101600000E9441028111FBCF60E087E00E949E09A9
:1016100080916400813079F484E10E94410281115B
:10162000FBCF60911A0170E080E090E00E943405E9
:101630008F3FB9F713C080E10E9441028111FBCFB7
:1016400060911A0170E080E090E00E943405811101
:10165000F7CF80E10E9441028111FBCF80911A01F6
:101660008F5F80931A01883C09F05CC010921B01C7
:1016700010921A0185E00E94A40B54C02317A9F010
:1016800010921D0181E00E9441028111FBCF82E096
:101690000E9441028111FBCF81EC90E00E9417056E
:1016A0008111FACF82E08093640060E08CE00E94B8
:1016B0009E0938C02317B1F183E080931D0181E0BA
:1016C0000E9441028111FBCF82E00E944102811100
:1016D000FBCF80911D0180680E9441028111F9CFEA
:1016E0008EEC90E00E9417058111FACF81E0809383
:1016F000640080EC0E9441028111FBCF10E008C021
:101700008AE20E9423038111FBCF163058F41F5F39
:1017100080911C011817A0F305C081E00E944102CE
:101720008111FBCF8981809363000F90DF91CF916E
:101730001F91089520916500FC0120830895209158
:101740001E01FC0120830895809365000895809315
:101750001E010895CF93DF9300D000D0CDB7DEB740
:101760000E94DD038111FCCF86E00E94A70B88E078
:101770000E94A40B0E94E90919821A821B821C8212
:101780000BC089819A81AB81BC810196A11DB11DDD
:1017900089839A83AB83BC8389819A81AB81BC8125
:1017A000803A9648A140B10560F3E4CF0E94B90C9D
:1017B00008F481E008950E94EF0B0C94F40C0E9451
:1017C000ED0C58F00E94E60C40F029F45F3F29F040
:1017D0000C94DD0C51110C94280D0C94E30C0E9418
:1017E000050D68F39923B1F3552391F3951B550B20
:1017F000BB27AA2762177307840738F09F5F5F4FE4
:10180000220F331F441FAA1FA9F335D00E2E3AF022
:10181000E0E832D091505040E695001CCAF72BD03A
:10182000FE2F29D0660F771F881FBB1F261737078B
:101830004807AB07B0E809F0BB0B802DBF01FF27BD
:1018400093585F4F3AF09E3F510578F00C94DD0CB1
:101850000C94280D5F3FE4F3983ED4F3869577957A
:101860006795B795F7959F5FC9F7880F911D969576
:10187000879597F90895E1E0660F771F881FBB1FD2
:10188000621773078407BA0720F0621B730B840B7F
:10189000BA0BEE1F88F7E09508950E940D0D88F0B1
:1018A0009F5798F0B92F9927B751B0F0E1F0660F24
:1018B000771F881F991F1AF0BA95C9F714C0B13065
:1018C00091F00E94270DB1E008950C94270D672F29
:1018D000782F8827B85F39F0B93FCCF38695779594
:1018E0006795B395D9F73EF490958095709561957D
:1018F0007F4F8F4F9F4F0895E89409C097FB3EF4A8
:1019000090958095709561957F4F8F4F9F4F99234C
:10191000A9F0F92F96E9BB279395F69587957795CA
:101920006795B795F111F8CFFAF4BB0F11F460FF8A
:101930001BC06F5F7F4F8F4F9F4F16C0882311F0E2
:1019400096E911C0772321F09EE8872F762F05C0F6
:10195000662371F096E8862F70E060E02AF09A9591
:10196000660F771F881FDAF7880F9695879597F986
:101970000895990F0008550FAA0BE0E8FEEF161620
:101980001706E807F907C0F012161306E407F50773
:1019900098F0621B730B840B950B39F40A2661F0E7
:1019A000232B242B252B21F408950A2609F4A1408A
:1019B000A6958FEF811D811D089597F99F6780E897
:1019C00070E060E008959FEF80EC089500240A9491
:1019D0001616170618060906089500240A9412160A
:1019E0001306140605060895092E0394000C11F43D
:1019F000882352F0BB0F40F4BF2B11F460FF04C0EA
:101A00006F5F7F4F8F4F9F4F089557FD9058440F42
:101A1000551F59F05F3F71F04795880F97FB991F4D
:101A200061F09F3F79F0879508951216130614060A
:101A3000551FF2CF4695F1DF08C016161706180697
:101A4000991FF1CF86957105610508940895E89472
:101A5000BB2766277727CB0197F90895A1E21A2EB5
:101A6000AA1BBB1BFD010DC0AA1FBB1FEE1FFF1F42
:101A7000A217B307E407F50720F0A21BB30BE40B92
:101A8000F50B661F771F881F991F1A9469F76095D9
:101A90007095809590959B01AC01BD01CF01089593
:101AA000EE0FFF1F0590F491E02D09940E94610D47
:101AB000A59F900DB49F900DA49F800D911D1124A2
:101AC0000895A29FB001B39FC001A39F700D811D17
:101AD0001124911DB29F700D811D1124911D089537
:041AE000F894FFCFA8
:101AE400FFFFFFFFFFFF00010102030706050403D8
:101AF40002010000010203070605040000000000C3
:101B04000000000153797374656D204C6F61646942
:101B14006E670057454C434F4D4500456E746572E2
:101B240020506173730050617373204F4B005772E0
:101B34006F6E6720506173730057616974696E67D3
:101B44000053797374656D206973204F4E004368A8
:0C1B5400616E67696E672050617373005A
:00000001FF
