S02A00004D43555F546F5F4D43555F426C7565746F6F74685F436F6D6D756E69636174696F6E2E73726563E5
S11300000C9431000C944E000C944E000C944E0051
S11300100C944E000C944E000C944E000C94AE00C4
S11300200C944E000C944E000C944E000C944E0014
S11300300C944E000C944E000C944E000C944E0004
S11300400C944E000C944E000C944E000C944E00F4
S11300500C944E00FF080B09170923092F093B09CB
S1130060470911241FBECFE5D8E0DEBFCDBF10E0A5
S1130070A0E6B0E0EEE0FEE102C005900D92A838E3
S1130080B107D9F720E0A8E8B0E001C01D92A63C72
S1130090B207E1F70E94760D0C94050F0C94000052
S11300A00F920FB6F8940F921F9211242F923F9241
S11300B04F925F926F927F928F929F92AF92BF9274
S11300C0CF92DF92EF92FF920F931F932F933F9360
S11300D04F935F936F937F938F939F93AF93BF934C
S11300E0CF93DF93EF93FF93A0918800B0918900A1
S11300F00DB60D920EB60D920E94B200882311F037
S11301000E948102A0918800B0918900CD91CDBF59
S1130110DD91DEBFFF91EF91DF91CF91BF91AF9160
S11301209F918F917F916F915F914F913F912F910B
S11301301F910F91FF90EF90DF90CF90BF90AF9001
S11301409F908F907F906F905F904F903F902F90F3
S11301501F900F900FBE0F90089500000E94500052
S113016018950000CF93DF93CDB7DEB72F970FB666
S1130170F894DEBF0FBECDBF19828091BB008823E7
S113018009F0ACC18091B2009091B30001969B83B9
S11301908A838A819B819093B3008093B2008A8181
S11301A09B81892BD9F48091AE009091AF009D83FF
S11301B08C838091B0009091B1009093AF008093B4
S11301C0AE008C819D819093B1008093B0008091AA
S11301D0B8008F5F8093B8000E94F5028091B90047
S11301E09091BA002A813B812817390708F456C137
S11301F08091AE009091AF00FC018081882339F496
S11302008FEF9FEF9093BA008093B90047C180911C
S1130210AE009091AF00FC0185819681FC0186813E
S113022097819F838E838E819F81FC01828193813C
S1130230998788872A813B8188859985281739077A
S113024038F4888599859093BA008093B90026C1C3
S11302508E819F81FC01828593859B878A878E810D
S11302609F81FC01848195812E813F81F901268142
S11302703781FC01358324838E819F81FC01868133
S113028097812E813F81F90124813581FC013383DB
S113029022838A859B85FC01218132818E819F8105
S11302A002962817390751F48E819F81FC0126811B
S11302B037818A859B85FC01328321838E819F81CE
S11302C0FC01138612868A859B85FC0180812FEFB1
S11302D0280F8A859B85FC0120838E819F81FC01E8
S11302E084899589892B09F445C08E819F81FC01FD
S11302F0848995899D878C878E819F81FC01868561
S113030097852E813F81F90120893189FC0135834C
S113031024838E819F81FC01808991892E813F8174
S1130320F90126853785FC01338322838C859D85DD
S1130330FC01218132818E819F810C962817390717
S113034051F48E819F81FC01208931898C859D85A2
S1130350FC01328321838E819F81FC01158A148ADA
S11303608C859D85FC0180812FEF280F8C859D85D0
S1130370FC0120838E819F81FC0196898091B400C9
S1130380891730F48E819F81FC0186898093B400A3
S11303908E819F81FC018689282F30E0C901880F56
S11303A0991F880F991F880F991F820F931F8557D4
S11303B09F4FFC01808191819F878E878E819F81D1
S11303C02E853F85FC01358324838E859F85FC0122
S11303D0248135818E819F81FC01378326838E851C
S11303E09F85FC01848195812E813F812E5F3F4F43
S11303F0FC01338322838E819F819C012E5F3F4FBA
S11304008E859F85FC01358324838E819F81FC0129
S11304108689282F30E0C901880F991F880F991FFA
S1130420880F991F820F931F9C0126573F4F8E817F
S11304309F81FC01338722878E819F81FC018689FD
S1130440282F30E0C901880F991F880F991F880F42
S1130450991F820F931F86579F4FFC01808141E0B3
S1130460480FC901880F991F880F991F880F991F7A
S1130470820F931F86579F4FFC0140838E819F817B
S1130480FC0126898091880090918900FC0186896D
S1130490281708F4ADCE81E08983AACE8091880024
S11304A090918900FC018689282F30E0C901880FCA
S11304B0991F880F991F880F991F820F931F8657C2
S11304C09F4FFC018081823010F081E0898380910C
S11304D0B700882361F081E0898309C08091B50069
S11304E09091B60001969093B6008093B5008981EF
S11304F02F960FB6F894DEBF0FBECDBFDF91CF911C
S11305000895CF93DF9300D01F92CDB7DEB78091CB
S1130510BB00882321F081E08093B7005FC0109274
S1130520B7008091B400898303C089818150898395
S11305308981282F30E0C901880F991F880F991FDE
S1130540880F991F820F931F86579F4FFC0180814C
S1130550882359F38981282F30E0C901880F991F16
S1130560880F991F880F991F820F931F86579F4FDB
S11305709B838A838A819B81FC0181819281FC0116
S1130580228133818A819B81FC01328321838A8188
S11305909B81FC01218132818A819B8103962817EA
S11305A0390769F48A819B81FC0181819281FC0174
S11305B0228133818A819B81FC01328321838A8158
S11305C09B81FC0181819281FC01868197819093BA
S11305D089008093880089818093B40000000F9083
S11305E00F900F90DF91CF910895CF93DF93CDB704
S11305F0DEB78091AE009091AF00FC01808188232A
S113060039F48FEF9FEF9093BA008093B9000EC036
S11306108091AE009091AF00FC0185819681FC0130
S1130620808191819093BA008093B9000000DF919A
S1130630CF910895CF93DF9300D01F92CDB7DEB74B
S11306408B838FEF898381E08A8380916000882F78
S113065090E08531910509F4D9C08F3F910521F0CF
S1130660449709F4AFC0ECC090916A00809169008E
S113067040E0692F0E94A70790916B008091690068
S113068040E0692F0E94A7078B81282F2170909149
S11306907D0080917200422F692F0E94A7078B81F1
S11306A0882F90E08270992795958795282F9091AF
S11306B07C0080917200422F692F0E94A7078B81D2
S11306C0882F90E0847099279595879595958795BF
S11306D0282F90917B0080917200422F692F0E94F5
S11306E0A7078B81882F90E0887099279595879527
S11306F09595879595958795282F90917A00809167
S11307007200422F692F0E94A7078B81882F90E0E7
S11307108071992795958795959587959595879552
S113072095958795282F9091790080917200422F9A
S1130730692F0E94A7078B81882F90E080729927E8
S1130740959587959595879595958795959587958D
S113075095958795282F9091780080917200422F6B
S1130760692F0E94A7078B81882F90E080749927B6
S1130770082E892F000C881F990B000C881F991FC5
S1130780282F9091770080917200422F692F0E9448
S1130790A7078B81282F221F2227221F90917600E2
S11307A080917200422F692F0E94A70790916C00DC
S11307B08091690041E0692F0E94A70784E180933A
S11307C0600044C06AE173E082E00E94020D8B3F46
S11307D0D1F52AE133E041E050E060E070E082E0EE
S11307E00E94AD0B00006AE173E082E00E94020DFA
S11307F08823C9F790916C008091690040E0692FCB
S11308000E94A70785E1809360001DC06AE173E040
S113081082E00E94020D8A838A818B3F49F42AE197
S113082033E042E050E060E070E082E00E94520C6D
S11308308A81882351F419828FEF8093600005C068
S113084081E0898303C0000001C0000089810F900A
S11308500F900F90DF91CF910895CF93DF9300D045
S1130860CDB7DEB78A838FEF898380916100882FAB
S113087090E08431910509F4B2C08F3F910509F0ED
S1130880D3C0909173008091710041E0692F0E9460
S1130890A707909174008091710040E0692F0E9435
S11308A0A7078A81282F217090917D008091720082
S11308B0422F692F0E94A7078A81882F90E08270B7
S11308C0992795958795282F90917C0080917200A7
S11308D0422F692F0E94A7078A81882F90E0847095
S11308E099279595879595958795282F90917B00C5
S11308F080917200422F692F0E94A7078A81882F56
S113090090E0887099279595879595958795959505
S11309108795282F90917A0080917200422F692F39
S11309200E94A7078A81882F90E080719927959566
S11309308795959587959595879595958795282F6E
S11309409091790080917200422F692F0E94A7072D
S11309508A81882F90E0807299279595879595953F
S11309608795959587959595879595958795282F3E
S11309709091780080917200422F692F0E94A707FE
S11309808A81882F90E080749927082E892F000C83
S1130990881F990B000C881F991F282F90917700AE
S11309A080917200422F692F0E94A7078A81282F05
S11309B0221F2227221F9091760080917200422FDD
S11309C0692F0E94A70790916C008091690041E013
S11309D0692F0E94A70784E18093610029C06DE21A
S11309E074E082E00E94020D8B3F09F52DE234E0B1
S11309F041E050E060E070E082E00E94AD0B000056
S1130A006DE274E082E00E94020D8823C9F79091A0
S1130A106C008091690040E0692F0E94A7078FEF66
S1130A2080936100198203C081E0898301C00000C2
S1130A3089810F900F90DF91CF910895CF93DF9329
S1130A4000D01F92CDB7DEB78FEF898381E08A8310
S1130A508FEF8B8380916200882F90E08B3091051B
S1130A6009F419C18C309105BCF48830910509F45E
S1130A70EEC08930910544F48530910509F4C1C074
S1130A80069709F4D8C040C18930910509F4EBC038
S1130A900A9709F4F4C038C18E30910509F41DC1D8
S1130AA08F30910544F48C30910509F400C10D9701
S1130AB009F408C129C18F30910509F419C18F3F88
S1130AC0910509F021C182E00E945C0990917600B1
S1130AD08091720041E0692F0E94E30690917700B3
S1130AE08091720041E0692F0E94E30690917800A2
S1130AF08091720041E0692F0E94E3069091790091
S1130B008091720041E0692F0E94E30690917A007F
S1130B108091720041E0692F0E94E30690917B006E
S1130B208091720041E0692F0E94E30690917C005D
S1130B308091720041E0692F0E94E30690917D004C
S1130B408091720041E0692F0E94E3069091730046
S1130B508091710041E0692F0E94E3069091740036
S1130B608091710041E0692F0E94E3069091750025
S1130B708091710041E0692F0E94E3069091760014
S1130B808091720040E0692F0E94A707909177003E
S1130B908091720040E0692F0E94A707909178002D
S1130BA08091720040E0692F0E94A707909179001C
S1130BB08091720040E0692F0E94A70790917A000B
S1130BC08091720040E0692F0E94A70790917B00FA
S1130BD08091720040E0692F0E94A70790917C00E9
S1130BE08091720040E0692F0E94A70790917D00D8
S1130BF08091720040E0692F0E94A70785E08093EE
S1130C0062006AE173E082E00E94020D8A838A81B5
S1130C108B3F49F42AE133E04FE050E060E070E0BC
S1130C2082E00E94520C8A81882309F070C086E019
S1130C30809362006CC080E30E941A038B838B81D3
S1130C40882309F066C088E08093620062C080E374
S1130C500E941A038B838B81882309F05CC089E08E
S1130C608093620058C080E30E941A038B838B81B7
S1130C70882309F052C08AE0809362004EC088E362
S1130C800E941A038B838B81882309F048C08BE070
S1130C908093620044C08FE00E941A038B838B818F
S1130CA0882309F03EC08CE0809362003AC086E05D
S1130CB00E941A038B838B818823A9F58DE080938E
S1130CC0620031C082E00E941A038B838B818823E7
S1130CD061F58EE08093620028C080E80E941A03C8
S1130CE08B838B81882319F58FE0809362001FC06A
S1130CF080E80E941A038B838B818823D1F48FEFC1
S1130D0080936200198215C081E0898313C00000BA
S1130D1011C000000FC000000DC000000BC0000097
S1130D2009C0000007C0000005C0000003C00000A7
S1130D3001C0000089810F900F900F90DF91CF9137
S1130D400895CF93DF9300D000D0CDB7DEB79C8356
S1130D508B838FEF89838FEF8A838B819C81892B8F
S1130D6041F18091BC00882F90E02B813C81820F5F
S1130D70931FFC0180818823C1F082E089838091E4
S1130D80BC00882F90E02B813C81820F931FFC01D3
S1130D9080810E942D048A838A81882361F4809152
S1130DA0BC008F5F8093BC0006C01092BC00198207
S1130DB002C081E0898389810F900F900F900F907A
S1130DC0DF91CF910895CF93DF9300D000D0CDB7BA
S1130DD0DEB78A836B834C8319828C81882331F03C
S1130DE08C81813019F081E08983A9C08B8188309E
S1130DF018F081E08983A3C08A81882F90E0813034
S1130E00910589F1823091051CF4892B49F094C035
S1130E108230910509F44AC0039709F46AC08CC072
S1130E208AE390E02AE330E0F9012081622F2B81EC
S1130E30422F50E021E030E002C0220F331F4A95D8
S1130E40E2F7209562232C81222F30E04B81442F3E
S1130E5050E002C0220F331F4A95E2F7262BFC0113
S1130E60208319826CC087E390E027E330E0F90126
S1130E702081622F2B81422F50E021E030E002C01C
S1130E80220F331F4A95E2F7209562232C81222FEB
S1130E9030E04B81442F50E002C0220F331F4A95AB
S1130EA0E2F7262BFC012083198249C084E390E0F9
S1130EB024E330E0F9012081622F2B81422F50E09E
S1130EC021E030E002C0220F331F4A95E2F720955B
S1130ED062232C81222F30E04B81442F50E002C04A
S1130EE0220F331F4A95E2F7262BFC012083198237
S1130EF026C081E390E021E330E0F9012081622FF4
S1130F002B81422F50E021E030E002C0220F331F3A
S1130F104A95E2F7209562232C81222F30E04B8101
S1130F20442F50E002C0220F331F4A95E2F7262BCC
S1130F30FC012083198203C081E089830000898138
S1130F400F900F900F900F90DF91CF910895CF9352
S1130F50DF9300D000D0CDB7DEB78A836B834C8398
S1130F6019828C81882331F08C81813019F081E0E1
S1130F708983A9C08B81883018F081E08983A3C05C
S1130F808A81882F90E08130910589F18230910522
S1130F901CF4892B49F094C08230910509F44AC0AD
S1130FA0039709F46AC08CC08BE390E02BE330E034
S1130FB0F9012081622F2B81422F50E021E030E0A3
S1130FC002C0220F331F4A95E2F7209562232C8139
S1130FD0222F30E04B81442F50E002C0220F331FF8
S1130FE04A95E2F7262BFC01208319826CC088E322
S1130FF090E028E330E0F9012081622F2B81422F19
S113100050E021E030E002C0220F331F4A95E2F79E
S1131010209562232C81222F30E04B81442F50E015
S113102002C0220F331F4A95E2F7262BFC012083CE
S1131030198249C085E390E025E330E0F90120817D
S1131040622F2B81422F50E021E030E002C0220FBA
S1131050331F4A95E2F7209562232C81222F30E03A
S11310604B81442F50E002C0220F331F4A95E2F710
S1131070262BFC012083198226C082E390E022E320
S113108030E0F9012081622F2B81422F50E021E0D2
S113109030E002C0220F331F4A95E2F72095622305
S11310A02C81222F30E04B81442F50E002C0220FCC
S11310B0331F4A95E2F7262BFC012083198203C0D3
S11310C081E08983000089810F900F900F900F9029
S11310D0DF91CF910895CF93DF9300D01F92CDB7C6
S11310E0DEB789837B836A838981882321F08981A0
S11310F0813009F05FC08981282F30E0C901880F51
S1131100991F820F931F80589F4FFC018081882F65
S113111090E08330910539F18430910534F48130C5
S1131120910549F0029799F042C08430910539F154
S1131130059789F13CC02A813B8180E090E0A0E8DA
S1131140BDE3F90180839183A283B38332C02A81F2
S11311503B8180E090E0A0E0BFE3F90180839183CC
S1131160A283B38326C02A813B8180E090E0A0E87B
S1131170B0E4F90180839183A283B3831AC02A81E6
S11311803B8180E090E0A0E8B1E4F90180839183A1
S1131190A283B3830EC02A813B8180E090E0A0E863
S11311A0B2E4F90180839183A283B38302C08CEFFC
S11311B07DC07BC08981823009F077C08981282F66
S11311C030E0C901880F991F820F931F80589F4FE9
S11311D0FC018081882F90E0092E000CAA0BBB0B28
S11311E041E050E026E030E0841B950B28173907D6
S11311F008F459C0865D9F4FFC010C94E50E2A81CA
S11312003B8180E090E0A0E8BDE3F9018083918315
S1131210A283B3834AC02A813B8180E090E0A0E0AE
S1131220BFE3F90180839183A283B3833EC02A8103
S11312303B8180E090E0A0E0B0E4F90180839183F9
S1131240A283B38332C02A813B8180E090E0A0E88E
S1131250B0E4F90180839183A283B38326C02A81F9
S11312603B8180E090E0A0E0B1E4F90180839183C8
S1131270A283B3831AC02A813B8180E090E0A0E876
S1131280B1E4F90180839183A283B3830EC02A81E0
S11312903B8180E090E0A0E8B2E4F901808391838F
S11312A0A283B38302C08CEF01C080E00F900F9043
S11312B00F90DF91CF910895CF93DF931F92CDB715
S11312C0DEB789838981882F90E081309105B1F15F
S11312D08230910509F46AC0892B09F0A2C043E564
S11312E050E08981282F30E0C901880F991F820FAF
S11312F0931F82589F4FFC018081FA01808389E506
S113130090E029E530E0F90120812C7FFC01208365
S113131049E550E089E590E0FC0160818981282F4E
S113132030E0C901880F991F820F931F81589F4F86
S1131330FC018081862BFA01808375C04EE450E065
S11313408981282F30E0C901880F991F820F931FCC
S113135082589F4FFC018081FA01808389E590E0E7
S113136029E530E0F9012081277EFC01208349E54D
S113137050E089E590E0FC018081682F8981282F65
S113138030E0C901880F991F820F931F81589F4F26
S1131390FC018081882F90E0880F991F880F991F86
S11313A0880F991F862BFA0180833DC045E450E0E5
S11313B08981282F30E0C901880F991F820F931F5C
S11313C082589F4FFC018081FA01808389E590E077
S11313D029E530E0F90120812F73FC01208349E5E0
S11313E050E089E590E0FC018081682F8981282FF5
S11313F030E0C901880F991F820F931F81589F4FB6
S1131400FC018081882F90E00024969587950794AD
S1131410969587950794982F802D862BFA018083C3
S113142002C08EEF01C080E00F90DF91CF9108954C
S1131430CF93DF93CDB7DEB727970FB6F894DEBF0F
S11314400FBECDBF8D837F836E831A8219821C8267
S11314501B828D81882F90E08130910571F082305C
S11314609105A1F0892BD9F483E590E09A838983CF
S113147082E590E09C838B8314C08EE490E09A8391
S113148089838CE490E09C838B830BC085E490E09B
S11314909A83898384E490E09C838B8302C08EEFDB
S11314A01EC08B819C812E813F81FC01318320836E
S11314B089819A81FC0140818D81282F30E0C90106
S11314C0880F991F820F931F80589F4FFC018081C2
S11314D0242F282B89819A81FC01208380E0279680
S11314E00FB6F894DEBF0FBECDBFDF91CF91089544
S11314F0CF93DF9300D01F92CDB7DEB789837B8370
S11315006A838A819B81892B11F48FEF20C18981A1
S1131510882F90E08130910509F459C082309105FB
S113152009F4C0C0892B09F00AC18981282F30E051
S1131530C901880F991F820F931F82589F4FFC0186
S113154080818823D1F488E590E0FC018081882F94
S113155090E081709927892B71F08A819B81FC012D
S1131560108288E590E028E530E0F90120812160CF
S1131570FC012083E6C08DEFEAC08981282F30E08A
S1131580C901880F991F820F931F82589F4FFC0136
S11315908081883009F0D5C088E590E0FC01808125
S11315A0882F90E082709927892B79F08A819B811A
S11315B021E0FC01208388E590E028E530E0F90192
S11315C020812260FC012083BCC08DEFC0C08981D2
S11315D0282F30E0C901880F991F820F931F82586A
S11315E09F4FFC0180818823D1F488E590E0FC01C1
S11315F08081882F90E084709927892B71F08A81EB
S11316009B81FC01108288E590E028E530E0F90137
S113161020812460FC01208396C08DEF98C08981CD
S1131620282F30E0C901880F991F820F931F825819
S11316309F4FFC018081883009F085C088E590E0E7
S1131640FC018081882F90E080719927892B79F0A3
S11316508A819B8121E0FC01208388E590E028E5D4
S113166030E0F90120812061FC0120836CC088E511
S113167090E0FC018081882F90E088709927892B65
S113168079F08A819B8121E0FC01208388E590E048
S113169028E530E0F90120812860FC01208353C053
S11316A08DEF55C08981282F30E0C901880F991F1B
S11316B0820F931F82589F4FFC0180818823D1F4AD
S11316C088E590E0FC018081882F90E08074992760
S11316D0892B71F08A819B81FC01108288E590E05E
S11316E028E530E0F90120812064FC0120832DC02D
S11316F08DEF2DC08981282F30E0C901880F991FF3
S1131700820F931F82589F4FFC0180818830E9F437
S113171088E590E0FC01808188237CF48A819B81A8
S113172021E0FC01208388E590E028E530E0F90120
S113173020812068FC01208308C08DEF08C08EEF53
S113174006C0000003C0000001C0000080E00F904C
S11317500F900F90DF91CF910895EF92FF920F9326
S11317601F93CF93DF93CDB7DEB72C970FB6F894C2
S1131770DEBF0FBECDBF8E834F83588769877A87BC
S11317803C872B878E81833010F08EEF7EC08B8553
S11317909C85892B11F481E078C08B859C8590937E
S11317A0C5008093C4008091C300882309F06CC0F5
S11317B0CE010296BC018E810E946B0889838981C7
S11317C08C3F11F48CEF61C08A819B81AC81BD8117
S11317D020E030E0A901BC01CD010E948D0D8823D9
S11317E0F1F06F81788589859A850E94330E7B019B
S11317F08C018A819B81AC81BD819C01AD01C801B2
S1131800B7010E94920DDC01CB01BC01CD010E9405
S1131810040EDC01CB018F839887A987BA878F8157
S11318209885A985BA85892F9A2FAB2FBB278093DA
S1131830BD009093BE00A093BF00B093C0008F8101
S11318408093C2008091BD009091BE00A091BF0022
S1131850B091C000892B8A2B8B2B61F481E080939B
S1131860C1008091C200882F90E0BC018E810E944B
S1131870180A05C06FEF70E08E810E94180A81E09B
S11318808093C3008DEF01C081E02C960FB6F894CD
S1131890DEBF0FBECDBFDF91CF911F910F91FF909F
S11318A0EF900895EF92FF920F931F93CF93DF93DE
S11318B0CDB7DEB72C970FB6F894DEBF0FBECDBF01
S11318C08E834F83588769877A873C872B878E81DD
S11318D0833010F08EEF89C08B859C85892B11F4A1
S11318E081E083C08B859C859093C5008093C40060
S11318F08091C300882309F077C0CE010296BC0111
S11319008E810E946B08898389818C3F11F48CEF4E
S11319106CC08A819B81AC81BD8120E030E0A9014B
S1131920BC01CD010E948D0D8823F1F06F81788573
S113193089859A850E94330E7B018C018A819B8163
S1131940AC81BD819C01AD01C801B7010E94920D1B
S1131950DC01CB01BC01CD010E94040EDC01CB01F2
S11319608F839887A987BA872F81388549855A85B7
S113197088EE93E0DC010E94EB0EDC01CB01892FA1
S11319809A2FAB2FBB278093BD009093BE00A093EA
S1131990BF00B093C0009F8188EE989F802D1124D2
S11319A08093C2008091BD009091BE00A091BF00C1
S11319B0B091C000892B8A2B8B2B61F481E080933A
S11319C0C1008091C200882F90E0BC018E810E94EA
S11319D0180A05C06FEF70E08E810E94180A81E03A
S11319E08093C3008DEF01C081E02C960FB6F8946C
S11319F0DEBF0FBECDBFDF91CF911F910F91FF903E
S1131A00EF900895CF93DF9300D000D01F92CDB70D
S1131A10DEB78B837D836C838091C300882311F4AC
S1131A208BEF5CC08091C4009091C5002C813D81F6
S1131A302817390711F081E051C08091C30081302B
S1131A4009F049C0CE010296BC018B810E94780A3C
S1131A5089838981882309F040C08091C100813045
S1131A6041F41092C3001092C1001092C20080E0B1
S1131A7035C08091BD009091BE00A091BF00B0918F
S1131A80C0000197A109B1098093BD009093BE00E5
S1131A90A093BF00B093C0008091BD009091BE00A0
S1131AA0A091BF00B091C000892B8A2B8B2B61F4CD
S1131AB081E08093C1008091C200882F90E0BC0136
S1131AC08B810E94180A05C06FEF70E08B810E9421
S1131AD0180A8DEF03C081E001C080E00F900F90E1
S1131AE00F900F900F90DF91CF910895CF93DF93D4
S1131AF0CDB7DEB700000E941E058823E1F7000081
S1131B0081E40E942D048823D9F7000083E690E045
S1131B100E94A1068823D1F7FFCF0E94700E08F41B
S1131B2081E008950E94A60D0C94AB0E0E94A40EB1
S1131B3058F00E949D0E40F029F45F3F29F00C9468
S1131B40940E51110C94DF0E0C949A0E0E94BC0E4C
S1131B5068F39923B1F3552391F3951B550BBB27D8
S1131B60AA2762177307840738F09F5F5F4F220F1D
S1131B70331F441FAA1FA9F335D00E2E3AF0E0E814
S1131B8032D091505040E695001CCAF72BD0FE2F5E
S1131B9029D0660F771F881FBB1F261737074807F2
S1131BA0AB07B0E809F0BB0B802DBF01FF279358AA
S1131BB05F4F3AF09E3F510578F00C94940E0C94CC
S1131BC0DF0E5F3FE4F3983ED4F3869577956795EF
S1131BD0B795F7959F5FC9F7880F911D96958795DF
S1131BE097F90895E1E0660F771F881FBB1F6217FE
S1131BF073078407BA0720F0621B730B840BBA0BBC
S1131C00EE1F88F7E09508950E94C40E88F09F5750
S1131C1098F0B92F9927B751B0F0E1F0660F771F0C
S1131C20881F991F1AF0BA95C9F714C0B13091F002
S1131C300E94DE0EB1E008950C94DE0E672F782F1B
S1131C408827B85F39F0B93FCCF3869577956795C7
S1131C50B395D9F73EF490958095709561957F4F33
S1131C608F4F9F4F0895E89409C097FB3EF49095D9
S1131C708095709561957F4F8F4F9F4F9923A9F061
S1131C80F92F96E9BB279395F695879577956795F0
S1131C90B795F111F8CFFAF4BB0F11F460FF1BC034
S1131CA06F5F7F4F8F4F9F4F16C0882311F096E9C7
S1131CB011C0772321F09EE8872F762F05C0662375
S1131CC071F096E8862F70E060E02AF09A95660F2E
S1131CD0771F881FDAF7880F9695879597F90895E7
S1131CE0990F0008550FAA0BE0E8FEEF1616170629
S1131CF0E807F907C0F012161306E407F50798F091
S1131D00621B730B840B950B39F40A2661F0232BA9
S1131D10242B252B21F408950A2609F4A140A69525
S1131D208FEF811D811D089597F99F6780E870E00A
S1131D3060E008959FEF80EC089500240A9416163D
S1131D40170618060906089500240A9412161306A5
S1131D50140605060895092E0394000C11F4882333
S1131D6052F0BB0F40F4BF2B11F460FF04C06F5F4F
S1131D707F4F8F4F9F4F089557FD9058440F551F25
S1131D8059F05F3F71F04795880F97FB991F61F0F9
S1131D909F3F79F087950895121613061406551F70
S1131DA0F2CF4695F1DF08C0161617061806991FDC
S1131DB0F1CF86957105610508940895E894BB27D1
S1131DC066277727CB0197F90895EE0FFF1F05903B
S1131DD0F491E02D09940E94F60EA59F900DB49FF6
S1131DE0900DA49F800D911D11240895A29FB00110
S1131DF0B39FC001A39F700D811D1124911DB29F3B
S1111E00700D811D1124911D0895F894FFCFDB
S1131E0EFFFFFF41484D454400000102030706054C
S1131E1E0400010102030706050403020100000089
S10B1E2E0000000000000100A7
S9030000FC
