:100000000C9439000C9456000C9456000C94560035
:100010000C9456000C9456000C9456000C94B400AA
:100020000C9456000C9456000C9456000C945600F8
:100030000C9456000C9456000C9456000C945600E8
:100040000C9456000C9456000C9456000C945600D8
:100050000C94560072087D08880893089E08A90829
:10006000B408B10BCD0BE90B210C4F0C860C3E0EE6
:100070005A0E11241FBECFE5D8E0DEBFCDBF11E080
:10008000A0E6B0E0E8EFF0E202C005900D92AE3DD0
:10009000B107D9F722E0AEEDB1E001C01D92A53263
:1000A000B207E1F70E94AE0E0C947A100C94000097
:1000B0000F920FB6F8940F921F9211242F923F9235
:1000C0004F925F926F927F928F929F92AF92BF9268
:1000D000CF92DF92EF92FF920F931F932F933F9354
:1000E0004F935F936F937F938F939F93AF93BF9340
:1000F000CF93DF93EF93FF93A0911002B091110281
:100100000DB60D920EB60D920E94D30081110E9481
:10011000ED01A0911002B0911102CD91CDBFDD9102
:10012000DEBFFF91EF91DF91CF91BF91AF919F9192
:100130008F917F916F915F914F913F912F911F917F
:100140000F91FF90EF90DF90CF90BF90AF909F9076
:100150008F907F906F905F904F903F902F901F9067
:100160000F900FBE0F9008950E9458001895E091CF
:10017000EA01F091EB018081811107C08FEF9FEFC1
:100180009093E0018093DF010895E091EA01F091FE
:10019000EB010580F681E02D808191819093E00153
:1001A0008093DF0108950F931F93CF93DF93809186
:1001B000DE01811101C1C091E601D091E7018E01FC
:1001C0000F5F1F4F1093E7010093E6010115110522
:1001D000B9F48091EA019091EB012091E80130910E
:1001E000E9013093EB012093EA019093E9018093B8
:1001F000E8018091E1018F5F8093E1010E94B700E7
:100200008091DF019091E0010817190720F480E048
:10021000B8C081E001C080E0E091EA01F091EB011B
:100220009081911107C02FEF3FEF3093E0012093B1
:10023000DF01A7C0E091EA01F091EB010580F681B2
:10024000E02D0680F781E02D22813381021713070C
:1002500028F43093E0012093DF0193C0A285B38599
:100260002481358146815781E9015D834C83268154
:10027000378144815581E9015B834A8311962D9131
:100280003C911297AF014E5F5F4F2417350731F451
:100290002681378112963C932E93119713861286EE
:1002A0009C9191509C93A489B589109719F126854A
:1002B000378560897189E9017D836C832089318963
:1002C00066857785E9017B836A8311966D917C91C0
:1002D00012979F01245F3F4F6217730731F4208903
:1002E000318912963C932E931197158A148A9C910A
:1002F00091509C9326899091E501921710F42093D8
:10030000E50130E0D901AA0FBB1FAA0FBB1FAA0F3E
:10031000BB1F2A0F3B1FD901A451BE4F11960D9050
:10032000BC91A02DB583A48314962D913C91159773
:100330003783268314962D913C911597E9015B83B1
:100340004A8315965C934E931497A689B0E09D015D
:10035000220F331F220F331F220F331FA20FB31F91
:10036000A451BE4FB387A2879C919F5F9C9326891F
:10037000E0911002F09111029689291708F049CFF7
:100380004BCFE0911002F0911102268930E0F90183
:10039000EE0FFF1FEE0FFF1FEE0FFF1F2E0F3F1F71
:1003A000F901E451FE4F9081923008F081E0909184
:1003B000E20191110CC00CC08091E3019091E40125
:1003C00001969093E4018093E30180E001C081E015
:1003D000DF91CF911F910F9108958091DE018823C5
:1003E00021F081E08093E20108951092E2012091D2
:1003F000E50101C02150822F90E0FC01EE0FFF1FAC
:10040000EE0FFF1FEE0FFF1FE80FF91FE451FE4F25
:100410003081332379F3AC01440F551F440F551F2E
:10042000440F551F480F591FDF010180F281E02D55
:100430000280F381E02D1296FC93EE9311974151C7
:100440005E4FE417F50729F442815381FD01528381
:100450004183FC01EE0FFF1FEE0FFF1FEE0FFF1F8A
:100460008E0F9F1FFC01E451FE4F0180F281E02DB1
:100470008681978190931102809310022093E50169
:100480000895DF92EF92FF920F931F93CF93DF9324
:10049000C82F80916200853109F4B0C08F3F21F0F0
:1004A000843109F0C3C087C00F2EF4E7EF2EF1E0CE
:1004B000FF2EF02DF701D08040E061818D2D0E944C
:1004C0009F0740E0F70162818D2D0E949F0707E69C
:1004D00011E0F801D1814C2F417064858D2F0E946D
:1004E0009F074C2F427050E055954795F801638562
:1004F0008D2F0E949F074C2F447050E055954795D3
:1005000055954795F80162858D2F0E949F074C2FC6
:10051000487050E0559547955595479555954795A1
:10052000F80161858D2F0E949F074C2F407150E08C
:1005300055954795559547955595479555954795A3
:10054000F80160858D2F0E949F074C2F407250E06C
:100550005595479555954795559547955595479583
:1005600055954795F80167818D2F0E949F074C2F65
:10057000407450E0042E452F000C441F550B000C16
:10058000441F551FF80166818D2F0E949F074C2F35
:10059000441F4427441FF80165818D2F0E949F0747
:1005A00041E0F70163818D2D0E949F0784E18093D4
:1005B00062008FEF40C061E472E082E00E94DB0ADB
:1005C0008B3FB1F521E432E041E050E060E070E0C3
:1005D00082E00E94CC0961E472E082E00E94DB0AC2
:1005E0008111F9CFE4E7F1E040E0638180810E946E
:1005F0009F0785E1809362008FEF1DC061E472E088
:1006000082E00E94DB0AC82F8B3F49F421E432E0EC
:1006100042E050E060E070E082E00E944A0AC111CE
:1006200009C08FEF8093620080E005C081E003C0C5
:100630008FEF01C08FEFDF91CF911F910F91FF904E
:10064000EF90DF9008950F931F93CF93DF93C82F00
:1006500080916100843109F485C08F3F09F0A5C005
:1006600007E611E0F801D08141E062818D2F0E9400
:100670009F0740E0F80163818D2F0E949F07F801DA
:10068000D1814C2F417064858D2F0E949F074C2F84
:10069000427050E055954795F80163858D2F0E9473
:1006A0009F074C2F447050E05595479555954795B9
:1006B000F80162858D2F0E949F074C2F487050E0F3
:1006C000559547955595479555954795F8016185F9
:1006D0008D2F0E949F074C2F407150E055954795F4
:1006E000559547955595479555954795F8016085DA
:1006F0008D2F0E949F074C2F407250E055954795D3
:1007000055954795559547955595479555954795D1
:10071000F80167818D2F0E949F074C2F407450E095
:10072000042E452F000C441F550B000C441F551F71
:10073000F80166818D2F0E949F074C2F441F44278C
:10074000441FF80165818D2F0E949F07E4E7F1E0C7
:1007500041E0638180810E949F0784E18093610072
:100760008FEF26C061E472E082E00E94DB0A8B3FDB
:10077000F1F421E432E041E050E060E070E082E03A
:100780000E94CC0961E472E082E00E94DB0A8111E0
:10079000F9CFE4E7F1E040E0638180810E949F07A8
:1007A0008FEF8093610080E003C081E001C08FEF94
:1007B000DF91CF911F910F9108958F929F92AF92E9
:1007C000BF92CF92DF92EF92FF920F931F93CF933E
:1007D000DF93809160008B3009F4D5C090F48830AD
:1007E00009F4B3C038F4853009F48DC0863009F4BB
:1007F000A2C0FBC0893009F4B2C08A3009F4B9C084
:10080000F4C08E3009F4DDC038F48C3009F4C5C072
:100810008D3009F4CCC0E9C08F3009F4DCC08F3FC3
:1008200009F0E3C082E00E94C508C7E6D1E08D80F0
:10083000098141E0682D802F0E9436079E8041E0AB
:10084000692D802F0E943607AF8041E06A2D802FEE
:100850000E943607B88441E06B2D802F0E94360736
:10086000C98441E06C2D802F0E943607DA8441E074
:100870006D2D802F0E943607EB8441E06E2D802F76
:100880000E943607FC8441E06F2D802F0E943607BE
:10089000188141E06A81812F0E94360741E06B8117
:1008A000812F0E94360741E06C81812F0E9436071C
:1008B00040E0682D802F0E949F0740E0692D802F27
:1008C0000E949F0740E06A2D802F0E949F0740E012
:1008D0006B2D802F0E949F0740E06C2D802F0E947F
:1008E0009F0740E06D2D802F0E949F0740E06E2DF6
:1008F000802F0E949F0740E06F2D802F0E949F074E
:1009000085E08093600061E472E082E00E94DB0A8F
:10091000C82F8B3F49F421E432E04FE050E060E023
:1009200070E082E00E944A0AC11161C086E08093B3
:1009300060008FEF6FC080E30E944102811159C0B7
:1009400088E0809360008FEF65C080E30E944102E1
:10095000811151C089E0809360008FEF5BC080E31C
:100960000E944102811149C08AE0809360008FEFAC
:1009700051C088E30E944102811141C08BE0809305
:1009800060008FEF47C08CE00E944102811139C0A6
:100990008CE0809360008FEF3DC081E00E944102B7
:1009A000811131C08DE0809360008FEF33C086E00D
:1009B0000E944102811129C08EE0809360008FEF78
:1009C00029C080E80E944102811121C08FE08093FC
:1009D00060008FEF1FC082E00E944102811119C0A8
:1009E0008FEF8093600080E015C081E013C08FEF2F
:1009F00011C08FEF0FC08FEF0DC08FEF0BC08FEFC7
:100A000009C08FEF07C08FEF05C08FEF03C08FEFD6
:100A100001C08FEFDF91CF911F910F91FF90EF9069
:100A2000DF90CF90BF90AF909F908F9008950097E8
:100A3000B9F020911202FC01E20FF11D80818823A0
:100A400059F00E94230381110DC0809112028F5F23
:100A50008093120282E008951092120280E00895BD
:100A600081E0089582E00895CF93DF93CDB7DEB79C
:100A70002A970FB6F894DEBF0FBECDBFAE014F5F11
:100A80005F4F0E9481058FEF9FEF09C0CE01019655
:100A90000E941705811102C090E001C091E0811110
:100AA000F5CF892F2A960FB6F894DEBF0FBECDBFC3
:100AB000DF91CF910895FC01DB0111961C921E92EB
:100AC00009C02D913C9111972F5F3F4F11963C9398
:100AD0002E93319680818111F4CF0895DC01FC01C1
:100AE00001C0319680818111FCCF319705C08C9176
:100AF00090819D9380833197AE17BF07C0F380E04C
:100B000008950F931F93CF93DF938A0161157105A9
:100B10008105910529F480E3FA018083118213C0D5
:100B2000EA012AE030E040E050E00E943810605DC9
:100B30006993622F732F842F952F6115710581059D
:100B4000910579F71882C8010E946E0580E0DF9157
:100B5000CF911F910F910895CF92DF92EF92FF9264
:100B6000CF93DF93CDB7DEB7C550D1400FB6F89421
:100B7000DEBF0FBECDBF7C01FE0131968FEFDF01DE
:100B80001D928A95E9F7C050DF4F188219821A82A8
:100B90001B82C050D140CC5FDE4F19821882C450F6
:100BA000D140BE016C5F7E4FC7010E945B0540E0F3
:100BB00090E089C0F701E20FF31F8081282F221FE8
:100BC0002227221FE1E0F0E0EC0FFD1FE90FF11DED
:100BD000208351E0590F282F207430E0022E232F5C
:100BE000000C221F330B000C221F331FE1E0F0E04A
:100BF000EC0FFD1FE50FF11D208352E0590F282F48
:100C0000207230E0359527953595279535952795B0
:100C10003595279535952795E1E0F0E0EC0FFD1F20
:100C2000E50FF11D208353E0590F282F207130E08C
:100C3000359527953595279535952795359527959C
:100C4000E1E0F0E0EC0FFD1FE50FF11D208354E023
:100C5000590F282F287030E0359527953595279521
:100C600035952795E1E0F0E0EC0FFD1FE50FF11D54
:100C7000208355E0590F282F247030E035952795B3
:100C800035952795E1E0F0E0EC0FFD1FE50FF11D34
:100C9000208356E0590F282F227030E03595279594
:100CA000E1E0F0E0EC0FFD1FE50FF11D208327E0F0
:100CB000290FE1E0F0E0EC0FFD1FE20FF11D817064
:100CC0008083985F4F5F242F30E0CC5FDE4F6881D8
:100CD0007981C450D1402617370708F46BCF915F54
:100CE000A0E001C0AF5F2A2F30E0E1E0F0E0EC0FC0
:100CF000FD1FE20FF31F80818130A1F780E02FC03C
:100D0000E82EF12CF901EE0DFF1D41E050E04C0FF3
:100D10005D1FE40FF51F408150E060E070E0E0E10E
:100D2000F0E0EE19FF0904C0440F551F661F771F3E
:100D3000EA95D2F7C050DF4FC880D980EA80FB80A7
:100D4000C050D1404C295D296E297F29C050DF4F0A
:100D5000488359836A837B83C050D1408F5F813140
:100D600078F25FC0C050DF4F488159816A817B8132
:100D7000C050D14085E04827505881E06827C050D6
:100D8000DF4F488359836A837B83C050D140C05072
:100D9000DF4F488159816A817B81C050D140452B0A
:100DA000462B472B09F447C0E217F307D4F5C05090
:100DB000DF4F488159816A817B81C050D140440F07
:100DC000551F661F771FC050DF4F488359836A83C2
:100DD0007B83C050D140AF5FEA2FF0E0709621E0F6
:100DE00030E02C0F3D1FE20FF31F8081C050DF4F1A
:100DF000488159816A817B81C050D140482BC050C5
:100E0000DF4F488359836A837B83C050D140C050F1
:100E1000DF4F488159816A817B81C050D14060FF9A
:100E2000C6CFEA2FF0E0292F30E020513109E21738
:100E3000F3070CF497CFC050DF4F88819981AA81C6
:100E4000BB81C050D140892B11F081E001C080E00E
:100E5000CB5FDE4F0FB6F894DEBF0FBECDBFDF9184
:100E6000CF91FF90EF90DF90CF900895423008F03F
:100E700060C0683008F05FC08130E1F030F082304F
:100E800071F1833009F440C058C02AB381E090E08A
:100E9000062E02C0880F991F0A94E2F750E002C0A4
:100EA000440F551F6A95E2F780958223482B4ABB71
:100EB00080E0089527B381E090E0062E02C0880FFD
:100EC000991F0A94E2F750E002C0440F551F6A953B
:100ED000E2F780958223482B47BB80E0089524B336
:100EE00081E090E0062E02C0880F991F0A94E2F775
:100EF00050E002C0440F551F6A95E2F780958223A7
:100F0000482B44BB80E0089521B381E090E0062E99
:100F100002C0880F991F0A94E2F750E002C0440F04
:100F2000551F6A95E2F780958223482B41BB80E0EC
:100F3000089581E0089581E0089581E008954230A8
:100F400008F060C0683008F05FC08130E1F030F038
:100F5000823071F1833009F440C058C02BB381E076
:100F600090E0062E02C0880F991F0A94E2F750E025
:100F700002C0440F551F6A95E2F780958223482BE3
:100F80004BBB80E0089528B381E090E0062E02C0BC
:100F9000880F991F0A94E2F750E002C0440F551FD2
:100FA0006A95E2F780958223482B48BB80E008953C
:100FB00025B381E090E0062E02C0880F991F0A94A5
:100FC000E2F750E002C0440F551F6A95E2F78095A2
:100FD0008223482B45BB80E0089522B381E090E056
:100FE000062E02C0880F991F0A94E2F750E002C053
:100FF000440F551F6A95E2F780958223482B42BB28
:1010000080E0089581E0089581E0089581E00895E9
:10101000823008F04EC090E0FC01EE0FFF1F8E0FF3
:101020009F1FFC01E458FE4F8281833009F128F4B0
:10103000813041F0823089F0A2C0843021F18530C6
:1010400069F19DC080E090E0A0E8BDE3FB018083F2
:101050009183A283B38380E0089580E090E0A0E0D4
:10106000BFE3FB0180839183A283B38380E0089573
:1010700080E090E0A0E8B0E4FB0180839183A2834C
:10108000B38380E0089580E090E0A0E8B1E4FB0144
:1010900080839183A283B38380E0089580E090E011
:1010A000A0E8B2E4FB0180839183A283B38380E054
:1010B0000895823009F065C090E0FC01EE0FFF1F3B
:1010C0008E0F9F1FFC01E458FE4FE2818E2F90E0AF
:1010D000FC013197E730F10508F055C0E65DFF4FA0
:1010E0000C945A1080E090E0A0E8BDE3FB018083FF
:1010F0009183A283B38380E0089580E090E0A0E034
:10110000BFE3FB0180839183A283B38380E00895D2
:1011100080E090E0A0E0B0E4FB0180839183A283B3
:10112000B38380E0089580E090E0A0E8B0E4FB01A4
:1011300080839183A283B38380E0089580E090E070
:10114000A0E0B1E4FB0180839183A283B38380E0BC
:10115000089580E090E0A0E8B1E4FB0180839183F2
:10116000A283B38380E0089580E090E0A0E8B2E439
:10117000FB0180839183A283B38380E008958CEF89
:10118000089580E008958CEF08958130B1F018F053
:10119000823071F144C090E0FC01EE0FFF1F8E0F12
:1011A0009F1FFC01E458FE4F808183BF89B78C7F6D
:1011B0009181892B89BF80E0089590E0FC01EE0FBA
:1011C000FF1F8E0F9F1FFC01E458FE4F80818EBDD4
:1011D00089B7282F277E9181892F90E0880F991F4A
:1011E000880F991F880F991F822B89BF80E008956F
:1011F00090E0FC01EE0FFF1F8E0F9F1FFC01E458D3
:10120000FE4F808185BD89B7282F2F73918130E4EF
:10121000939FC0011124822B89BF80E008958EEF37
:101220000895813071F018F0823031F01FC0E2E58E
:10123000F0E0A3E5B0E009C0E4E4F0E0A5E4B0E04C
:1012400004C0ECE4F0E0AEE4B0E0718360832C9184
:1012500090E0FC01EE0FFF1F8E0F9F1FFC01E45872
:10126000FE4F8281822B8C9380E008958EEF08954B
:101270006115710509F47AC0813041F120F08230A6
:1012800009F452C075C090E0FC01EE0FFF1F8E0FF5
:101290009F1FFC01E458FE4F8081811109C008B6F0
:1012A00000FE68C0FB01108298B7916098BF089556
:1012B000883009F061C008B601FE60C081E0FB0122
:1012C000808388B7826088BF80E0089590E0FC0149
:1012D000EE0FFF1F8E0F9F1FFC01E458FE4F808111
:1012E000811109C008B602FE4BC0FB01108298B7FD
:1012F000946098BF0895883009F044C098B7892F4A
:10130000807194FF08C081E0FB01808388B7806111
:1013100088BF80E0089593FF37C091E0FB01908380
:1013200098B7986098BF089590E0FC01EE0FFF1FFA
:101330008E0F9F1FFC01E458FE4F8081811109C070
:1013400008B606FE23C0FB01108298B7906498BFD0
:1013500008958830E9F408B607FE1CC081E0FB015F
:10136000808388B7806888BF80E008958FEF0895F4
:101370008EEF08958DEF089580E008958DEF089524
:101380008DEF089580E008958DEF08958DEF089515
:1013900080E008958DEF08958F929F92AF92BF9253
:1013A000CF92DF92EF92FF921F93CF93DF9300D003
:1013B00000D0CDB7DEB7182F6A017B01833008F06B
:1013C00054C02115310509F452C030931402209302
:1013D00013028091150281114CC0BE016F5F7F4FD7
:1013E000812F0E9408088C3FF1F189809A80AB80A0
:1013F000BC8020E030E0A901C501B4010E94E00EEC
:10140000882361F0C701B6010E94860FA5019401EF
:101410000E94E50E0E94570F6B017C01BB27AF2D88
:101420009E2D8D2D8093180290931902A0931A027D
:10143000B0931B02C0921602892B8A2B8B2B49F486
:1014400081E0809317026C2D70E0812F0E941109BA
:1014500005C06FEF70E0812F0E94110981E0809339
:1014600015028DEF07C08CEF05C08EEF03C081E041
:1014700001C081E00F900F900F900F90DF91CF91FE
:101480001F91FF90EF90DF90CF90BF90AF909F9013
:101490008F9008958F929F92AF92BF92DF92EF92BA
:1014A000FF920F931F93CF93DF9300D000D0CDB75F
:1014B000DEB7182F042FD52EE62EF72E833008F036
:1014C00065C02115310509F463C0309314022093DF
:1014D00013028091150281115DC0BE016F5F7F4FC5
:1014E000812F0E9408088C3F09F44EC089809A80A1
:1014F000AB80BC8020E030E0A901C501B4010E94AE
:10150000E00E882381F0602F7D2D8E2D9F2D0E946F
:10151000860FA50194010E94E50E0E94570F062F29
:10152000D72EE82EF92EA8EEB3E0202F3D2D4E2D1C
:101530005F2D0E946F10BB27A92F982F872F8093B4
:10154000180290931902A0931A02B0931B0228EE7E
:10155000029F002D112400931602892B8A2B8B2BBE
:1015600049F481E080931702602F70E0812F0E9480
:10157000110905C06FEF70E0812F0E94110981E011
:10158000809315028DEF07C08CEF05C08EEF03C06E
:1015900081E001C081E00F900F900F900F90DF91DC
:1015A000CF911F910F91FF90EF90DF90BF90AF9080
:1015B0009F908F9008951F93CF93DF931F92CDB785
:1015C000DEB790911502992309F44CC020911302C3
:1015D000309114022617370709F046C09091150282
:1015E000913009F043C0182FBE016F5F7F4F0E94FA
:1015F0003809811135C080911702813041F4109271
:101600001502109217021092160280E030C08091ED
:10161000180290911902A0911A02B0911B02019731
:10162000A109B1098093180290931902A0931A029C
:10163000B0931B02892B8A2B8B2B59F481E080936A
:1016400017026091160270E0812F0E9411098DEF40
:101650000EC06FEF70E0812F0E9411098DEF07C05F
:1016600080E005C08BEF03C081E001C081E00F90F6
:10167000DF91CF911F910895CF93DF931F92CDB744
:10168000DEB790E1981B998380916500813019F055
:101690008230C1F038C0662329F08AE20E94230319
:1016A0008111FBCF88E10E9441028111FBCF809123
:1016B0002302815080932302811125C082E0809310
:1016C000650021C0662379F080E10E94410281110A
:1016D000FBCF80E20E9423038111FBCF80E10E94B7
:1016E00041028111FBCF8CE10E9441028111FBCFAD
:1016F000809123028F5F809323029981891718F0CC
:1017000081E0809365000F90DF91CF910895CF9293
:10171000DF92EF92FF921F93CF93DF931F92CDB78B
:10172000DEB7198282E292E00E94A30ECE010196FA
:101730000E949E0E209163008AEF820F833020F476
:1017400080911C02811129833981832F90E0FC0153
:101750003397E830F10508F0E0C2EF5CFF4F0C94DE
:101760005A102317A9F01092230281E00E9441022F
:101770008111FBCF82E00E9441028111FBCF85E8FD
:1017800091E00E9417058111FACF82E080936500F5
:1017900060E08EE00E943C0BC5C22317A9F01092B6
:1017A000230281E00E9441028111FBCF82E00E946E
:1017B00041028111FBCF84E991E00E94170581115C
:1017C000FACF82E08093650060E087E00E943C0BE6
:1017D000A9C2231781F186E08093230281E00E9451
:1017E00041028111FBCF82E00E9441028111FBCFB7
:1017F0008091230280680E9441028111F9CF8CE917
:1018000091E00E9417058111FACF81E08093650075
:1018100080EC0E9441028111FBCF10E008C08AE2F7
:101820000E9423038111FBCF163028F41F5F8091A3
:1018300022021817A0F3609122028AE00E943C0B5A
:1018400071C22317C1F01092230280E00E94AB0EF8
:1018500081E00E9441028111FBCF82E00E9441029F
:101860008111FBCF87EA91E00E9417058111FACF21
:1018700082E08093650060E087E00E943C0B8091ED
:101880001C028F5F80931C02883209F04BC21092B9
:10189000210210921C0289E00E94A80E43C2231765
:1018A000C1F01092230280E00E94AB0E81E00E9402
:1018B00041028111FBCF82E00E9441028111FBCFE6
:1018C0008FEA91E00E9417058111FACF82E08093A0
:1018D000650060E08AE00E943C0B80911C028F5FF3
:1018E00080931C02883209F01DC210921C02809164
:1018F00021028F5F80932102833021F488E00E94CF
:10190000A80E10C285E00E94A80E0CC2231739F160
:1019100089E08093230280E00E94AB0E81E00E9468
:1019200041028111FBCF82E00E9441028111FBCF75
:101930008091230280680E9441028111F9CF8AEBD5
:1019400091E00E9417058111FACF81E08093650034
:101950008093640080EC0E9441028111FBCF1091C2
:101960001C02212F30E0A2E3B0E00E9460100F2E95
:10197000F0E1CF2EF7E2DF2EE12CF12CF02DA701C4
:101980009601261B370B480B590BCA01B90128EEEB
:1019900033E040E050E00E94381020931D02309365
:1019A0001E0240931F02509320021F5F10931C02DF
:1019B00060E087E00E943C0B80916500813009F077
:1019C0004FC090916400913009F04AC084E10E94B8
:1019D00041028111FBCF60911D0270911E02809126
:1019E0001F02909120020E94340580911D02909167
:1019F0001E02A0911F02B09120020A97A105B10515
:101A0000A8F080E20E9423038111FBCF80E10E94B5
:101A100041028111FBCF80E10E9441028111FBCF85
:101A200080E10E9441028111FBCF0FC180E20E9440
:101A300023038111FBCF80E20E9423038111FBCF9E
:101A400080E10E9441028111FBCF80E10E944102AE
:101A50008111FBCF80E10E9441028111FBCFF5C0D3
:101A6000823009F04FC090916400923009F04AC072
:101A700080E10E9441028111FBCF60911D027091B3
:101A80001E0280911F02909120020E9434058091D5
:101A90001D0290911E02A0911F02B09120020A9790
:101AA000A105B105A8F080E20E9423038111FBCFBC
:101AB00080E10E9441028111FBCF80E10E9441023E
:101AC0008111FBCF80E10E9441028111FBCFBDC09B
:101AD00080E20E9423038111FBCF80E20E94230356
:101AE0008111FBCF80E10E9441028111FBCF80E197
:101AF0000E9441028111FBCF80E10E9441028111CD
:101B0000FBCFA3C0823009F04FC0909164009130A8
:101B100009F04AC084E10E9441028111FBCF60912B
:101B20001D0270911E0280911F02909120020E945E
:101B3000340580911D0290911E02A0911F02B09168
:101B400020020A97A105B105A8F080E20E942303B4
:101B50008111FBCF80E10E9441028111FBCF80E126
:101B60000E9441028111FBCF80E10E94410281115C
:101B7000FBCF6BC080E20E9423038111FBCF80E288
:101B80000E9423038111FBCF80E10E944102811159
:101B9000FBCF80E10E9441028111FBCF80E10E94D6
:101BA00041028111FBCF51C0813009F04EC08091BC
:101BB0006400823009F049C080E10E944102811135
:101BC000FBCF60911D0270911E0280911F029091C7
:101BD00020020E94340580911D0290911E02A09166
:101BE0001F02B09120020A97A105B105A8F080E27A
:101BF0000E9423038111FBCF80E10E9441028111E9
:101C0000FBCF80E10E9441028111FBCF80E10E9465
:101C100041028111FBCF19C080E20E942303811190
:101C2000FBCF80E20E9423038111FBCF80E10E9461
:101C300041028111FBCF80E10E9441028111FBCF63
:101C400080E10E9441028111FBCF80916500809369
:101C5000640080911D0290911E02A0911F02B0911C
:101C60002002892B8A2B8B2B09F05CC01092210259
:101C700010921C0285E00E94A80E54C02317A9F000
:101C80001092230281E00E9441028111FBCF82E089
:101C90000E9441028111FBCF82EC91E00E94170566
:101CA0008111FACF82E08093650060E08CE00E94B1
:101CB0003C0B38C02317B1F183E08093230281E00D
:101CC0000E9441028111FBCF82E00E9441028111FA
:101CD000FBCF8091230280680E9441028111F9CFDD
:101CE0008FEC91E00E9417058111FACF81E080937B
:101CF000650080EC0E9441028111FBCF10E008C01A
:101D00008AE20E9423038111FBCF163058F41F5F33
:101D1000809122021817A0F305C081E00E944102C1
:101D20008111FBCF8981809363000F90DF91CF9168
:101D30001F91FF90EF90DF90CF9008952091660063
:101D4000FC012083089520912402FC012083089542
:101D5000809366000895809324020895CF93DF93C3
:101D600000D000D0CDB7DEB70E94DD038111FCCFDB
:101D700086E00E94AB0E88E00E94A80E88E690E004
:101D80000E94AC05809367000E94870B19821A821B
:101D90001B821C820BC089819A81AB81BC81019618
:101DA000A11DB11D89839A83AB83BC8389819A81EC
:101DB000AB81BC818035934CA105B10560F3E4CFC4
:101DC0000E94C30F08F481E008950E94F90E0C945C
:101DD000FE0F0E94F70F58F00E94F00F40F029F418
:101DE0005F3F29F00C94E70F51110C9432100C94C2
:101DF000ED0F0E940F1068F39923B1F3552391F36F
:101E0000951B550BBB27AA2762177307840738F069
:101E10009F5F5F4F220F331F441FAA1FA9F335D0C6
:101E20000E2E3AF0E0E832D091505040E695001C7A
:101E3000CAF72BD0FE2F29D0660F771F881FBB1F34
:101E4000261737074807AB07B0E809F0BB0B802D12
:101E5000BF01FF2793585F4F3AF09E3F510578F03E
:101E60000C94E70F0C9432105F3FE4F3983ED4F3E8
:101E7000869577956795B795F7959F5FC9F7880F12
:101E8000911D9695879597F90895E1E0660F771F64
:101E9000881FBB1F621773078407BA0720F0621BF5
:101EA000730B840BBA0BEE1F88F7E09508950E9420
:101EB000171088F09F5798F0B92F9927B751B0F0B5
:101EC000E1F0660F771F881F991F1AF0BA95C9F7BE
:101ED00014C0B13091F00E943110B1E008950C941B
:101EE0003110672F782F8827B85F39F0B93FCCF3CE
:101EF000869577956795B395D9F73EF4909580953B
:101F0000709561957F4F8F4F9F4F0895E89409C05A
:101F100097FB3EF490958095709561957F4F8F4F1C
:101F20009F4F9923A9F0F92F96E9BB279395F69532
:101F3000879577956795B795F111F8CFFAF4BB0FB0
:101F400011F460FF1BC06F5F7F4F8F4F9F4F16C014
:101F5000882311F096E911C0772321F09EE8872F9E
:101F6000762F05C0662371F096E8862F70E060E05A
:101F70002AF09A95660F771F881FDAF7880F9695D3
:101F8000879597F90895990F0008550FAA0BE0E877
:101F9000FEEF16161706E807F907C0F0121613062B
:101FA000E407F50798F0621B730B840B950B39F46B
:101FB0000A2661F0232B242B252B21F408950A26D1
:101FC00009F4A140A6958FEF811D811D089597F911
:101FD0009F6780E870E060E008959FEF80EC0895CF
:101FE00000240A94161617061806090608950024F8
:101FF0000A9412161306140605060895092E039472
:10200000000C11F4882352F0BB0F40F4BF2B11F4E5
:1020100060FF04C06F5F7F4F8F4F9F4F089557FD44
:102020009058440F551F59F05F3F71F04795880F46
:1020300097FB991F61F09F3F79F0879508951216DD
:1020400013061406551FF2CF4695F1DF08C0161689
:1020500017061806991FF1CF86957105610508943A
:102060000895E894BB2766277727CB0197F9089551
:10207000A1E21A2EAA1BBB1BFD010DC0AA1FBB1F8C
:10208000EE1FFF1FA217B307E407F50720F0A21BFE
:10209000B30BE40BF50B661F771F881F991F1A946B
:1020A00069F760957095809590959B01AC01BD0195
:1020B000CF010895EE0FFF1F0590F491E02D0994D4
:1020C000A29FB001B39FC001A39F700D811D112479
:1020D000911DB29F700D811D1124911D08950E94C4
:1020E0006010A59F900DB49F900DA49F800D911D31
:0820F00011240895F894FFCFBC
:1020F800FFFFFFFFFFFFFF01414C49000000000008
:1021080000000000000000000000000000000000C7
:1021180000000000000000000000000000000000B7
:1021280000000000000000000000000000000000A7
:102138000000000000000000000000000000000097
:102148000000000000000000000000000000000087
:102158000000000000000000000000000000000077
:102168000000000000000000000000000000000067
:102178000000000000000000000000000000000057
:102188000000000000000000000000000000000047
:102198000000000000000000000000000000000037
:1021A8000000000000000000000000000000000027
:1021B8000000000000000000000000000000000017
:1021C8000000000000000000000000000000000007
:1021D80000000000000000000000000000000000F7
:1021E80000000000000000000000000000000000E7
:1021F80000000000000000000101020307060504BA
:1022080003020100000102030706050400000000A4
:10221800000000000153797374656D204C6F616490
:10222800696E670057454C434F4D4500456E7465D0
:102238007220506173730050617373204F4B0057C5
:10224800726F6E6720506173730057616974696EAD
:10225800670053797374656D206973204F4E00438E
:0E22680068616E67696E6720506173730000D5
:00000001FF
