:100000000C9457000C9474000C9474000C947400BD
:100010000C9474000C9474000C9474000C945902A9
:100020000C9474000C9474000C9474000C94740080
:100030000C9474000C9474000C9474000C94740070
:100040000C9474000C9474000C9474000C94740060
:100050000C94740008000000BE922449123EABAA22
:10006000AA2ABECDCCCC4C3E00000080BEABAAAAD2
:10007000AA3E00000000BF000000803F000000001A
:1000800000084178D3BB4387D1133D190E3CC3BD53
:100090004282AD2B3E68EC8276BED98FE1A93E4C00
:1000A00080EFFFBE01C4FF7F3F000000000011246D
:1000B0001FBECFE5D8E0DEBFCDBF11E0A0E6B0E0C7
:1000C000E6E3F1E202C005900D92A031B107D9F745
:1000D00027E0A0E1B1E001C01D92A036B207E1F730
:1000E0000E94DD0D0C9499100C940000FC01039605
:1000F000928381832FEF3FEF34832383968385831D
:100100009087878310820895FC01118610860895D8
:10011000CF93DF939C01FB01DC011196CD91DC9123
:100120001297D383C2838C819D81958384838C8134
:100130009D81DC0113967C936E9312977D836C8373
:1001400031872087F90180818F5F8083DF91CF9194
:100150000895CF93DF93EB01488159814F3F2FEFF3
:10016000520721F4FC01A781B0850DC0DC01139674
:1001700001C0DF011296ED91FC911397208131812E
:1001800042175307B0F71296ED91FC911397FB833A
:10019000EA83D583C483BD83AC831396DC93CE936B
:1001A000129799878887FC0120812F5F2083DF9138
:1001B000CF910895CF93DF93FC01A085B185C281D3
:1001C000D381848195819D838C83C481D5818281F3
:1001D00093819B838A8311968D919C911297E81746
:1001E000F90731F48481958112969C938E9311972F
:1001F000118610868C9181508C93DF91CF91089558
:100200001BBC89EF8ABD8BE08EBD89B7806189BF39
:10021000089531E1FC013083319722E22083319748
:10022000A3E3A08331976083319770833197108265
:10023000319760E8608331971082319762E0608384
:10024000319763E06083319764E06083319765E0C4
:100250006083319766E06083319767E06083319710
:1002600068E06083319769E06083319760E1608383
:1002700031973083319732E13083319733E13083E6
:10028000319734E13083319735E13083319736E16E
:100290003083319737E13083319738E130833197BC
:1002A00039E13083319730E23083319731E2308366
:1002B00031972083319723E2208331974083319710
:1002C0005083319726E22083319727E220833197AC
:1002D00028E22083319729E22083319720E320838D
:1002E000319721E32083869708950E940001A09111
:1002F0004907B0914A07CD91CDBFDD91DEBFFF9197
:10030000EF91DF91CF91BF91AF919F918F917F91AD
:100310006F915F914F913F912F911F910F91FF909E
:10032000EF90DF90CF90BF90AF909F908F907F9095
:100330006F905F904F903F902F901F900F900FBE47
:100340000F90089581E008950F920FB6F8940F92E0
:100350001F9211242F923F924F925F926F927F9241
:100360008F929F92AF92BF92CF92DF92EF92FF92C5
:100370000F931F932F933F934F935F936F937F93AD
:100380008F939F93AF93BF93CF93DF93EF93FF939D
:10039000A0914907B0914A070DB60D920EB60D9285
:1003A0000E94F406A0914907B0914A07CD91CDBFB4
:1003B000DD91DEBFFF91EF91DF91CF91BF91AF91C2
:1003C0009F918F917F916F915F914F913F912F916D
:1003D0001F910F91FF90EF90DF90CF90BF90AF9063
:1003E0009F908F907F906F905F904F903F902F9055
:1003F0001F900F900FBE0F9008950F920FB6F894B4
:100400000F921F9211242F923F924F925F926F9200
:100410007F928F929F92AF92BF92CF92DF92EF9294
:10042000FF920F931F932F933F934F935F936F937D
:100430007F938F939F93AF93BF93CF93DF93EF936C
:10044000FF93A0914907B0914A070DB60D920EB6E1
:100450000D920E94870581110E94F406A091490720
:10046000B0914A07CD91CDBFDD91DEBFFF91EF91F5
:10047000DF91CF91BF91AF919F918F917F916F91BC
:100480005F914F913F912F911F910F91FF90EF90AE
:10049000DF90CF90BF90AF909F908F907F906F90A4
:1004A0005F904F903F902F901F900F900FBE0F9036
:1004B00008950E94FD011895E8E1F1E0ACE1B1E09A
:1004C000B183A08313821282E4EFF6E0F093170168
:1004D000E0931601138212821182108288ED95E05A
:1004E00013969C938E931297ED93FC939093130124
:1004F00080931201909315018093140180E090E89D
:1005000090931101809310010895CF93DF93EC0134
:10051000A8E1B1E001C0DF01ED91FC911197EC176A
:10052000FD07C8F312968D919C9113979D01280F9A
:10053000391FC217D30749F42A813B81820F931FC9
:1005400013969C938E931297ED018A819B819E0155
:10055000280F391FE217F307C1F4209116013091DB
:100560001701E217F30771F022813381820F931F85
:100570009B838A83ED91FC9111978081918199836E
:10058000888305C03983288302C0F983E883CA17AA
:10059000DB0711F0CD93DC93DF91CF910895EF92BB
:1005A000FF920F931F93CF93DF938C010E947705E7
:1005B0008091160190911701892B11F40E945C0221
:1005C000809110019091110180239123892B09F0D2
:1005D00067C00115110511F00C5F1F4F01151105C2
:1005E00009F461C080911401909115018017910761
:1005F00008F45CC0C0911801D0911901E8E1F1E064
:1006000002C0FE01EC018A819B818017910720F4D2
:10061000888199810097A9F780911601909117011F
:10062000C817D90709F445C0E080F18084E0E80EDE
:10063000F11C88819981918380832A813B81201BD1
:10064000310B2930310550F0CE01800F911FFC0194
:10065000338322831B830A830E9485022A813B8184
:100660008091140190911501821B930B90931501B9
:100670008093140140911201509113018417950742
:1006800020F49093130180931201809110019091B6
:100690001101282B392B3B832A83198218820BC026
:1006A000E12CF12C08C0E12CF12C05C0E12CF12C3F
:1006B00002C0E12CF12C0E944106C701DF91CF91CD
:1006C0001F910F91FF90EF9008950F931F93CF9379
:1006D000DF93009751F1EC0124974A815B812091CF
:1006E000100130911101BA0162237323672BE9F0E5
:1006F00068817981672BC9F42095309524233523AF
:100700003B832A830E9477058A819B812091140173
:1007100030911501820F931F90931501809314015E
:10072000CE010E9485020E944106DF91CF911F9168
:100730000F910895E0911107F091120780818111C6
:1007400007C08FEF9FEF9093FC068093FB06089500
:10075000E0911107F09112070580F681E02D0680E7
:10076000F781E02D828193819093FC068093FB06B4
:1007700008956F927F928F929F92AF92BF92CF9285
:10078000DF92EF920F931F93CF93DF93CDB7DEB736
:100790004C01F5018789908D215031093C01620E91
:1007A000731E20E00FC0822F90E0FB01E80FF91FBD
:1007B0003081D501A80FB91F59963C9380818823B9
:1007C00019F02F5F283078F3F50110A2F3E0FE1541
:1007D00020F40F2EF3E0EF2EF02DF501E68AC5018F
:1007E00002960E948400C5010C960E948400F501C7
:1007F000B186A08684E090E08E1991099587848760
:10080000B38AA28A11A212A213A214A215A2A8014D
:10081000B401C3010E940901F50191838083C114D1
:10082000D10419F0F601B182A082DF91CF911F911E
:100830000F91EF90DF90CF90BF90AF909F908F90EF
:100840007F906F900895809125078230E0F30E9499
:10085000A401F9CFCF93C0E010C08C2F90E09C0191
:10086000220F331F220F331F220F331F820F931FBC
:100870008B5D984F0E947600CF5FC43070F38CE19F
:1008800097E00E94760083E197E00E94760086E080
:1008900097E00E9476008CE197E090931207809396
:1008A000110783E197E09093100780930F07CF9192
:1008B0000895CF93DF93EC010FB6F8940F928091D7
:1008C00005078F5F809305078091490790914A073C
:1008D000892B59F4D0934A07C093490780910507A3
:1008E000813099F40E942A0410C08091010781117F
:1008F0000CC0E0914907F0914A0796898E898917C3
:1009000020F0D0934A07C09349078091FD068F5F7E
:100910008093FD068E8990910207981710F48093BA
:10092000020790E09C01220F331F220F331F220F7A
:10093000331F820F931FBE016E5F7F4F8B5D984FF9
:100940000E9488000F900FBE80910107882351F00C
:10095000E0914907F0914A0796898E89981710F41B
:100960000E94A401DF91CF9108950F931F93CF931D
:10097000DF93EC0100910307109104078091490770
:1009800090914A0702960E94DA00C00FD11FE091B1
:100990004907F0914A07D383C283C017D10768F48F
:1009A0006091490770914A0780910F079091100755
:1009B0006E5F7F4F0E94A90017C060914907709138
:1009C0004A0780911107909112076E5F7F4F0E9436
:1009D000A9008091FB069091FC06C817D90720F466
:1009E000D093FC06C093FB06DF91CF911F910F912E
:1009F00008952F923F924F925F926F927F928F92C3
:100A00009F92AF92BF92CF92DF92EF92FF920F939D
:100A10001F93CF93DF933C011B015A012901CA01A7
:100A20000E94CF026C01892B71F086E290E00E9457
:100A3000CF02EC01892B19F0D88ECF8A06C0C601EF
:100A40000E94650302C0C0E0D0E0209791F09501BC
:100A500040E050E0812C912C5E016701E02E820184
:100A6000B101C3010E94B903CE010E94590481E083
:100A700001C08FEFDF91CF911F910F91FF90EF9009
:100A8000DF90CF90BF90AF909F908F907F906F90AE
:100A90005F904F903F902F900895EF92FF920F93A9
:100AA0000F2EF9EFEF2EF6E0FF2EF02D00E020E004
:100AB00030E045E550E06FE670E083E294E00E94AC
:100AC000F904813081F4F8948FEF9FEF9093FC0646
:100AD0008093FB0681E08093010710920407109237
:100AE00003070E9475010F91FF90EF900895809188
:100AF000F8068F5F8093F80608950FB6F8940F926A
:100B000080910307909104070F900FBE0895DF9224
:100B1000EF92FF920F931F93CF93DF938091F8068C
:100B2000811197C0E0900307F09004078FEFE81A57
:100B3000F80AF0920407E0920307E114F104B9F413
:100B4000809111079091120720910F0730911007A3
:100B500030931207209311079093100780930F078B
:100B60008091FE068F5F8093FE060E949A0380911B
:100B7000FB069091FC06E816F90628F4D12C53C028
:100B8000DD24D39401C0D12CE0911107F09112071C
:100B90008081811107C08FEF9FEF9093FC068093B7
:100BA000FB0641C0E0911107F09112070580F68124
:100BB000E02DC681D7818A819B81E816F90628F449
:100BC0009093FC068093FB062EC08E010E5F1F4F94
:100BD000C8010E94DA008C899D89892B21F0CE0101
:100BE0000C960E94DA008E8990910207981710F4F3
:100BF0008093020790E09C01220F331F220F331FC6
:100C0000220F331F820F931FB8018B5D984F0E94F4
:100C100088009E89E0914907F0914A0786899817D4
:100C200008F0AECFB1CFE0914907F0914A0786892D
:100C300090E0FC01EE0FFF1FEE0FFF1FEE0FFF1FF6
:100C40008E0F9F1FFC01EB5DF84F8081823040F4D6
:100C500009C0809100078F5F80930007D12C02C0EC
:100C6000DD24D3948091FF06882311F0DD24D394F2
:100C70008D2DDF91CF911F910F91FF90EF90DF901D
:100C800008950F931F93CF93DF930FB6F8940F92AD
:100C90008091F80681508093F8068091F8068111C2
:100CA00058C080910507811133C056C0E0910B07F1
:100CB000F0910C07C681D781CE010C960E94DA0014
:100CC0008E010E5F1F4FC8010E94DA008E8990913D
:100CD0000207981710F48093020790E09C01220FFE
:100CE000331F220F331F220F331F820F931FB801B0
:100CF0008B5D984F0E9488009E89E0914907F09192
:100D00004A078689981730F081E08093FF0602C079
:100D1000C0E0D0E0809106078111C8CFCD2B11F043
:100D20000E949A03C0910007CC2359F00E948705C6
:100D3000882319F081E08093FF06C150B9F7109223
:100D400000078091FF06882331F00E94A40181E012
:100D500003C080E001C080E00F900FBEDF91CF9113
:100D60001F910F9108950F931F93CF93DF938C01E1
:100D7000EB010E9477054091030750910407F801A9
:100D800020813181C9018C0F9D1F4217530740F408
:100D90008217930768F44817590760F020E00FC0E6
:100DA0008217930748F04817590740F020E007C022
:100DB00020E005C021E003C021E001C021E0F801EE
:100DC00091838083222329F060E0841B950B0E948D
:100DD000B5040E944106811102C00E94A401DF9166
:100DE000CF911F910F9108958091F806882321F0EB
:100DF00081E08093FF0608951092FF06209102077C
:100E000001C02150822F90E0FC01EE0FFF1FEE0F7A
:100E1000FF1FEE0FFF1FE80FF91FEB5DF84F30814A
:100E2000332379F3AC01440F551F440F551F440F72
:100E3000551F480F591FDF010180F281E02D02800C
:100E4000F381E02D1296FC93EE931197485D584F75
:100E5000E417F50729F442815381FD015283418350
:100E6000FC01EE0FFF1FEE0FFF1FEE0FFF1F8E0F97
:100E70009F1FFC01EB5DF84F0180F281E02D868120
:100E8000978190934A07809349072093020708951A
:100E9000FF920F931F93CF93DF9381114EC0082FC2
:100EA00010E017C09E01220F331FF901EC0FFD1F48
:100EB000EE0FFF1FE452FF4FF580F10EC48140E0BA
:100EC0006F2D8C2F0E940C0A6F2D8C2F0E94210BEE
:100ED0001F5FC02FD0E0FE01EE0FFF1FEC0FFD1FC4
:100EE000EE0FFF1FE452FF4F83811817D8F210E076
:100EF00016C0FE01EE0FFF1FEC0FFD1FEE0FFF1FD0
:100F0000E452FF4F0281010FF18040E0602F8F2DEE
:100F10000E940C0A602F8F2D0E94210B1F5FFE0183
:100F2000EE0FFF1FEC0FFD1FEE0FFF1FE452FF4FF0
:100F300080811817F0F280E001C082EEDF91CF913E
:100F40001F910F91FF9008955F926F927F928F9201
:100F50009F92AF92BF92CF92DF92EF92FF920F9348
:100F60001F93CF93DF931F92CDB7DEB76115710545
:100F700009F49EC081119EC06B01E82E612C812C6A
:100F8000912C540168C0F801EE0FFF1FE00FF11F14
:100F9000EE0FFF1FE452FF4F7580760C548041E046
:100FA000672D852D0E940C0A40E0672D852D0E943B
:100FB000750AF12C39C0F801EE0FFF1FE00FF11F89
:100FC000EE0FFF1FE452FF4F62816F0DAE014F5FC6
:100FD0005F4F81810E94DE0A8981811124C08114C2
:100FE0009104A104B10411F0689480F8E1101BC0D1
:100FF0008F2D90E0FC01EE0FFF1FE80FF91FE0536B
:10100000FF4FE60DF11D81E090E0008002C0880FE7
:10101000991F0A94E2F7092E000CAA0BBB0B882A31
:10102000992AAA2ABB2AF394F801EE0FFF1FE00FBA
:10103000F11FEE0FFF1FE452FF4F8081F81608F4F6
:10104000BACF40E0672D852D0E940C0A672D852DB3
:101050000E94210B63940E2D10E0F801EE0FFF1F8C
:10106000E00FF11FEE0FFF1FE452FF4F8381681660
:1010700008F489CF80914B0790914C07A0914D07C0
:10108000B0914E0788169906AA06BB0639F4F601F8
:1010900080829182A282B38280E001C081E080924E
:1010A0004B0790924C07A0924D07B0924E0703C099
:1010B00081EE01C082EE0F90DF91CF911F910F91D1
:1010C000FF90EF90DF90CF90BF90AF909F908F9068
:1010D0007F906F905F900895EF92FF920F931F9310
:1010E000CF93DF9381114EC0C82FD0E0FE01E15BAA
:1010F000F84F8081813009F447C0FE01EE0FFF1FD9
:10110000EE0FFF1FEE51FF4F8281811114C0FE01CF
:10111000EE0FFF1FEE0FFF1FEE51FF4F618141E009
:1011200080810E940C0A811131C0C15BD84F81E0DF
:10113000888380E030C0813059F5CE01880F991F37
:10114000880F991F9C012E513F4F7901F9010381AE
:10115000802F0E945F0B182F41E0F7016181808191
:101160000E940C0A182B802F0E94900B182B802FA6
:101170000E949C0B812B71F4C15BD84F81E0888366
:1011800080E009C081EC07C082EC05C081E003C0AB
:1011900081E001C081E0DF91CF911F910F91FF901D
:1011A000EF900895811132C090E0FC01E15BF84FAF
:1011B0002081213069F5FC01EE0FFF1FEE0FFF1FAC
:1011C000EE51FF4F2281211110C0880F991F880F07
:1011D000991FFC01EE51FF4F618140E080810E9428
:1011E000750A8823B9F081E008952130A9F4880FA9
:1011F000991F880F991FFC01EE51FF4F60E083811A
:101200000E94AD0B882351F081E0089581EC089590
:1012100083EC089580E0089581E0089580E00895CA
:10122000811132C090E0FC01E15BF84F2081213058
:1012300069F5FC01EE0FFF1FEE0FFF1FEE51FF4F90
:101240002281211110C0880F991F880F991FFC015E
:10125000EE51FF4F618141E080810E94750A882331
:10126000B9F081E008952130A9F4880F991F880F03
:10127000991FFC01EE51FF4F64E683810E94AD0B84
:10128000882351F081E0089581EC089583EC08955E
:1012900080E0089581E0089580E00895811121C0E3
:1012A00090E0FC01E15BF84F20812130E1F4FC018A
:1012B000EE0FFF1FEE0FFF1FEE51FF4F2281222383
:1012C000A1F06536A0F4880F991F880F991FFC01C3
:1012D000EE51FF4F83810E94AD0B882351F081E0D6
:1012E000089581EC089583EC089581E0089581E0EC
:1012F000089580E00895CF93C0E00EC0EC2FF0E099
:10130000EE0FFF1FEE0FFF1FEA51FF4F40E061811C
:1013100080810E94750ACF5FC23080F3CF9108951B
:101320001F93CF93DF93823060F5C82FD0E0FE018A
:10133000E05BF84F8081813031F1FE01EE0FFF1F3D
:10134000EE0FFF1FEA51FF4F41E0618180810E9453
:101350000C0A10E00EC0FE01EE0FFF1FEE0FFF1F84
:10136000EA51FF4F6381610F41E082810E940C0AC4
:101370001F5F143080F3C05BD84F81E0888380E02A
:1013800003C081EA01C083EADF91CF911F910895E4
:101390000F931F93CF93DF938230A0F5C82FD0E037
:1013A000FE01E05BF84F8081813071F56A3070F5A5
:1013B000162F0E947B0900E016C0412F50E0002E3E
:1013C00002C0559547950A94E2F7FE01EE0FFF1F04
:1013D000EE0FFF1FEA51FF4F63814170600F828162
:1013E0000E94750A0F5F043040F3CC0FDD1FCC0F55
:1013F000DD1FCA51DF4F41E0698188810E94750A73
:1014000080E005C081EA03C082EA01C083EADF917F
:10141000CF911F910F910895423008F060C068305D
:1014200008F05FC08130E1F030F0823071F183303C
:1014300009F440C058C02AB381E090E0062E02C0F3
:10144000880F991F0A94E2F750E002C0440F551F1D
:101450006A95E2F780958223482B4ABB80E0089585
:1014600027B381E090E0062E02C0880F991F0A94EE
:10147000E2F750E002C0440F551F6A95E2F78095ED
:101480008223482B47BB80E0089524B381E090E09D
:10149000062E02C0880F991F0A94E2F750E002C09E
:1014A000440F551F6A95E2F780958223482B44BB71
:1014B00080E0089521B381E090E0062E02C0880FFD
:1014C000991F0A94E2F750E002C0440F551F6A9535
:1014D000E2F780958223482B41BB80E0089581E0AC
:1014E000089581E0089581E00895423008F060C0D9
:1014F000683008F05FC08130E1F030F0823071F187
:10150000833009F440C058C02BB381E090E0062E30
:1015100002C0880F991F0A94E2F750E002C0440FFE
:10152000551F6A95E2F780958223482B4BBB80E0DC
:10153000089528B381E090E0062E02C0880F991F1D
:101540000A94E2F750E002C0440F551F6A95E2F793
:1015500080958223482B48BB80E0089525B381E025
:1015600090E0062E02C0880F991F0A94E2F750E01F
:1015700002C0440F551F6A95E2F780958223482BDD
:1015800045BB80E0089522B381E090E0062E02C0C2
:10159000880F991F0A94E2F750E002C0440F551FCC
:1015A0006A95E2F780958223482B42BB80E008953C
:1015B00081E0089581E0089581E008956830D8F5CC
:1015C00041155105D1F1813091F028F08230D9F0E8
:1015D000833029F134C089B390E002C09595879596
:1015E0006A95E2F78170FA01808380E0089586B3FE
:1015F00090E002C0959587956A95E2F78170FA01AF
:10160000808380E0089583B390E002C0959587952C
:101610006A95E2F78170FA01808380E0089580B3D3
:1016200090E002C0959587956A95E2F78170FA017E
:10163000808380E0089581E0089581E0089581E04D
:1016400008956830C0F5813091F028F08230D9F0EB
:10165000833029F132C081E090E002C0880F991FE9
:101660006A95E2F79BB3892B8BBB80E0089581E0FC
:1016700090E002C0880F991F6A95E2F798B3892B12
:1016800088BB80E0089581E090E002C0880F991F38
:101690006A95E2F795B3892B85BB80E0089581E0D8
:1016A00090E002C0880F991F6A95E2F792B3892BE8
:1016B00082BB80E0089581E0089581E00895833041
:1016C00069F585B5E3E6F0E09285492F417050E079
:1016D0000024569547950794569547950794542F9F
:1016E000402D8F7B482B91FB222720F930E0220FE1
:1016F000331F220F331F220F331F477F242B838575
:1017000030E1839FC00111242F7C282B25BD41E0AF
:1017100067E083E00E940C0A80E0089581E008956C
:10172000833041F485B590916C00887F892B85BD0D
:1017300080E0089581E00895833069F425B59091A3
:101740006E0030E1939FC0011124922F9F7C892B62
:1017500085BD80E0089581E008959FEF960F94364F
:1017600010F5833011F580916E00823001F570E044
:1017700080E090E00E941B0F20E030E048EC52E453
:101780000E94780E20E030E040E853E40E94F70F1A
:1017900020E030E040E85FE30E940B0E0E94EA0E7A
:1017A00063BD80E0089581E0089581E0089581E0BF
:1017B00008950F931F93CF93DF931F92CDB7DEB79A
:1017C0008091530781110DC004E710E0F80180817A
:1017D0000E949009F80181810E94900981E0809324
:1017E0005307CE0101960E94260C80915207882350
:1017F00019F08130B9F024C069818DEC689F812D8A
:101800001124869586958695880F982F990F990FA4
:10181000890F681B809174000E94C80981E0809341
:1018200052070EC089816DEC869F612D112466954B
:1018300066956695809175000E94C80910925207BE
:101840000F90DF91CF911F910F910895009731F084
:1018500020915407FC01208380E0089582E90895D7
:10186000843620F48093540780E0089581E9089538
:101870000F931F93CF93DF9300D000D0CDB7DEB787
:101880008091590781110AC0809176000E94480713
:1018900087B3806F87BB81E080935907BE016F5F7C
:1018A0007F4F809176000E94A40781115DC0009156
:1018B00055071091560720915707309158076981B5
:1018C0007A818B819C81061717072807390709F44D
:1018D0004BC06093550770935607809357079093BA
:1018E000580760FF1DC0633420E172078105910530
:1018F00039F40E94BD0C88B38F70806D88BB34C0F2
:10190000633474408105910539F40E94C20C88B398
:101910008F70806E88BB28C088B38F7088BB24C04E
:101920006115710581059105E1F00E94190F0E9472
:10193000AF0F28E132E741E35FE30E94780E0E9497
:10194000EA0E69837A838B839C83862F0E94C70C5F
:1019500088B3982F9F7089818295807F892B88BB5F
:1019600003C088B38F7088BB0F900F900F900F90BB
:10197000DF91CF911F910F91089581E080935C07D3
:1019800080E0089581E080935B0780E008958D30CA
:1019900020F480935A0780E0089582ED0895CF9354
:1019A000DF9300D01F92CDB7DEB70E947D059A83EA
:1019B000898380915F0781110AC081E00E948B0DAD
:1019C0008091CF000E946C0881E080935F07CE0178
:1019D00003960E94810DEB8180916000E81731F041
:1019E000E093600010925E0710925D07E43009F406
:1019F00082C080915E078130F9F038F0823009F4BE
:101A000040C0833009F454C076C08091CF000E945A
:101A1000D20881E080935E07EB8186E1E89FF001C8
:101A20001124E958FF4F6089718982899389CE0119
:101A300001960E94B3065FC086E1E89FF001112481
:101A4000E958FF4F658980915D07680F60935D07D6
:101A50008091CF000E944E0980915D07843619F471
:101A600082E080935E07EB8186E1E89FF00111241C
:101A7000E958FF4F648970E0CE0101960E94B306D9
:101A80003AC08091CF000E94100983E080935E07E6
:101A9000EB8186E1E89FF0011124E958FF4F648152
:101AA000758186819781CE0101960E94B30623C07D
:101AB00086E1E89FF0011124E958FF4F8589609184
:101AC0005D07681B60935D078091CF000E944E09FF
:101AD00080915D07811102C010925E07EB8186E163
:101AE000E89FF0011124E958FF4F648970E0CE01AE
:101AF00001960E94B3060F900F900F90DF91CF9147
:101B00000895009731F020916100FC01208380E06E
:101B1000089582EB0895843020F48093610080E082
:101B2000089581EB0895CF93DF9300D0CDB7DEB752
:101B30000E947D059A8389830E94380C62E370E0DD
:101B4000CE0101960E94B306F7CF0E94CF0CFDCFC5
:101B5000CF93DF9300D0CDB7DEB70E947D059A8387
:101B600089830E94D90B6AE070E0CE0101960E9441
:101B7000B306F7CFCF93DF9300D0CDB7DEB70E9487
:101B80007D059A83898364E670E0CE0101960E9408
:101B9000B306809162000E94300C809162008F5FDA
:101BA00080936200843610F01092620064E670E068
:101BB000CE0101960E94B306ECCFE12CF12C01E09E
:101BC00020E030E045E550E06EEE70E083E99DE016
:101BD0000E94F90420E030E045E550E062EF70E05B
:101BE00085EA9DE00E94F90420E030E045E550E000
:101BF0006CEF70E088EA9DE00E94F90420E030E09C
:101C000045E550E069E071E08AEB9DE00E94F9044F
:101C10000E944D05FFCF5058BB27AA270E94230ED4
:101C20000C946D0F0E945F0F38F00E94660F20F039
:101C300039F49F3F19F426F40C945C0F0EF4E095F0
:101C4000E7FB0C94560FE92F0E947E0F58F3BA174A
:101C5000620773078407950720F079F4A6F50C94C2
:101C6000A00F0EF4E0950B2EBA2FA02D0B01B90199
:101C700090010C01CA01A0011124FF27591B99F002
:101C8000593F50F4503E68F11A16F040A22F232F0E
:101C9000342F4427585FF3CF469537952795A7955E
:101CA000F0405395C9F77EF41F16BA0B620B730B05
:101CB000840BBAF09150A1F0FF0FBB1F661F771F76
:101CC000881FC2F70EC0BA0F621F731F841F48F42B
:101CD000879577956795B795F7959E3F08F0B0CFB4
:101CE0009395880F08F09927EE0F9795879508959B
:101CF0000E948C0E0C946D0F0E94660F58F00E948B
:101D00005F0F40F029F45F3F29F00C94560F5111FA
:101D10000C94A10F0C945C0F0E947E0F68F3992322
:101D2000B1F3552391F3951B550BBB27AA276217D7
:101D30007307840738F09F5F5F4F220F331F441FE4
:101D4000AA1FA9F335D00E2E3AF0E0E832D0915018
:101D50005040E695001CCAF72BD0FE2F29D0660F05
:101D6000771F881FBB1F261737074807AB07B0E848
:101D700009F0BB0B802DBF01FF2793585F4F3AF04E
:101D80009E3F510578F00C94560F0C94A10F5F3FC5
:101D9000E4F3983ED4F3869577956795B795F795D4
:101DA0009F5FC9F7880F911D9695879597F90895BC
:101DB000E1E0660F771F881FBB1F62177307840758
:101DC000BA0720F0621B730B840BBA0BEE1F88F767
:101DD000E09508950E94860F88F09F5798F0B92FDC
:101DE0009927B751B0F0E1F0660F771F881F991F50
:101DF0001AF0BA95C9F714C0B13091F00E94A00F43
:101E0000B1E008950C94A00F672F782F8827B85F52
:101E100039F0B93FCCF3869577956795B395D9F7A7
:101E20003EF490958095709561957F4F8F4F9F4FB1
:101E30000895E89409C097FB3EF4909580957095BD
:101E400061957F4F8F4F9F4F9923A9F0F92F96E906
:101E5000BB279395F695879577956795B795F1117B
:101E6000F8CFFAF4BB0F11F460FF1BC06F5F7F4F18
:101E70008F4F9F4F16C0882311F096E911C077232A
:101E800021F09EE8872F762F05C0662371F096E833
:101E9000862F70E060E02AF09A95660F771F881F02
:101EA000DAF7880F9695879597F9089597F99F67C0
:101EB00080E870E060E008959FEF80EC08950024D2
:101EC0000A941616170618060906089500240A949F
:101ED00012161306140605060895092E0394000C25
:101EE00011F4882352F0BB0F40F4BF2B11F460FFB4
:101EF00004C06F5F7F4F8F4F9F4F089557FD9058DD
:101F0000440F551F59F05F3F71F04795880F97FBBD
:101F1000991F61F09F3F79F0879508951216130677
:101F20001406551FF2CF4695F1DF08C016161706A6
:101F30001806991FF1CF86957105610508940895DB
:101F4000E894BB2766277727CB0197F9089516F009
:101F50000C9464100C945C0F68940C94560F0E94BF
:101F6000860FA8F39923C1F3AEF3DF93CF931F93AA
:101F70000F93FF92C92FDD2788232AF02197660F40
:101F8000771F881FDAF720E030E040E85FEB9FE33F
:101F9000883920F0803E38F021968F770E940C0E11
:101FA000E4E5F0E004C00E940C0EE1E8F0E00E94DD
:101FB00072108B01BE01EC01FB2E6F5771097595F4
:101FC000771F880B990B0E941B0F28E132E741E332
:101FD0005FE30E940A10AF2D9801AE01FF900F91B0
:101FE0001F91CF91DF910E94230E0C946D0F0E94E0
:101FF0000A100C946D0F0E945F0F38F00E94660F5C
:1020000020F0952311F00C94560F0C945C0F1124C2
:102010000C94A10F0E947E0F70F3959FC1F3950F52
:1020200050E0551F629FF001729FBB27F00DB11D5C
:10203000639FAA27F00DB11DAA1F649F6627B00DEC
:10204000A11D661F829F2227B00DA11D621F739FD5
:10205000B00DA11D621F839FA00D611D221F749FE3
:102060003327A00D611D231F849F600D211D822F2A
:10207000762F6A2F11249F5750409AF0F1F0882351
:102080004AF0EE0FFF1FBB1F661F771F881F91507E
:102090005040A9F79E3F510580F00C94560F0C94C8
:1020A000A10F5F3FE4F3983ED4F38695779567954B
:1020B000B795F795E7959F5FC1F7FE2B880F911DA8
:1020C0009695879597F908959F3F31F0915020F4A8
:1020D000879577956795B795880F911D9695879504
:1020E00097F90895DF93CF931F930F93FF92EF9289
:1020F000DF927B018C01689406C0DA2EEF010E940A
:102100000A10FE01E894A5912591359145915591CC
:10211000A6F3EF010E94230EFE019701A801DA94B5
:1021200069F7DF90EF90FF900F911F91CF91DF91B2
:062130000895F894FFCFB2
:102136000404010503000505000505000203024924
:10214600444C4500000100B80B0000F4010000F407
:10215600010000F4010000DC0500000A02DC0500B5
:1021660000FA000000FA000000FA000000EE02008B
:10217600000A04B0040000C8000000C8000000C83F
:10218600000000580200000A052C01000032000081
:10219600003200000032000000960000000A140021
:1021A6000102030405060708090A0B0C04020103D1
:1021B6000205030701030302010003030100484D62
:1021C6004900496E64696361746F72005365766590
:1021D6006E5365676D656E74006E756D626572002F
:00000001FF
