:100000000C9439000C9456000C9456000C94560035
:100010000C9456000C9456000C9456000C94B600A8
:100020000C9456000C9456000C9456000C945600F8
:100030000C9456000C9456000C9456000C945600E8
:100040000C9456000C9456000C9456000C945600D8
:100050000C945600070913091F092B093709430996
:100060004F09AA0DB60DC20DE90D060E290E460E5A
:10007000520E11241FBECFE5D8E0DEBFCDBF10E089
:10008000A0E6B0E0E0EBF1E202C005900D92AC3DDD
:10009000B107D9F721E0ACEDB0E001C01D92AE315F
:1000A000B207E1F70E94290F0C94D6100C940000BF
:1000B0000F920FB6F8940F921F9211242F923F9235
:1000C0004F925F926F927F928F929F92AF92BF9268
:1000D000CF92DF92EF92FF920F931F932F933F9354
:1000E0004F935F936F937F938F939F93AF93BF9340
:1000F000CF93DF93EF93FF93A091DC00B091DD00ED
:100100000DB60D920EB60D920E94BA00882311F022
:100110000E948902A091DC00B091DD00CD91CDBF9D
:10012000DD91DEBFFF91EF91DF91CF91BF91AF9154
:100130009F918F917F916F915F914F913F912F91FF
:100140001F910F91FF90EF90DF90CF90BF90AF90F5
:100150009F908F907F906F905F904F903F902F90E7
:100160001F900F900FBE0F90089500000E9458003E
:1001700018950000CF93DF93CDB7DEB72F970FB65A
:10018000F894DEBF0FBECDBF198280910F01882386
:1001900009F0ACC1809106019091070101969B8303
:1001A0008A838A819B8190930701809306018A81CB
:1001B0009B81892BD9F480910201909103019D8349
:1001C0008C838091040190910501909303018093A9
:1001D00002018C819D81909305018093040180919F
:1001E0000C018F5F80930C010E94FD0280910D0134
:1001F00090910E012A813B812817390708F456C1D6
:100200008091020190910301FC018081882339F4DF
:100210008FEF9FEF90930E0180930D0147C1809166
:10022000020190910301FC0185819681FC01868188
:1002300097819F838E838E819F81FC018281938130
:10024000998788872A813B8188859985281739076E
:1002500038F48885998590930E0180930D0126C10D
:100260008E819F81FC01828593859B878A878E8101
:100270009F81FC01848195812E813F81F901268136
:100280003781FC01358324838E819F81FC01868127
:1002900097812E813F81F90124813581FC013383CF
:1002A00022838A859B85FC01218132818E819F81F9
:1002B00002962817390751F48E819F81FC0126810F
:1002C00037818A859B85FC01328321838E819F81C2
:1002D000FC01138612868A859B85FC0180812FEFA5
:1002E000280F8A859B85FC0120838E819F81FC01DC
:1002F00084899589892B09F445C08E819F81FC01F1
:10030000848995899D878C878E819F81FC01868554
:1003100097852E813F81F90120893189FC01358340
:1003200024838E819F81FC01808991892E813F8168
:10033000F90126853785FC01338322838C859D85D1
:10034000FC01218132818E819F810C96281739070B
:1003500051F48E819F81FC01208931898C859D8596
:10036000FC01328321838E819F81FC01158A148ACE
:100370008C859D85FC0180812FEF280F8C859D85C4
:10038000FC0120838E819F81FC0196898091080168
:10039000891730F48E819F81FC0186898093080142
:1003A0008E819F81FC018689282F30E0C901880F4A
:1003B000991F880F991F880F991F820F931F8152D1
:1003C0009F4FFC01808191819F878E878E819F81C5
:1003D0002E853F85FC01358324838E859F85FC0116
:1003E000248135818E819F81FC01378326838E8510
:1003F0009F85FC01848195812E813F812E5F3F4F37
:10040000FC01338322838E819F819C012E5F3F4FAD
:100410008E859F85FC01358324838E819F81FC011D
:100420008689282F30E0C901880F991F880F991FEE
:10043000880F991F820F931F9C0122523F4F8E817C
:100440009F81FC01338722878E819F81FC018689F1
:10045000282F30E0C901880F991F880F991F880F36
:10046000991F820F931F82529F4FFC01808141E0B0
:10047000480FC901880F991F880F991F880F991F6E
:10048000820F931F82529F4FFC0140838E819F8178
:10049000FC0126898091DC009091DD00FC018689B9
:1004A000281708F4ADCE81E08983AACE8091DC00C4
:1004B0009091DD00FC018689282F30E0C901880F6A
:1004C000991F880F991F880F991F820F931F8252BF
:1004D0009F4FFC018081823010F081E08983809100
:1004E0000B01882361F081E0898309C080910901B3
:1004F00090910A01019690930A01809309018981E4
:100500002F960FB6F894DEBF0FBECDBFDF91CF910F
:100510000895CF93DF9300D01F92CDB7DEB78091BF
:100520000F01882321F081E080930B015FC01092BE
:100530000B0180910801898303C0898181508983DF
:100540008981282F30E0C901880F991F880F991FD2
:10055000880F991F820F931F82529F4FFC01808149
:10056000882359F38981282F30E0C901880F991F0A
:10057000880F991F880F991F820F931F82529F4FD8
:100580009B838A838A819B81FC0181819281FC010A
:10059000228133818A819B81FC01328321838A817C
:1005A0009B81FC01218132818A819B8103962817DE
:1005B000390769F48A819B81FC0181819281FC0168
:1005C000228133818A819B81FC01328321838A814C
:1005D0009B81FC0181819281FC01868197819093AE
:1005E000DD008093DC0089818093080100000F907A
:1005F0000F900F90DF91CF910895CF93DF93CDB7F8
:10060000DEB78091020190910301FC018081882373
:1006100039F48FEF9FEF90930E0180930D010EC080
:100620008091020190910301FC0185819681FC017A
:100630008081918190930E0180930D010000DF91E4
:10064000CF910895CF93DF9300D01F92CDB7DEB73F
:100650008B838FEF898381E08A8380916000882F6C
:1006600090E08531910509F4D9C08F3F910521F0C3
:10067000449709F4AFC0ECC09091BF008091BE00D8
:1006800040E0692F0E94AF079091C0008091BE00AA
:1006900040E0692F0E94AF078B81282F2170909135
:1006A000D2008091C700422F692F0E94AF078B8133
:1006B000882F90E08270992795958795282F9091A3
:1006C000D1008091C700422F692F0E94AF078B8114
:1006D000882F90E0847099279595879595958795B3
:1006E000282F9091D0008091C700422F692F0E943F
:1006F000AF078B81882F90E0887099279595879513
:100700009595879595958795282F9091CF00809105
:10071000C700422F692F0E94AF078B81882F90E07E
:100720008071992795958795959587959595879546
:1007300095958795282F9091CE008091C700422FE4
:10074000692F0E94AF078B81882F90E080729927D4
:100750009595879595958795959587959595879581
:1007600095958795282F9091CD008091C700422FB5
:10077000692F0E94AF078B81882F90E080749927A2
:10078000082E892F000C881F990B000C881F991FB9
:10079000282F9091CC008091C700422F692F0E9492
:1007A000AF078B81282F221F2227221F9091CB0079
:1007B0008091C700422F692F0E94AF079091C1001E
:1007C0008091BE0041E0692F0E94AF0784E18093D1
:1007D000600044C062E273E082E00E940A0D8B3F39
:1007E000D1F522E233E041E050E060E070E082E0E9
:1007F0000E94B50B000062E273E082E00E940A0DE5
:100800008823C9F79091C1008091BE0040E0692F14
:100810000E94AF0785E1809360001DC062E273E033
:1008200082E00E940A0D8A838A818B3F49F422E28A
:1008300033E042E050E060E070E082E00E945A0C59
:100840008A81882351F419828FEF8093600005C05C
:1008500081E0898303C0000001C0000089810F90FE
:100860000F900F90DF91CF910895CF93DF9300D039
:10087000CDB7DEB78A838FEF898380916100882F9F
:1008800090E08431910509F4B2C08F3F910509F0E1
:10089000D3C09091C8008091C60041E0692F0E94AA
:1008A000AF079091C9008091C60040E0692F0E9477
:1008B000AF078A81282F21709091D2008091C700C4
:1008C000422F692F0E94AF078A81882F90E08270A3
:1008D000992795958795282F9091D1008091C700F1
:1008E000422F692F0E94AF078A81882F90E0847081
:1008F00099279595879595958795282F9091D00064
:100900008091C700422F692F0E94AF078A81882FEC
:1009100090E08870992795958795959587959595F9
:100920008795282F9091CF008091C700422F692F83
:100930000E94AF078A81882F90E080719927959552
:100940008795959587959595879595958795282F62
:100950009091CE008091C700422F692F0E94AF076F
:100960008A81882F90E08072992795958795959533
:100970008795959587959595879595958795282F32
:100980009091CD008091C700422F692F0E94AF0740
:100990008A81882F90E080749927082E892F000C77
:1009A000881F990B000C881F991F282F9091CC004D
:1009B0008091C700422F692F0E94AF078A81282F9C
:1009C000221F2227221F9091CB008091C700422F27
:1009D000692F0E94AF079091C1008091BE0041E055
:1009E000692F0E94AF0784E18093610029C065E30D
:1009F00074E082E00E940A0D8B3F09F525E334E0A4
:100A000041E050E060E070E082E00E94B50B000041
:100A100065E374E082E00E940A0D8823C9F7909193
:100A2000C1008091BE0040E0692F0E94AF078FEFA8
:100A300080936100198203C081E0898301C00000B6
:100A400089810F900F90DF91CF910895CF93DF931D
:100A500000D01F92CDB7DEB78FEF898381E08A8304
:100A60008FEF8B8380916200882F90E08B3091050F
:100A700009F419C18C309105BCF48830910509F452
:100A8000EEC08930910544F48530910509F4C1C068
:100A9000069709F4D8C040C18930910509F4EBC02C
:100AA0000A9709F4F4C038C18E30910509F41DC1CC
:100AB0008F30910544F48C30910509F400C10D97F5
:100AC00009F408C129C18F30910509F419C18F3F7C
:100AD000910509F021C182E00E9464099091CB0048
:100AE0008091C70041E0692F0E94EB069091CC00F5
:100AF0008091C70041E0692F0E94EB069091CD00E4
:100B00008091C70041E0692F0E94EB069091CE00D2
:100B10008091C70041E0692F0E94EB069091CF00C1
:100B20008091C70041E0692F0E94EB069091D000B0
:100B30008091C70041E0692F0E94EB069091D1009F
:100B40008091C70041E0692F0E94EB069091D2008E
:100B50008091C70041E0692F0E94EB069091C80088
:100B60008091C60041E0692F0E94EB069091C90078
:100B70008091C60041E0692F0E94EB069091CA0067
:100B80008091C60041E0692F0E94EB069091CB0056
:100B90008091C70040E0692F0E94AF079091CC0080
:100BA0008091C70040E0692F0E94AF079091CD006F
:100BB0008091C70040E0692F0E94AF079091CE005E
:100BC0008091C70040E0692F0E94AF079091CF004D
:100BD0008091C70040E0692F0E94AF079091D0003C
:100BE0008091C70040E0692F0E94AF079091D1002B
:100BF0008091C70040E0692F0E94AF079091D2001A
:100C00008091C70040E0692F0E94AF0785E0809384
:100C1000620062E273E082E00E940A0D8A838A81A8
:100C20008B3F49F422E233E04FE050E060E070E0B7
:100C300082E00E945A0C8A81882309F070C086E005
:100C4000809362006CC080E30E9422038B838B81BF
:100C5000882309F066C088E08093620062C080E368
:100C60000E9422038B838B81882309F05CC089E07A
:100C70008093620058C080E30E9422038B838B81A3
:100C8000882309F052C08AE0809362004EC088E356
:100C90000E9422038B838B81882309F048C08BE05C
:100CA0008093620044C08CE00E9422038B838B817E
:100CB000882309F03EC08CE0809362003AC086E051
:100CC0000E9422038B838B818823A9F58DE080937A
:100CD000620031C082E00E9422038B838B818823D3
:100CE00061F58EE08093620028C080E80E942203B4
:100CF0008B838B81882319F58FE0809362001FC05E
:100D000080E80E9422038B838B818823D1F48FEFAC
:100D100080936200198215C081E0898313C00000AE
:100D200011C000000FC000000DC000000BC000008B
:100D300009C0000007C0000005C0000003C000009B
:100D400001C0000089810F900F900F90DF91CF912B
:100D50000895CF93DF9300D000D0CDB7DEB79C834A
:100D60008B838FEF89838FEF8A838B819C81892B83
:100D700041F180911001882F90E02B813C81820FFE
:100D8000931FFC0180818823C1F082E089838091D8
:100D90001001882F90E02B813C81820F931FFC0172
:100DA00080810E9435048A838A81882361F480913E
:100DB00010018F5F8093100106C0109210011982FC
:100DC00002C081E0898389810F900F900F900F906E
:100DD000DF91CF910895CF93DF9300D000D0CDB7AE
:100DE000DEB78A836B834C8319828C81882331F030
:100DF0008C81813019F081E08983A9C08B81883092
:100E000018F081E08983A3C08A81882F90E0813027
:100E1000910589F1823091051CF4892B49F094C029
:100E20008230910509F44AC0039709F46AC08CC066
:100E30008AE390E02AE330E0F9012081622F2B81E0
:100E4000422F50E021E030E002C0220F331F4A95CC
:100E5000E2F7209562232C81222F30E04B81442F32
:100E600050E002C0220F331F4A95E2F7262BFC0107
:100E7000208319826CC087E390E027E330E0F9011A
:100E80002081622F2B81422F50E021E030E002C010
:100E9000220F331F4A95E2F7209562232C81222FDF
:100EA00030E04B81442F50E002C0220F331F4A959F
:100EB000E2F7262BFC012083198249C084E390E0ED
:100EC00024E330E0F9012081622F2B81422F50E092
:100ED00021E030E002C0220F331F4A95E2F720954F
:100EE00062232C81222F30E04B81442F50E002C03E
:100EF000220F331F4A95E2F7262BFC01208319822B
:100F000026C081E390E021E330E0F9012081622FE7
:100F10002B81422F50E021E030E002C0220F331F2E
:100F20004A95E2F7209562232C81222F30E04B81F5
:100F3000442F50E002C0220F331F4A95E2F7262BC0
:100F4000FC012083198203C081E08983000089812C
:100F50000F900F900F900F90DF91CF910895CF9346
:100F6000DF9300D000D0CDB7DEB78A836B834C838C
:100F700019828C81882331F08C81813019F081E0D5
:100F80008983A9C08B81883018F081E08983A3C050
:100F90008A81882F90E08130910589F18230910516
:100FA0001CF4892B49F094C08230910509F44AC0A1
:100FB000039709F46AC08CC08BE390E02BE330E028
:100FC000F9012081622F2B81422F50E021E030E097
:100FD00002C0220F331F4A95E2F7209562232C812D
:100FE000222F30E04B81442F50E002C0220F331FEC
:100FF0004A95E2F7262BFC01208319826CC088E316
:1010000090E028E330E0F9012081622F2B81422F0C
:1010100050E021E030E002C0220F331F4A95E2F792
:10102000209562232C81222F30E04B81442F50E009
:1010300002C0220F331F4A95E2F7262BFC012083C2
:10104000198249C085E390E025E330E0F901208171
:10105000622F2B81422F50E021E030E002C0220FAE
:10106000331F4A95E2F7209562232C81222F30E02E
:101070004B81442F50E002C0220F331F4A95E2F704
:10108000262BFC012083198226C082E390E022E314
:1010900030E0F9012081622F2B81422F50E021E0C6
:1010A00030E002C0220F331F4A95E2F720956223F9
:1010B0002C81222F30E04B81442F50E002C0220FC0
:1010C000331F4A95E2F7262BFC012083198203C0C7
:1010D00081E08983000089810F900F900F900F901D
:1010E000DF91CF910895CF93DF9300D01F92CDB7BA
:1010F000DEB789837B836A838981882321F0898194
:10110000813009F05FC08981282F30E0C901880F44
:10111000991F820F931F8B529F4FFC018081882F54
:1011200090E08330910539F18430910534F48130B9
:10113000910549F0029799F042C08430910539F148
:10114000059789F13CC02A813B8180E090E0A0E8CE
:10115000BDE3F90180839183A283B38332C02A81E6
:101160003B8180E090E0A0E0BFE3F90180839183C0
:10117000A283B38326C02A813B8180E090E0A0E86F
:10118000B0E4F90180839183A283B3831AC02A81DA
:101190003B8180E090E0A0E8B1E4F9018083918395
:1011A000A283B3830EC02A813B8180E090E0A0E857
:1011B000B2E4F90180839183A283B38302C08CEFF0
:1011C0007DC07BC08981823009F077C08981282F5A
:1011D00030E0C901880F991F820F931F8B529F4FD8
:1011E000FC018081882F90E0092E000CAA0BBB0B1C
:1011F00041E050E026E030E0841B950B28173907CA
:1012000008F459C0865D9F4FFC010C94B6102A81EA
:101210003B8180E090E0A0E8BDE3F9018083918309
:10122000A283B3834AC02A813B8180E090E0A0E0A2
:10123000BFE3F90180839183A283B3833EC02A81F7
:101240003B8180E090E0A0E0B0E4F90180839183ED
:10125000A283B38332C02A813B8180E090E0A0E882
:10126000B0E4F90180839183A283B38326C02A81ED
:101270003B8180E090E0A0E0B1E4F90180839183BC
:10128000A283B3831AC02A813B8180E090E0A0E86A
:10129000B1E4F90180839183A283B3830EC02A81D4
:1012A0003B8180E090E0A0E8B2E4F9018083918383
:1012B000A283B38302C08CEF01C080E00F900F9037
:1012C0000F90DF91CF910895CF93DF931F92CDB709
:1012D000DEB789838981882F90E081309105B1F153
:1012E0008230910509F46AC0892B09F0A2C043E558
:1012F00050E08981282F30E0C901880F991F820FA3
:10130000931F8D529F4FFC018081FA01808389E5F4
:1013100090E029E530E0F90120812C7FFC01208359
:1013200049E550E089E590E0FC0160818981282F42
:1013300030E0C901880F991F820F931F8C529F4F75
:10134000FC018081862BFA01808375C04EE450E059
:101350008981282F30E0C901880F991F820F931FC0
:101360008D529F4FFC018081FA01808389E590E0D6
:1013700029E530E0F9012081277EFC01208349E541
:1013800050E089E590E0FC018081682F8981282F59
:1013900030E0C901880F991F820F931F8C529F4F15
:1013A000FC018081882F90E0880F991F880F991F7A
:1013B000880F991F862BFA0180833DC045E450E0D9
:1013C0008981282F30E0C901880F991F820F931F50
:1013D0008D529F4FFC018081FA01808389E590E066
:1013E00029E530E0F90120812F73FC01208349E5D4
:1013F00050E089E590E0FC018081682F8981282FE9
:1014000030E0C901880F991F820F931F8C529F4FA4
:10141000FC018081882F90E00024969587950794A1
:10142000969587950794982F802D862BFA018083B7
:1014300002C08EEF01C080E00F90DF91CF91089540
:10144000CF93DF93CDB7DEB727970FB6F894DEBF03
:101450000FBECDBF8D837F836E831A8219821C825B
:101460001B828D81882F90E08130910571F0823050
:101470009105A1F0892BD9F483E590E09A838983C3
:1014800082E590E09C838B8314C08EE490E09A8385
:1014900089838CE490E09C838B830BC085E490E08F
:1014A0009A83898384E490E09C838B8302C08EEFCF
:1014B0001EC08B819C812E813F81FC013183208362
:1014C00089819A81FC0140818D81282F30E0C901FA
:1014D000880F991F820F931F8B529F4FFC018081B1
:1014E000242F282B89819A81FC01208380E0279674
:1014F0000FB6F894DEBF0FBECDBFDF91CF91089538
:10150000CF93DF9300D01F92CDB7DEB789837B8363
:101510006A838A819B81892B11F48FEF20C1898195
:10152000882F90E08130910509F459C082309105EF
:1015300009F4C0C0892B09F00AC18981282F30E045
:10154000C901880F991F820F931F8D529F4FFC0175
:1015500080818823D1F488E590E0FC018081882F88
:1015600090E081709927892B71F08A819B81FC0121
:10157000108288E590E028E530E0F90120812160C3
:10158000FC012083E6C08DEFEAC08981282F30E07E
:10159000C901880F991F820F931F8D529F4FFC0125
:1015A0008081883009F0D5C088E590E0FC01808119
:1015B000882F90E082709927892B79F08A819B810E
:1015C00021E0FC01208388E590E028E530E0F90186
:1015D00020812260FC012083BCC08DEFC0C08981C6
:1015E000282F30E0C901880F991F820F931F8D5259
:1015F0009F4FFC0180818823D1F488E590E0FC01B5
:101600008081882F90E084709927892B71F08A81DE
:101610009B81FC01108288E590E028E530E0F9012B
:1016200020812460FC01208396C08DEF98C08981C1
:10163000282F30E0C901880F991F820F931F8D5208
:101640009F4FFC018081883009F085C088E590E0DB
:10165000FC018081882F90E080719927892B79F097
:101660008A819B8121E0FC01208388E590E028E5C8
:1016700030E0F90120812061FC0120836CC088E505
:1016800090E0FC018081882F90E088709927892B59
:1016900079F08A819B8121E0FC01208388E590E03C
:1016A00028E530E0F90120812860FC01208353C047
:1016B0008DEF55C08981282F30E0C901880F991F0F
:1016C000820F931F8D529F4FFC0180818823D1F49C
:1016D00088E590E0FC018081882F90E08074992754
:1016E000892B71F08A819B81FC01108288E590E052
:1016F00028E530E0F90120812064FC0120832DC021
:101700008DEF2DC08981282F30E0C901880F991FE6
:10171000820F931F8D529F4FFC0180818830E9F426
:1017200088E590E0FC01808188237CF48A819B819C
:1017300021E0FC01208388E590E028E530E0F90114
:1017400020812068FC01208308C08DEF08C08EEF47
:1017500006C0000003C0000001C0000080E00F9040
:101760000F900F90DF91CF910895EF92FF920F931A
:101770001F93CF93DF93CDB7DEB72C970FB6F894B6
:10178000DEBF0FBECDBF8E834F83588769877A87B0
:101790003C872B878E81833010F08EEF7EC08B8547
:1017A0009C85892B11F481E078C08B859C85909372
:1017B00019018093180180911701882309F06CC0EA
:1017C000CE010296BC018E810E94730889838981B3
:1017D0008C3F11F48CEF61C08A819B81AC81BD810B
:1017E00020E030E0A901BC01CD010E945E0F8823FA
:1017F000F1F06F81788589859A850E9404107B01BC
:101800008C018A819B81AC81BD819C01AD01C801A5
:10181000B7010E94630FDC01CB01BC01CD010E9426
:10182000D50FDC01CB018F839887A987BA878F8179
:101830009885A985BA85892F9A2FAB2FBB278093CE
:10184000110190931201A0931301B09314018F81A1
:10185000809316018091110190911201A0911301C2
:10186000B0911401892B8A2B8B2B61F481E080933A
:10187000150180911601882F90E0BC018E810E9495
:10188000200A05C06FEF70E08E810E94200A81E07F
:10189000809317018DEF01C081E02C960FB6F8946C
:1018A000DEBF0FBECDBFDF91CF911F910F91FF9093
:1018B000EF900895EF92FF920F931F93CF93DF93D2
:1018C000CDB7DEB72C970FB6F894DEBF0FBECDBFF5
:1018D0008E834F83588769877A873C872B878E81D1
:1018E000833010F08EEF89C08B859C85892B11F495
:1018F00081E083C08B859C859093190180931801AA
:1019000080911701882309F077C0CE010296BC01AF
:101910008E810E947308898389818C3F11F48CEF3A
:101920006CC08A819B81AC81BD8120E030E0A9013F
:10193000BC01CD010E945E0F8823F1F06F81788594
:1019400089859A850E9404107B018C018A819B8184
:10195000AC81BD819C01AD01C801B7010E94630F3C
:10196000DC01CB01BC01CD010E94D50FDC01CB0114
:101970008F839887A987BA872F81388549855A85AB
:1019800088EE93E0DC010E94BC10DC01CB01892FC2
:101990009A2FAB2FBB278093110190931201A09334
:1019A0001301B09314019F8188EE989F802D11241C
:1019B000809316018091110190911201A091130161
:1019C000B0911401892B8A2B8B2B61F481E08093D9
:1019D000150180911601882F90E0BC018E810E9434
:1019E000200A05C06FEF70E08E810E94200A81E01E
:1019F000809317018DEF01C081E02C960FB6F8940B
:101A0000DEBF0FBECDBFDF91CF911F910F91FF9031
:101A1000EF900895CF93DF9300D000D01F92CDB701
:101A2000DEB78B837D836C8380911701882311F44B
:101A30008BEF5CC080911801909119012C813D8140
:101A40002817390711F081E051C0809117018130CA
:101A500009F049C0CE010296BC018B810E94800A28
:101A600089838981882309F040C0809115018130E4
:101A700041F410921701109215011092160180E0A6
:101A800035C08091110190911201A0911301B09184
:101A900014010197A109B1098093110190931201DA
:101AA000A0931301B0931401809111019091120140
:101AB000A0911301B0911401892B8A2B8B2B61F417
:101AC00081E08093150180911601882F90E0BC0180
:101AD0008B810E94200A05C06FEF70E08B810E940D
:101AE000200A8DEF03C081E001C080E00F900F90CD
:101AF0000F900F900F90DF91CF910895CF93DF93C8
:101B000000D0CDB7DEB780916400863041F080917F
:101B10006400873021F080916400883021F4809146
:101B200064008093630080916300882F90E0092E09
:101B3000000CAA0BBB0B43E050E027E030E0841B15
:101B4000950B2817390708F4CEC08F5C9F4FFC0116
:101B50000C94B610000081E00E9422038823D9F77C
:101B600066E670E08EE00E94840EC4C0000081E052
:101B70000E9422038823D9F765E770E087E00E947E
:101B8000840EB8C0000081E00E9422038823D9F7A8
:101B9000000080EC0E9422038823D9F719820CC030
:101BA0008981873078F400008AE20E943504882316
:101BB000D9F789818F5F898380911B01998198175B
:101BC00078F301C000006DE770E08AE00E94840EA7
:101BD00091C080911D01883241F410921C01109235
:101BE0001D0189E08093630085C0000081E00E94B0
:101BF00022038823D9F768E870E08AE00E94840E07
:101C000080911D018F5F80931D0174C080911D0123
:101C1000883299F410921D0180911C018F5F80938E
:101C20001C0180911C01833021F488E080936300C3
:101C300061C085E0809363005DC0000081E00E9488
:101C400022038823D9F760E970E08AE00E94840EBD
:101C500051C080911D01883C41F410921C011092EA
:101C60001D0185E08093630045C0000081E00E9473
:101C700022038823D9F76BE970E087E00E94840E85
:101C800080911D018F5F80931D0134C0000081E0B1
:101C90000E9422038823D9F763EA70E08CE00E9457
:101CA000840E28C0000081E00E9422038823D9F717
:101CB0001A820CC08A81873078F400008AE20E9480
:101CC00035048823D9F78A818F5F8A8380911B012D
:101CD0009A81981778F301C0000060EB70E08DE006
:101CE0000E94840E07C0000081E00E942203882326
:101CF000D9F70000809163008093640000000F908A
:101D00000F90DF91CF910895CF93DF9300D01F9272
:101D1000CDB7DEB789837B836A8380916500882F86
:101D200090E082309105A9F18F3F910521F0019754
:101D300009F466C087C080911A01282F30E089819C
:101D4000882F90E040E150E0BA01681B790BCB018D
:101D50002817390724F482E08093650073C08091CE
:101D60001A01282F30E08981882F90E04FE050E061
:101D7000BA01681B790BCB012817390721F481E0E0
:101D8000809365005FC010921A0182E08093650025
:101D900059C0000080911A0180680E9422038823A4
:101DA000C9F700008A819B810E94A9068823D1F788
:101DB000000080911A01815080680E9422038823CC
:101DC000C1F7000080E20E9435048823D9F7809192
:101DD0001A01282F30E08981882F90E040E150E0FF
:101DE000BA01681B790BCB012817390719F481E078
:101DF0008093650080911A018F5F80931A0122C041
:101E000080911A01815080931A0180911A018823D0
:101E100019F482E080936500000080911A018068C7
:101E20000E9422038823C9F700008A819B810E94B7
:101E3000A9068823D1F7000080E20E943504882398
:101E4000D9F7000000000F900F900F90DF91CF9115
:101E50000895CF93DF9300D000D01F92CDB7DEB7A7
:101E600084E080931B01198200000E9426058823CC
:101E7000E1F70E947E0D89818F5F89831A821B8220
:101E80001C821D820BC08A819B81AC81BD81019621
:101E9000A11DB11D8A839B83AC83BD838A819B81F5
:101EA000AC81BD81803A9648A140B10560F389813B
:101EB0008431F9F685E080936300DBCF0E94411006
:101EC00008F481E008950E94770F0C947C100E9422
:101ED000751058F00E946E1040F029F45F3F29F011
:101EE0000C94651051110C94B0100C946B100E945E
:101EF0008D1068F39923B1F3552391F3951B550B7E
:101F0000BB27AA2762177307840738F09F5F5F4FCC
:101F1000220F331F441FAA1FA9F335D00E2E3AF00B
:101F2000E0E832D091505040E695001CCAF72BD023
:101F3000FE2F29D0660F771F881FBB1F2617370774
:101F40004807AB07B0E809F0BB0B802DBF01FF27A6
:101F500093585F4F3AF09E3F510578F00C9465100E
:101F60000C94B0105F3FE4F3983ED4F386957795D8
:101F70006795B795F7959F5FC9F7880F911D96955F
:101F8000879597F90895E1E0660F771F881FBB1FBB
:101F9000621773078407BA0720F0621B730B840B68
:101FA000BA0BEE1F88F7E09508950E94951088F00F
:101FB0009F5798F0B92F9927B751B0F0E1F0660F0D
:101FC000771F881F991F1AF0BA95C9F714C0B1304E
:101FD00091F00E94AF10B1E008950C94AF10672FFC
:101FE000782F8827B85F39F0B93FCCF3869577957D
:101FF0006795B395D9F73EF4909580957095619566
:102000007F4F8F4F9F4F0895E89409C097FB3EF490
:1020100090958095709561957F4F8F4F9F4F992335
:10202000A9F0F92F96E9BB279395F69587957795B3
:102030006795B795F111F8CFFAF4BB0F11F460FF73
:102040001BC06F5F7F4F8F4F9F4F16C0882311F0CB
:1020500096E911C0772321F09EE8872F762F05C0DF
:10206000662371F096E8862F70E060E02AF09A957A
:10207000660F771F881FDAF7880F9695879597F96F
:102080000895990F0008550FAA0BE0E8FEEF161609
:102090001706E807F907C0F012161306E407F5075C
:1020A00098F0621B730B840B950B39F40A2661F0D0
:1020B000232B242B252B21F408950A2609F4A14073
:1020C000A6958FEF811D811D089597F99F6780E880
:1020D00070E060E008959FEF80EC089500240A947A
:1020E0001616170618060906089500240A941216F3
:1020F0001306140605060895092E0394000C11F426
:10210000882352F0BB0F40F4BF2B11F460FF04C0D2
:102110006F5F7F4F8F4F9F4F089557FD9058440F2B
:10212000551F59F05F3F71F04795880F97FB991F36
:1021300061F09F3F79F087950895121613061406F3
:10214000551FF2CF4695F1DF08C016161706180680
:10215000991FF1CF86957105610508940895E8945B
:10216000BB2766277727CB0197F90895EE0FFF1F4E
:102170000590F491E02D09940E94C710A59F900D41
:10218000B49F900DA49F800D911D11240895A29FCE
:10219000B001B39FC001A39F700D811D1124911D3B
:1021A000B29F700D811D1124911D0895F894FFCFE9
:1021B000FFFFFF03FFFF53797374656D204C6F6160
:1021C00064696E670057656C636F6D6500456E747A
:1021D000657220506173730050617373204F4B0020
:1021E00057726F6E6720506173730057616974692D
:1021F0006E670053797374656D206973204F4E00CC
:102200004368616E67696E672050617373000001F7
:102210000203070605040001010203070605040383
:0C222000020100000000000000000001AE
:00000001FF
