S02A00004D43555F546F5F4D43555F426C7565746F6F74685F436F6D6D756E69636174696F6E2E73726563E5
S11300000C9431000C944E000C944E000C944E0051
S11300100C944E000C944E000C944E000C94AC00C6
S11300200C944E000C944E000C944E000C944E0014
S11300300C944E000C944E000C944E000C944E0004
S11300400C944E000C944E000C944E000C944E00F4
S11300500C944E00B406BF06CA06D506E006EB06AD
S1130060F60611241FBECFE5D8E0DEBFCDBF10E0F9
S1130070A0E6B0E0EAE2F6E102C005900D92A437F2
S1130080B107D9F720E0A4E7B0E001C01D92A13B7D
S1130090B207E1F70E947C090C94130B0C94000046
S11300A00F920FB6F8940F921F9211242F923F9241
S11300B04F925F926F927F928F929F92AF92BF9274
S11300C0CF92DF92EF92FF920F931F932F933F9360
S11300D04F935F936F937F938F939F93AF93BF934C
S11300E0CF93DF93EF93FF93A091A600B091A70065
S11300F00DB60D920EB60D920E94CB0081110E9496
S1130100E501A091A600B091A700CD91CDBFDD91EE
S1130110DEBFFF91EF91DF91CF91BF91AF919F919E
S11301208F917F916F915F914F913F912F911F918B
S11301300F91FF90EF90DF90CF90BF90AF909F9082
S11301408F907F906F905F904F903F902F901F9073
S11301500F900FBE0F9008950E9450001895E091E3
S11301608000F09181008081811107C08FEF9FEFA3
S113017090937600809375000895E0918000F0914B
S113018081000580F681E02D808191819093760035
S11301908093750008950F931F93CF93DF938091FD
S11301A07400811101C1C0917C00D0917D008E0149
S11301B00F5F1F4F10937D0000937C000115110504
S11301C0B9F4809180009091810020917E0030915B
S11301D07F00309381002093800090937F00809370
S11301E07E00809177008F5F809377000E94AF003C
S11301F080917500909176000817190720F480E02B
S1130200B8C081E001C080E0E0918000F0918100FD
S11302109081911107C02FEF3FEF30937600209328
S11302207500A7C0E0918000F09181000580F681FF
S1130230E02D0680F781E02D228133810217130718
S113024028F4309376002093750093C0A285B3857B
S11302502481358146815781E9015D834C83268160
S1130260378144815581E9015B834A8311962D913D
S11302703C911297AF014E5F5F4F2417350731F45D
S11302802681378112963C932E93119713861286FA
S11302909C9191509C93A489B589109719F1268556
S11302A0378560897189E9017D836C83208931896F
S11302B066857785E9017B836A8311966D917C91CC
S11302C012979F01245F3F4F6217730731F420890F
S11302D0318912963C932E931197158A148A9C9116
S11302E091509C93268990917B00921710F420934F
S11302F07B0030E0D901AA0FBB1FAA0FBB1FAA0FB6
S1130300BB1F2A0F3B1FD901AE57BF4F11960D904B
S1130310BC91A02DB583A48314962D913C9115977F
S11303203783268314962D913C911597E9015B83BD
S11303304A8315965C934E931497A689B0E09D0169
S1130340220F331F220F331F220F331FA20FB31F9D
S1130350AE57BF4FB387A2879C919F5F9C9326891A
S1130360E091A600F091A7009689291708F049CFDB
S11303704BCFE091A600F091A700268930E0F90167
S1130380EE0FFF1FEE0FFF1FEE0FFF1F2E0F3F1F7D
S1130390F901EE57FF4F9081923008F081E090917F
S11303A0780091110CC00CC08091790090917A0072
S11303B0019690937A008093790080E001C081E0F7
S11303C0DF91CF911F910F9108958091740088233C
S11303D021F081E0809378000895109278002091B4
S11303E07B0001C02150822F90E0FC01EE0FFF1F23
S11303F0EE0FFF1FEE0FFF1FE80FF91FEE57FF4F21
S11304003081332379F3AC01440F551F440F551F3A
S1130410440F551F480F591FDF010180F281E02D61
S11304200280F381E02D1296FC93EE9311974B57C3
S11304305F4FE417F50729F442815381FD0152838C
S11304404183FC01EE0FFF1FEE0FFF1FEE0FFF1F96
S11304508E0F9F1FFC01EE57FF4F0180F281E02DAC
S1130460868197819093A7008093A60020937B00B8
S113047008950F931F93CF93DF93C82F8091620049
S1130480833009F4CCC038F4813009F45FC0823081
S113049009F480C0FFC0843009F4E4C08F3F09F040
S11304A0F9C003E610E0F801D08140E061818D2FAE
S11304B00E94E10540E0F80162818D2F0E94E10570
S11304C04C2F407150E05595479555954795559556
S11304D0479555954795F80167818D2F0E94E10551
S11304E04C2F407250E05595479555954795559535
S11304F047955595479555954795F80166818D2FF4
S11305000E94E1054C2F407450E0042E452F000C4E
S1130510441F550B000C441F551FF80165818D2F96
S11305200E94E1054C2F441F4427441FF8016481B5
S11305308D2F0E94E10541E0F80163818D2F0E9417
S1130540E10581E0809362008FEFABC069E372E064
S113055082E00E941D098B3F09F09EC029E332E02E
S113056041E050E060E070E082E00E940E0869E340
S113057072E082E00E941D098111F9CFE3E6F0E008
S113058040E0638180810E94E10582E08093620003
S11305908FEF87C003E610E0F801D08140E061816D
S11305A08D2F0E94E10540E0F80162818D2F0E94A9
S11305B0E1054C2F4170F80167818D2F0E94E10500
S11305C04C2F427050E055954795F80166818D2F68
S11305D00E94E1054C2F447050E055954795559580
S11305E04795F80165818D2F0E94E105C8704C2F55
S11305F050E0559547955595479555954795F8017C
S113060064818D2F0E94E10541E0F80163818D2F03
S11306100E94E10583E0809362008FEF42C069E3AA
S113062072E082E00E941D098B3FC1F529E332E0AC
S113063041E050E060E070E082E00E940E0869E36F
S113064072E082E00E941D098111F9CFE3E6F0E037
S113065040E0638180810E94E10584E08093620030
S11306608FEF1FC069E372E082E00E941D09C82F6A
S11306708B3F49F429E332E042E050E060E070E06F
S113068082E00E948C08C1110BC08FEF809362003E
S113069080E007C081E005C08FEF03C08FEF01C089
S11306A08FEFDF91CF911F910F9108950F931F93B7
S11306B0CF93DF93C82F80916100823009F484C006
S11306C020F4813009F45CC0E7C0833009F4C1C070
S11306D08F3F09F0E1C003E610E0F801D08141E06A
S11306E061818D2F0E94E10540E0F80162818D2F28
S11306F00E94E1054C2F441F4427441FF8016481E4
S11307008D2F0E94E1054C2F407450E0042E452F9C
S1130710000C441F550B000C441F551FF801658144
S11307208D2F0E94E1054C2F407250E0559547955E
S1130730559547955595479555954795559547959D
S1130740F80166818D2F0E94E105C0714C2F50E0A5
S1130750559547955595479555954795559547957D
S1130760F80167818D2F0E94E10541E0F801638162
S11307708D2F0E94E10581E0809361008FEF91C08D
S113078069E372E082E00E941D098B3F09F086C094
S113079029E332E041E050E060E070E082E00E9452
S11307A00E0869E372E082E00E941D098111F9CF0D
S11307B0E3E6F0E040E0638180810E94E10582E0AD
S11307C0809361008FEF6DC003E610E0F801D081E3
S11307D041E061818D2F0E94E10540E0F8016281D2
S11307E08D2F0E94E1054C2F487050E05595479598
S11307F05595479555954795F80164818D2F0E942D
S1130800E1054C2F447050E0559547955595479513
S1130810F80165818D2F0E94E1054C2F427050E054
S113082055954795F80166818D2F0E94E1054C2F5F
S11308304170F80167818D2F0E94E10541E0F801C4
S113084063818D2F0E94E10583E0809361008FEF27
S113085028C069E372E082E00E941D098B3F01F524
S113086029E332E041E050E060E070E082E00E9481
S11308700E0869E372E082E00E941D098111F9CF3C
S1130880E3E6F0E040E0638180810E94E1058FEFC0
S11308908093610080E005C081E003C08FEF01C058
S11308A08FEFDF91CF911F910F910895BF92CF9257
S11308B0DF92EF92FF920F931F93CF93DF93809178
S11308C060008B3009F4C3C090F4883009F4A1C0EF
S11308D038F4853009F47BC0863009F490C0E9C04F
S11308E0893009F4A0C08A3009F4A7C0E2C08E3070
S11308F009F4CBC038F48C3009F4B3C08D3009F45A
S1130900BAC0D7C08F3009F4CAC08F3F09F0D1C034
S113091082E00E94070703E610E0F801B480C0817A
S113092041E06B2D8C2F0E947805F801C58041E0D1
S11309306C2D8C2F0E947805F801D68041E06D2D36
S11309408C2F0E947805F801E78041E06E2D8C2FF2
S11309500E947805F801F18041E06F2D8C2F0E94F0
S11309607805F801D28141E06D2F8C2F0E94780523
S1130970F801138141E0612F8C2F0E94780540E03B
S11309806B2D8C2F0E94E10540E06C2D8C2F0E9472
S1130990E10540E06D2D8C2F0E94E10540E06E2DB5
S11309A08C2F0E94E10540E06F2D8C2F0E94E10501
S11309B040E06D2F8C2F0E94E10540E0612F8C2FC9
S11309C00E94E10585E0809360008FEF87C069E3B2
S11309D072E082E00E941D09C82F8B3F49F429E38D
S11309E032E04FE050E060E070E082E00E948C086A
S11309F0C11161C086E0809360008FEF6FC083E017
S1130A000E943902811159C088E0809360008FEF01
S1130A1065C083E00E943902811151C089E080934E
S1130A2060008FEF5BC083E00E943902811149C0EE
S1130A308AE0809360008FEF51C082E00E94390207
S1130A40811141C08BE0809360008FEF47C088E242
S1130A500E943902811139C08CE0809360008FEFCD
S1130A603DC08CE00E943902811131C08DE0809339
S1130A7060008FEF33C087E00E943902811129C0E2
S1130A808EE0809360008FEF29C081E00E943902DC
S1130A90811121C08FE0809360008FEF1FC080E838
S1130AA00E943902811119C08FEF8093600080E0A9
S1130AB015C081E013C08FEF11C08FEF0FC08FEF0F
S1130AC00DC08FEF0BC08FEF09C08FEF07C08FEF02
S1130AD005C08FEF03C08FEF01C08FEFDF91CF917F
S1130AE01F910F91FF90EF90DF90CF90BF900895EA
S1130AF0423008F060C0683008F05FC08130E1F037
S1130B0030F0823071F1833009F440C058C02AB308
S1130B1081E090E0062E02C0880F991F0A94E2F744
S1130B2050E002C0440F551F6A95E2F78095822376
S1130B30482B4ABB80E0089527B381E090E0062E5D
S1130B4002C0880F991F0A94E2F750E002C0440FD4
S1130B50551F6A95E2F780958223482B47BB80E0B6
S1130B60089524B381E090E0062E02C0880F991FF7
S1130B700A94E2F750E002C0440F551F6A95E2F769
S1130B8080958223482B44BB80E0089521B381E003
S1130B9090E0062E02C0880F991F0A94E2F750E0F5
S1130BA002C0440F551F6A95E2F780958223482BB3
S1130BB041BB80E0089581E0089581E0089581E0DB
S1130BC00895423008F060C0683008F05FC081309A
S1130BD0E1F030F0823071F1833009F440C058C044
S1130BE02BB381E090E0062E02C0880F991F0A946F
S1130BF0E2F750E002C0440F551F6A95E2F7809572
S1130C008223482B4BBB80E0089528B381E090E019
S1130C10062E02C0880F991F0A94E2F750E002C022
S1130C20440F551F6A95E2F780958223482B48BBF1
S1130C3080E0089525B381E090E0062E02C0880F7D
S1130C40991F0A94E2F750E002C0440F551F6A95B9
S1130C50E2F780958223482B45BB80E0089522B3B8
S1130C6081E090E0062E02C0880F991F0A94E2F7F3
S1130C7050E002C0440F551F6A95E2F78095822325
S1130C80482B42BB80E0089581E0089581E00895F7
S1130C9081E00895823008F04EC090E0FC01EE0F30
S1130CA0FF1F8E0F9F1FFC01E559FF4F8281833088
S1130CB009F128F4813041F0823089F0A2C08430F7
S1130CC021F1853069F19DC080E090E0A0E0BEE3B1
S1130CD0FB0180839183A283B38380E0089580E045
S1130CE090E0A0E8BFE3FB0180839183A283B383F8
S1130CF080E0089580E090E0A0E0B1E4FB0180830F
S1130D009183A283B38380E0089580E090E0A0E023
S1130D10B2E4FB0180839183A283B38380E00895CE
S1130D2080E090E0A0E0B3E4FB0180839183A283A0
S1130D30B38380E00895823009F065C090E0FC013F
S1130D40EE0FFF1F8E0F9F1FFC01E559FF4FE2813D
S1130D508E2F90E0FC013197E730F10508F055C083
S1130D60E65DFF4F0C94F30A80E090E0A0E0BEE360
S1130D70FB0180839183A283B38380E0089580E0A4
S1130D8090E0A0E8BFE3FB0180839183A283B38357
S1130D9080E0089580E090E0A0E8B0E4FB01808367
S1130DA09183A283B38380E0089580E090E0A0E083
S1130DB0B1E4FB0180839183A283B38380E008952F
S1130DC080E090E0A0E8B1E4FB0180839183A283FA
S1130DD0B38380E0089580E090E0A0E0B2E4FB01FA
S1130DE080839183A283B38380E0089580E090E0C0
S1130DF0A0E0B3E4FB0180839183A283B38380E00A
S1130E0008958CEF089580E008958CEF0895813063
S1130E10B1F018F0823071F144C090E0FC01EE0FA3
S1130E20FF1F8E0F9F1FFC01E559FF4F808183BF79
S1130E3089B78C7F9181892B89BF80E0089590E0E8
S1130E40FC01EE0FFF1F8E0F9F1FFC01E559FF4FA2
S1130E5080818EBD89B7282F277E9181892F90E0CC
S1130E60880F991F880F991F880F991F822B89BF9C
S1130E7080E0089590E0FC01EE0FFF1F8E0F9F1F8E
S1130E80FC01E559FF4F808185BD89B7282F2F7359
S1130E90918130E4939FC0011124822B89BF80E0AB
S1130EA008958EEF0895813071F018F0823031F09A
S1130EB01FC0E2E5F0E0A3E5B0E009C0E4E4F0E03F
S1130EC0A5E4B0E004C0ECE4F0E0AEE4B0E071838B
S1130ED060832C9190E0FC01EE0FFF1F8E0F9F1F8B
S1130EE0FC01E559FF4F8281822B8C9380E00895A9
S1130EF08EEF08956115710509F47AC0813041F1CE
S1130F0020F0823009F452C075C090E0FC01EE0F6D
S1130F10FF1F8E0F9F1FFC01E559FF4F8081811138
S1130F2009C008B600FE68C0FB01108298B7916042
S1130F3098BF0895883009F061C008B601FE60C00A
S1130F4081E0FB01808388B7826088BF80E00895D8
S1130F5090E0FC01EE0FFF1F8E0F9F1FFC01E5596F
S1130F60FF4F8081811109C008B602FE4BC0FB010E
S1130F70108298B7946098BF0895883009F044C0EF
S1130F8098B7892F807194FF08C081E0FB018083AA
S1130F9088B7806188BF80E0089593FF37C091E0EF
S1130FA0FB01908398B7986098BF089590E0FC0186
S1130FB0EE0FFF1F8E0F9F1FFC01E559FF4F80812D
S1130FC0811109C008B606FE23C0FB01108298B740
S1130FD0906498BF08958830E9F408B607FE1CC0F1
S1130FE081E0FB01808388B7806888BF80E0089532
S1130FF08FEF08958EEF08958DEF089580E00895A2
S11310008DEF08958DEF089580E008958DEF089594
S11310108DEF089580E008958DEF08958F929F924B
S1131020AF92BF92CF92DF92EF92FF921F93CF9332
S1131030DF9300D000D0CDB7DEB7182F6A017B0153
S1131040833008F054C02115310509F452C030939F
S1131050A9002093A8008091AA0081114CC0BE0170
S11310606F5F7F4F812F0E944A068C3FF1F1898088
S11310709A80AB80BC8020E030E0A901C501B401B6
S11310800E949B09882361F0C701B6010E94410AAE
S1131090A50194010E94A0090E94120A6B017C011F
S11310A0BB27AF2D9E2D8D2D8093AD009093AE0068
S11310B0A093AF00B093B000C092AB00892B8A2BF1
S11310C08B2B49F481E08093AC006C2D70E0812F70
S11310D00E94530705C06FEF70E0812F0E945307F1
S11310E081E08093AA008DEF07C08CEF05C08EEFDE
S11310F003C081E001C081E00F900F900F900F902A
S1131100DF91CF911F91FF90EF90DF90CF90BF9030
S1131110AF909F908F9008958F929F92AF92BF92BD
S1131120DF92EF92FF920F931F93CF93DF9300D040
S113113000D0CDB7DEB7182F042FD52EE62EF72E0C
S1131140833008F065C02115310509F463C030937C
S1131150A9002093A8008091AA0081115DC0BE015E
S11311606F5F7F4F812F0E944A068C3F09F44EC067
S113117089809A80AB80BC8020E030E0A901C50161
S1131180B4010E949B09882381F0602F7D2D8E2D50
S11311909F2D0E94410AA50194010E94A0090E946A
S11311A0120A062FD72EE82EF92EA8EEB3E0202F30
S11311B03D2D4E2D5F2D0E94F90ABB27A92F982F94
S11311C0872F8093AD009093AE00A093AF00B093AF
S11311D0B00028EE029F002D11240093AB00892B50
S11311E08A2B8B2B49F481E08093AC00602F70E054
S11311F0812F0E94530705C06FEF70E0812F0E947A
S1131200530781E08093AA008DEF07C08CEF05C0DF
S11312108EEF03C081E001C081E00F900F900F902A
S11312200F90DF91CF911F910F91FF90EF90DF907E
S1131230BF90AF909F908F9008951F93CF93DF93AB
S11312401F92CDB7DEB79091AA00992309F44AC042
S11312502091A8003091A9002617370709F044C04F
S1131260913009F043C0182FBE016F5F7F4F0E9479
S11312707A07811135C08091AC00813041F410921D
S1131280AA001092AC001092AB0080E030C08091B4
S1131290AD009091AE00A091AF00B091B000019765
S11312A0A109B1098093AD009093AE00A093AF0063
S11312B0B093B000892B8A2B8B2B59F481E0809357
S11312C0AC006091AB0070E0812F0E9453078DEF5A
S11312D00EC06FEF70E0812F0E9453078DEF07C09F
S11312E080E005C08BEF03C081E001C081E00F9076
S11312F0DF91CF911F910895CF93DF9300D0CDB7A5
S1131300DEB70E9456048111FCCF81E40E9456038B
S11313108111FBCF8CE10E9439021A82198205C027
S113132089819A8101969A83898389819A818838EF
S11313309341B4F3EFCF0E947E0A08F481E008954C
S11313400E94B4090C94B90A0E94B20A58F00E948F
S1131350AB0A40F029F45F3F29F00C94A20A511122
S11313600C94ED0A0C94A80A0E94CA0A68F3992303
S1131370B1F3552391F3951B550BBB27AA2762178D
S11313807307840738F09F5F5F4F220F331F441F9A
S1131390AA1FA9F335D00E2E3AF0E0E832D09150CE
S11313A05040E695001CCAF72BD0FE2F29D0660FBB
S11313B0771F881FBB1F261737074807AB07B0E8FE
S11313C009F0BB0B802DBF01FF2793585F4F3AF004
S11313D09E3F510578F00C94A20A0C94ED0A5F3FED
S11313E0E4F3983ED4F3869577956795B795F7958A
S11313F09F5FC9F7880F911D9695879597F9089572
S1131400E1E0660F771F881FBB1F6217730784070D
S1131410BA0720F0621B730B840BBA0BEE1F88F71C
S1131420E09508950E94D20A88F09F5798F0B92F4A
S11314309927B751B0F0E1F0660F771F881F991F05
S11314401AF0BA95C9F714C0B13091F00E94EC0AB1
S1131450B1E008950C94EC0A672F782F8827B85FC1
S113146039F0B93FCCF3869577956795B395D9F75D
S11314703EF490958095709561957F4F8F4F9F4F67
S11314800895E89409C097FB3EF490958095709573
S113149061957F4F8F4F9F4F9923A9F0F92F96E9BC
S11314A0BB279395F695879577956795B795F11131
S11314B0F8CFFAF4BB0F11F460FF1BC06F5F7F4FCE
S11314C08F4F9F4F16C0882311F096E911C07723E0
S11314D021F09EE8872F762F05C0662371F096E8E9
S11314E0862F70E060E02AF09A95660F771F881FB8
S11314F0DAF7880F9695879597F90895990F00085C
S1131500550FAA0BE0E8FEEF16161706E807F907D1
S1131510C0F012161306E407F50798F0621B730B6C
S1131520840B950B39F40A2661F0232B242B252BED
S113153021F408950A2609F4A140A6958FEF811D90
S1131540811D089597F99F6780E870E060E0089531
S11315509FEF80EC089500240A94161617061806C7
S11315600906089500240A941216130614060506A3
S11315700895092E0394000C11F4882352F0BB0F34
S113158040F4BF2B11F460FF04C06F5F7F4F8F4F97
S11315909F4F089557FD9058440F551F59F05F3FD2
S11315A071F04795880F97FB991F61F09F3F79F081
S11315B087950895121613061406551FF2CF469503
S11315C0F1DF08C0161617061806991FF1CF869585
S11315D07105610508940895E894BB276627772769
S11315E0CB0197F90895EE0FFF1F0590F491E02DBC
S11315F009940E94040BA59F900DB49F900DA49F85
S1131600800D911D11240895A29FB001B39FC001C4
S1131610A39F700D811D1124911DB29F700D811D1A
S10D16201124911D0895F894FFCFE2
S113162AFFFFFF0001020307060504000000000093
S107163A00000001A7
S9030000FC
