:100000000C9431000C944E000C944E000C944E0055
:100010000C944E000C944E000C944E000C94AE00C8
:100020000C944E000C944E000C944E000C944E0018
:100030000C944E000C944E000C944E000C944E0008
:100040000C944E000C944E000C944E000C944E00F8
:100050000C944E00750981098D099909A509B1090A
:10006000BD0911241FBECFE5D8E0DEBFCDBF10E033
:10007000A0E6B0E0E2E6F0E202C005900D92AE37F5
:10008000B107D9F720E0AEE7B0E001C01D92AC3B6C
:10009000B207E1F70E94EC0D0C942F100C940000B5
:1000A0000F920FB6F8940F921F9211242F923F9245
:1000B0004F925F926F927F928F929F92AF92BF9278
:1000C000CF92DF92EF92FF920F931F932F933F9364
:1000D0004F935F936F937F938F939F93AF93BF9350
:1000E000CF93DF93EF93FF93A0917E00B0917F00B9
:1000F0000DB60D920EB60D920E94B200882311F03B
:100100000E948102A0917E00B0917F00CD91CDBF71
:10011000DD91DEBFFF91EF91DF91CF91BF91AF9164
:100120009F918F917F916F915F914F913F912F910F
:100130001F910F91FF90EF90DF90CF90BF90AF9005
:100140009F908F907F906F905F904F903F902F90F7
:100150001F900F900FBE0F90089500000E94500056
:1001600018950000CF93DF93CDB7DEB72F970FB66A
:10017000F894DEBF0FBECDBF19828091B1008823F5
:1001800009F0ACC18091A8009091A90001969B83D1
:100190008A838A819B819093A9008093A8008A8199
:1001A0009B81892BD9F48091A4009091A5009D8317
:1001B0008C838091A6009091A7009093A5008093D6
:1001C000A4008C819D819093A7008093A6008091CC
:1001D000AE008F5F8093AE000E94F5028091AF0069
:1001E0009091B0002A813B812817390708F456C145
:1001F0008091A4009091A500FC018081882339F4AE
:100200008FEF9FEF9093B0008093AF0047C1809134
:10021000A4009091A500FC0185819681FC01868156
:1002200097819F838E838E819F81FC018281938140
:10023000998788872A813B8188859985281739077E
:1002400038F4888599859093B0008093AF0026C1DB
:100250008E819F81FC01828593859B878A878E8111
:100260009F81FC01848195812E813F81F901268146
:100270003781FC01358324838E819F81FC01868137
:1002800097812E813F81F90124813581FC013383DF
:1002900022838A859B85FC01218132818E819F8109
:1002A00002962817390751F48E819F81FC0126811F
:1002B00037818A859B85FC01328321838E819F81D2
:1002C000FC01138612868A859B85FC0180812FEFB5
:1002D000280F8A859B85FC0120838E819F81FC01EC
:1002E00084899589892B09F445C08E819F81FC0101
:1002F000848995899D878C878E819F81FC01868565
:1003000097852E813F81F90120893189FC01358350
:1003100024838E819F81FC01808991892E813F8178
:10032000F90126853785FC01338322838C859D85E1
:10033000FC01218132818E819F810C96281739071B
:1003400051F48E819F81FC01208931898C859D85A6
:10035000FC01328321838E819F81FC01158A148ADE
:100360008C859D85FC0180812FEF280F8C859D85D4
:10037000FC0120838E819F81FC0196898091AA00D7
:10038000891730F48E819F81FC0186898093AA00B1
:100390008E819F81FC018689282F30E0C901880F5A
:1003A000991F880F991F880F991F820F931F8F57CE
:1003B0009F4FFC01808191819F878E878E819F81D5
:1003C0002E853F85FC01358324838E859F85FC0126
:1003D000248135818E819F81FC01378326838E8520
:1003E0009F85FC01848195812E813F812E5F3F4F47
:1003F000FC01338322838E819F819C012E5F3F4FBE
:100400008E859F85FC01358324838E819F81FC012D
:100410008689282F30E0C901880F991F880F991FFE
:10042000880F991F820F931F9C0120583F4F8E8188
:100430009F81FC01338722878E819F81FC01868901
:10044000282F30E0C901880F991F880F991F880F46
:10045000991F820F931F80589F4FFC01808141E0BC
:10046000480FC901880F991F880F991F880F991F7E
:10047000820F931F80589F4FFC0140838E819F8184
:10048000FC01268980917E0090917F00FC01868985
:10049000281708F4ADCE81E08983AACE80917E0032
:1004A00090917F00FC018689282F30E0C901880FD8
:1004B000991F880F991F880F991F820F931F8058CB
:1004C0009F4FFC018081823010F081E08983809110
:1004D000AD00882361F081E0898309C08091AB0081
:1004E0009091AC0001969093AC008093AB00898111
:1004F0002F960FB6F894DEBF0FBECDBFDF91CF9120
:100500000895CF93DF9300D01F92CDB7DEB78091CF
:10051000B100882321F081E08093AD005FC010928C
:10052000AD008091AA00898303C0898181508983AD
:100530008981282F30E0C901880F991F880F991FE2
:10054000880F991F820F931F80589F4FFC01808155
:10055000882359F38981282F30E0C901880F991F1A
:10056000880F991F880F991F820F931F80589F4FE4
:100570009B838A838A819B81FC0181819281FC011A
:10058000228133818A819B81FC01328321838A818C
:100590009B81FC01218132818A819B8103962817EE
:1005A000390769F48A819B81FC0181819281FC0178
:1005B000228133818A819B81FC01328321838A815C
:1005C0009B81FC0181819281FC01868197819093BE
:1005D0007F0080937E0089818093AA0000000F90A5
:1005E0000F900F90DF91CF910895CF93DF93CDB708
:1005F000DEB78091A4009091A500FC018081882342
:1006000039F48FEF9FEF9093B0008093AF000EC04E
:100610008091A4009091A500FC0185819681FC0148
:10062000808191819093B0008093AF000000DF91B2
:10063000CF910895CF93DF9300D01F92CDB7DEB74F
:100640008B838FEF898381E08A8380916000882F7C
:1006500090E08330910509F402C18430910544F49F
:100660008130910509F479C0029709F49BC035C126
:100670008430910509F417C18F3F910509F02DC110
:1006800090916E0080916D0040E0692F0E941D08DE
:1006900090916F0080916D0040E0692F0E941D08CD
:1006A0008B81882F90E080719927959587959595F6
:1006B00087959595879595958795282F90917400A6
:1006C00080916D00422F692F0E941D088B81882F19
:1006D00090E0807299279595879595958795959542
:1006E00087959595879595958795282F9091730077
:1006F00080916D00422F692F0E941D088B81882FE9
:1007000090E080749927082E892F000C881F990B80
:10071000000C881F991F282F9091720080916D0006
:10072000422F692F0E941D088B81282F221F22270C
:10073000221F9091710080916D00422F692F0E94BD
:100740001D089091700080916D0041E0692F0E941A
:100750001D0881E080936000C8C06AE173E082E018
:100760000E94780D8B3F09F0BBC02AE133E041E0E5
:1007700050E060E070E082E00E94230C00006AE13B
:1007800073E082E00E94780D8823C9F79091700091
:1007900080916D0040E0692F0E941D0882E08093E7
:1007A00060009EC090916E0080916D0040E0692FC6
:1007B0000E941D0890916F0080916D0040E0692FAC
:1007C0000E941D088B81282F2170909174008091C8
:1007D0006D00422F692F0E941D088B81882F90E0A9
:1007E0008270992795958795282F90917300809115
:1007F0006D00422F692F0E941D088B81882F90E089
:10080000847099279595879595958795282F909130
:10081000720080916D00422F692F0E941D088B810C
:10082000882F90E08870992795958795959587955D
:1008300095958795282F9091710080916D00422F9A
:10084000692F0E941D089091700080916D0041E019
:10085000692F0E941D0883E08093600046C06AE112
:1008600073E082E00E94780D8B3FE1F52AE133E0EE
:1008700041E050E060E070E082E00E94230C000064
:100880006AE173E082E00E94780D8823C9F79091B5
:10089000700080916D0040E0692F0E941D0884E087
:1008A000809360001FC06AE173E082E00E94780DCF
:1008B0008A838A818B3F49F42AE133E042E050E0A9
:1008C00060E070E082E00E94C80C8A81882361F4B5
:1008D0008FEF80936000198207C081E0898305C093
:1008E000000003C0000001C0000089810F900F903C
:1008F0000F90DF91CF910895CF93DF9300D0CDB7C4
:10090000DEB78A838FEF898380916100882F90E022
:100910008230910509F4A1C08330910524F4019738
:1009200009F476C01CC18330910509F4F3C08F3FF0
:10093000910509F014C190916E0080916D0041E025
:10094000692F0E941D0890916F0080916D0040E01A
:10095000692F0E941D088A81282F221F2227221F0B
:100960009091710080916D00422F692F0E941D08A7
:100970008A81882F90E080749927082E892F000C97
:10098000881F990B000C881F991F282F90917200C7
:1009900080916D00422F692F0E941D088A81882F47
:1009A00090E080729927959587959595879595956F
:1009B00087959595879595958795282F90917300A4
:1009C00080916D00422F692F0E941D088A81882F17
:1009D00090E0807199279595879595958795959540
:1009E000879595958795282F9091740080916D003B
:1009F000422F692F0E941D089091700080916D0018
:100A000041E0692F0E941D0881E080936100ADC024
:100A10006CE774E082E00E94780D8B3F09F0A2C081
:100A20002CE734E041E050E060E070E082E00E94BA
:100A3000230C00006CE774E082E00E94780D8823AC
:100A4000C9F79091700080916D0040E0692F0E947D
:100A50001D0882E08093610085C090916E008091B6
:100A60006D0041E0692F0E941D0890916F008091F8
:100A70006D0040E0692F0E941D088A81882F90E058
:100A800088709927959587959595879595958795DC
:100A9000282F9091710080916D00422F692F0E9444
:100AA0001D088A81882F90E08470992795958795F5
:100AB00095958795282F9091720080916D00422F17
:100AC000692F0E941D088A81882F90E082709927E3
:100AD00095958795282F9091730080916D00422FF6
:100AE000692F0E941D088A81282F2170909174001F
:100AF00080916D00422F692F0E941D089091700017
:100B000080916D0041E0692F0E941D0883E0809371
:100B100061002BC06CE774E082E00E94780D8B3F8F
:100B200019F52CE734E041E050E060E070E082E04D
:100B30000E94230C00006CE774E082E00E94780DB4
:100B40008823C9F79091700080916D0040E0692F73
:100B50000E941D088FEF80936100198205C081E01B
:100B6000898303C0000001C0000089810F900F90AD
:100B7000DF91CF910895CF93DF9300D01F92CDB72F
:100B8000DEB78FEF898381E08A838FEF8B8380913B
:100B90006200882F90E08B30910509F4F2C08C3010
:100BA0009105BCF48830910509F4C7C089309105DE
:100BB00044F48530910509F49AC0069709F4B1C050
:100BC00019C18930910509F4C4C00A9709F4CDC050
:100BD00011C18E30910509F4F6C08F30910544F4AF
:100BE0008C30910509F4D9C00D9709F4E1C002C118
:100BF0008F30910509F4F2C08F3F910509F0FAC0DA
:100C000082E00E94D2099091710080916D0041E0D4
:100C1000692F0E9459079091720080916D0041E008
:100C2000692F0E9459079091730080916D0041E0F7
:100C3000692F0E9459079091740080916D0041E0E6
:100C4000692F0E94590790916E0080916D0041E0DC
:100C5000692F0E94590790916F0080916D0041E0CB
:100C6000692F0E9459079091700080916D0041E0BA
:100C7000692F0E9459079091710080916D0040E0AA
:100C8000692F0E941D089091720080916D0040E0D4
:100C9000692F0E941D089091730080916D0040E0C3
:100CA000692F0E941D089091740080916D0040E0B2
:100CB000692F0E941D0890916E0080916D0040E0A8
:100CC000692F0E941D0890916F0080916D0040E097
:100CD000692F0E941D089091700080916D0040E086
:100CE000692F0E941D0885E08093620099C06AE127
:100CF00073E082E00E94780D8A838A818B3F49F4F9
:100D00002AE133E04FE050E060E070E082E00E94D2
:100D1000C80C8A81882309F070C086E08093620045
:100D20006CC083E00E941A038B838B81882309F0B7
:100D300066C088E08093620062C083E00E941A036C
:100D40008B838B81882309F05CC089E080936200EB
:100D500058C083E00E941A038B838B81882309F09B
:100D600052C08AE0809362004EC082E00E941A0363
:100D70008B838B81882309F048C08BE080936200CD
:100D800044C088E20E941A038B838B81882309F078
:100D90003EC08CE0809362003AC08CE00E941A034F
:100DA0008B838B818823A9F58DE08093620031C00D
:100DB00086E00E941A038B838B81882361F58EE085
:100DC0008093620028C081E00E941A038B838B818C
:100DD000882319F58FE0809362001FC080E80E948D
:100DE0001A038B838B818823D1F48FEF8093620069
:100DF000198215C081E0898313C0000011C0000072
:100E00000FC000000DC000000BC0000009C00000B2
:100E100007C0000005C0000003C0000001C00000C2
:100E200089810F900F900F90DF91CF910895CF930C
:100E3000DF9300D000D0CDB7DEB79C838B838FEFDC
:100E400089838FEF8A838B819C81892B41F18091EB
:100E5000B200882F90E02B813C81820F931FFC0110
:100E600080818823C1F082E089838091B200882F3D
:100E700090E02B813C81820F931FFC0180810E94B6
:100E80007C048A838A81882361F48091B2008F5F19
:100E90008093B20006C01092B200198202C081E0B5
:100EA000898389810F900F900F900F90DF91CF91E0
:100EB0000895CF93DF9300D000D0CDB7DEB78A83FB
:100EC0006B834C8319828C81882331F08C81813033
:100ED00019F081E08983A9C08B81883018F081E006
:100EE0008983A3C08A81882F90E08130910589F1A0
:100EF000823091051CF4892B49F094C08230910511
:100F000009F44AC0039709F46AC08CC08AE390E0F0
:100F10002AE330E0F9012081622F2B81422F50E03B
:100F200021E030E002C0220F331F4A95E2F72095FE
:100F300062232C81222F30E04B81442F50E002C0ED
:100F4000220F331F4A95E2F7262BFC0120831982DA
:100F50006CC087E390E027E330E0F9012081622F45
:100F60002B81422F50E021E030E002C0220F331FDE
:100F70004A95E2F7209562232C81222F30E04B81A5
:100F8000442F50E002C0220F331F4A95E2F7262B70
:100F9000FC012083198249C084E390E024E330E01F
:100FA000F9012081622F2B81422F50E021E030E0B7
:100FB00002C0220F331F4A95E2F7209562232C814D
:100FC000222F30E04B81442F50E002C0220F331F0C
:100FD0004A95E2F7262BFC012083198226C081E383
:100FE00090E021E330E0F9012081622F2B81422F34
:100FF00050E021E030E002C0220F331F4A95E2F7B3
:10100000209562232C81222F30E04B81442F50E029
:1010100002C0220F331F4A95E2F7262BFC012083E2
:10102000198203C081E08983000089810F900F90AD
:101030000F900F90DF91CF910895CF93DF9300D061
:1010400000D0CDB7DEB78A836B834C8319828C8145
:10105000882331F08C81813019F081E08983A9C027
:101060008B81883018F081E08983A3C08A81882F22
:1010700090E08130910589F1823091051CF4892B33
:1010800049F094C08230910509F44AC0039709F4ED
:101090006AC08CC08BE390E02BE330E0F901208143
:1010A000622F2B81422F50E021E030E002C0220F5E
:1010B000331F4A95E2F7209562232C81222F30E0DE
:1010C0004B81442F50E002C0220F331F4A95E2F7B4
:1010D000262BFC01208319826CC088E390E028E372
:1010E00030E0F9012081622F2B81422F50E021E076
:1010F00030E002C0220F331F4A95E2F720956223A9
:101100002C81222F30E04B81442F50E002C0220F6F
:10111000331F4A95E2F7262BFC012083198249C030
:1011200085E390E025E330E0F9012081622F2B81F7
:10113000422F50E021E030E002C0220F331F4A95D9
:10114000E2F7209562232C81222F30E04B81442F3F
:1011500050E002C0220F331F4A95E2F7262BFC0114
:101160002083198226C082E390E022E330E0F90177
:101170002081622F2B81422F50E021E030E002C01D
:10118000220F331F4A95E2F7209562232C81222FEC
:1011900030E04B81442F50E002C0220F331F4A95AC
:1011A000E2F7262BFC012083198203C081E08983AA
:1011B000000089810F900F900F900F90DF91CF91D9
:1011C0000895CF93DF9300D01F92CDB7DEB7898308
:1011D0007B836A838981882321F08981813009F0AA
:1011E0005FC08981282F30E0C901880F991F820FC5
:1011F000931F89589F4FFC018081882F90E0833096
:10120000910539F18430910534F48130910549F02C
:10121000029799F042C08430910539F1059789F120
:101220003CC02A813B8180E090E0A0E8BDE3F90169
:1012300080839183A283B38332C02A813B8180E083
:1012400090E0A0E0BFE3F90180839183A283B383A0
:1012500026C02A813B8180E090E0A0E8B0E4F9015B
:1012600080839183A283B3831AC02A813B8180E06B
:1012700090E0A0E8B1E4F90180839183A283B38375
:101280000EC02A813B8180E090E0A0E8B2E4F90141
:1012900080839183A283B38302C08CEF7DC07BC027
:1012A0008981823009F077C08981282F30E0C90117
:1012B000880F991F820F931F89589F4FFC018081CF
:1012C000882F90E0092E000CAA0BBB0B41E050E0E8
:1012D00026E030E0841B950B2817390708F459C025
:1012E000865D9F4FFC010C940F102A813B8180E0AA
:1012F00090E0A0E8BDE3F90180839183A283B383EA
:101300004AC02A813B8180E090E0A0E0BFE3F90180
:1013100080839183A283B3833EC02A813B8180E096
:1013200090E0A0E0B0E4F90180839183A283B383CD
:1013300032C02A813B8180E090E0A0E8B0E4F9016E
:1013400080839183A283B38326C02A813B8180E07E
:1013500090E0A0E0B1E4F90180839183A283B3839C
:101360001AC02A813B8180E090E0A0E8B1E4F90155
:1013700080839183A283B3830EC02A813B8180E066
:1013800090E0A0E8B2E4F90180839183A283B38363
:1013900002C08CEF01C080E00F900F900F90DF91A2
:1013A000CF910895CF93DF931F92CDB7DEB7898396
:1013B0008981882F90E081309105B1F182309105CB
:1013C00009F46AC0892B09F0A2C043E550E0898185
:1013D000282F30E0C901880F991F820F931F8B5867
:1013E0009F4FFC018081FA01808389E590E029E527
:1013F00030E0F90120812C7FFC01208349E550E099
:1014000089E590E0FC0160818981282F30E0C901E5
:10141000880F991F820F931F8A589F4FFC0180816C
:10142000862BFA01808375C04EE450E08981282F15
:1014300030E0C901880F991F820F931F8B589F4F6F
:10144000FC018081FA01808389E590E029E530E0A4
:10145000F9012081277EFC01208349E550E089E5E0
:1014600090E0FC018081682F8981282F30E0C9013C
:10147000880F991F820F931F8A589F4FFC0180810C
:10148000882F90E0880F991F880F991F880F991F48
:10149000862BFA0180833DC045E450E08981282FE6
:1014A00030E0C901880F991F820F931F8B589F4FFF
:1014B000FC018081FA01808389E590E029E530E034
:1014C000F90120812F73FC01208349E550E089E573
:1014D00090E0FC018081682F8981282F30E0C901CC
:1014E000880F991F820F931F8A589F4FFC0180819C
:1014F000882F90E000249695879507949695879578
:101500000794982F802D862BFA01808302C08EEFDE
:1015100001C080E00F90DF91CF910895CF93DF93CA
:10152000CDB7DEB727970FB6F894DEBF0FBECDBF9D
:101530008D837F836E831A8219821C821B828D8128
:10154000882F90E08130910571F082309105A1F0F3
:10155000892BD9F483E590E09A83898382E590E032
:101560009C838B8314C08EE490E09A8389838CE4FF
:1015700090E09C838B830BC085E490E09A83898301
:1015800084E490E09C838B8302C08EEF1EC08B812D
:101590009C812E813F81FC013183208389819A8146
:1015A000FC0140818D81282F30E0C901880F991FEF
:1015B000820F931F89589F4FFC018081242F282B75
:1015C00089819A81FC01208380E027960FB6F894E8
:1015D000DEBF0FBECDBFDF91CF910895CF93DF93D4
:1015E00000D01F92CDB7DEB789837B836A838A815F
:1015F0009B81892B11F48FEF20C18981882F90E086
:101600008130910509F459C08230910509F4C0C0B8
:10161000892B09F00AC18981282F30E0C901880F80
:10162000991F820F931F8B589F4FFC018081882345
:10163000D1F488E590E0FC018081882F90E08170F2
:101640009927892B71F08A819B81FC01108288E5A2
:1016500090E028E530E0F90120812160FC01208341
:10166000E6C08DEFEAC08981282F30E0C901880FDC
:10167000991F820F931F8B589F4FFC0180818830E8
:1016800009F0D5C088E590E0FC018081882F90E0CA
:1016900082709927892B79F08A819B8121E0FC0156
:1016A000208388E590E028E530E0F9012081226080
:1016B000FC012083BCC08DEFC0C08981282F30E0A1
:1016C000C901880F991F820F931F8B589F4FFC01F0
:1016D00080818823D1F488E590E0FC018081882F07
:1016E00090E084709927892B71F08A819B81FC019D
:1016F000108288E590E028E530E0F901208124603F
:10170000FC01208396C08DEF98C08981282F30E09E
:10171000C901880F991F820F931F8B589F4FFC019F
:101720008081883009F085C088E590E0FC018081E7
:10173000882F90E080719927892B79F08A819B818D
:1017400021E0FC01208388E590E028E530E0F90104
:1017500020812061FC0120836CC088E590E0FC01C1
:101760008081882F90E088709927892B79F08A8171
:101770009B8121E0FC01208388E590E028E530E0B2
:10178000F90120812860FC01208353C08DEF55C0F2
:101790008981282F30E0C901880F991F820F931F7C
:1017A0008B589F4FFC0180818823D1F488E590E01D
:1017B000FC018081882F90E080749927892B71F03B
:1017C0008A819B81FC01108288E590E028E530E069
:1017D000F90120812064FC0120832DC08DEF2DC0F4
:1017E0008981282F30E0C901880F991F820F931F2C
:1017F0008B589F4FFC0180818830E9F488E590E0A8
:10180000FC01808188237CF48A819B8121E0FC019A
:10181000208388E590E028E530E0F9012081206808
:10182000FC01208308C08DEF08C08EEF06C00000C9
:1018300003C0000001C0000080E00F900F900F90E7
:10184000DF91CF910895EF92FF920F931F93CF9363
:10185000DF93CDB7DEB72C970FB6F894DEBF0FBE7F
:10186000CDBF8E834F83588769877A873C872B87C4
:101870008E81833010F08EEF7EC08B859C85892B06
:1018800011F481E078C08B859C859093BB00809398
:10189000BA008091B900882309F06CC0CE0102968D
:1018A000BC018E810E94E108898389818C3F11F4FB
:1018B0008CEF61C08A819B81AC81BD8120E030E0EA
:1018C000A901BC01CD010E94B70E8823F1F06F8100
:1018D000788589859A850E945D0F7B018C018A81BC
:1018E0009B81AC81BD819C01AD01C801B7010E9403
:1018F000BC0EDC01CB01BC01CD010E942E0FDC012E
:10190000CB018F839887A987BA878F819885A9850E
:10191000BA85892F9A2FAB2FBB278093B300909362
:10192000B400A093B500B093B6008F818093B80047
:101930008091B3009091B400A091B500B091B60031
:10194000892B8A2B8B2B61F481E08093B7008091E7
:10195000B800882F90E0BC018E810E948E0A05C0DD
:101960006FEF70E08E810E948E0A81E08093B90053
:101970008DEF01C081E02C960FB6F894DEBF0FBE4C
:10198000CDBFDF91CF911F910F91FF90EF90089500
:10199000EF92FF920F931F93CF93DF93CDB7DEB7F4
:1019A0002C970FB6F894DEBF0FBECDBF8E834F834A
:1019B000588769877A873C872B878E81833010F020
:1019C0008EEF89C08B859C85892B11F481E083C0C3
:1019D0008B859C859093BB008093BA008091B90061
:1019E000882309F077C0CE010296BC018E810E9447
:1019F000E108898389818C3F11F48CEF6CC08A8166
:101A00009B81AC81BD8120E030E0A901BC01CD010A
:101A10000E94B70E8823F1F06F81788589859A85B9
:101A20000E945D0F7B018C018A819B81AC81BD810D
:101A30009C01AD01C801B7010E94BC0EDC01CB01C5
:101A4000BC01CD010E942E0FDC01CB018F83988752
:101A5000A987BA872F81388549855A8588EE93E012
:101A6000DC010E941510DC01CB01892F9A2FAB2FCE
:101A7000BB278093B3009093B400A093B500B093BC
:101A8000B6009F8188EE989F802D11248093B80026
:101A90008091B3009091B400A091B500B091B600D0
:101AA000892B8A2B8B2B61F481E08093B700809186
:101AB000B800882F90E0BC018E810E948E0A05C07C
:101AC0006FEF70E08E810E948E0A81E08093B900F2
:101AD0008DEF01C081E02C960FB6F894DEBF0FBEEB
:101AE000CDBFDF91CF911F910F91FF90EF9008959F
:101AF000CF93DF9300D000D01F92CDB7DEB78B839A
:101B00007D836C838091B900882311F48BEF5CC0D6
:101B10008091BA009091BB002C813D812817390734
:101B200011F081E051C08091B900813009F049C0C5
:101B3000CE010296BC018B810E94EE0A89838981C5
:101B4000882309F040C08091B700813041F41092A1
:101B5000B9001092B7001092B80080E035C08091B3
:101B6000B3009091B400A091B500B091B600019778
:101B7000A109B1098093B3009093B400A093B5007C
:101B8000B093B6008091B3009091B400A091B500DD
:101B9000B091B600892B8A2B8B2B61F481E0809366
:101BA000B7008091B800882F90E0BC018B810E9423
:101BB0008E0A05C06FEF70E08B810E948E0A8DEF58
:101BC00003C081E001C080E00F900F900F900F9054
:101BD0000F90DF91CF910895CF93DF93CDB7DEB70C
:101BE0002F970FB6F894DEBF0FBECDBF84E08D8374
:101BF00089E08E8380EC8F8300000E94BB058823E0
:101C0000E1F7000087E80E941A038823D9F7000053
:101C100083E690E00E9417078823D1F700008F81A8
:101C20000E941A038823D9F7198209C000008AE2AA
:101C30000E947C048823D9F789818F5F89839981E9
:101C40008D81981798F39D818E81292F281B822FD3
:101C5000805F8A831B8228C0000088E10E941A03EB
:101C60008823D9F700008AE20E947C048823D9F7F0
:101C7000188619861A861B860BC088859985AA85C1
:101C8000BB850196A11DB11D88879987AA87BB874F
:101C900088859985AA85BB858035934CA105B105BA
:101CA00060F38B818F5F8B838B81282F30E08E8157
:101CB000882F90E040E150E0BA01681B790BCB011E
:101CC000281739074CF21C823AC000008CE10E94B0
:101CD0001A038823D9F700008A81806C0E941A03B6
:101CE0008823D1F7000080E20E947C048823D9F782
:101CF00000008A81806C81500E941A038823C9F7F2
:101D00001C861D861E861F860BC08C859D85AE8514
:101D1000BF850196A11DB11D8C879D87AE87BF87AA
:101D20008C859D85AE85BF85803D9740A105B10519
:101D300060F38A8181508A838C818F5F8C838C8150
:101D4000282F30E08E81882F90E040E150E0BA01EA
:101D5000681B790BCB01281739070CF4B6CF9D818E
:101D60008E81792F781B872F805F8A8373CF0E94A3
:101D70009A0F08F481E008950E94D00E0C94D50FBC
:101D80000E94CE0F58F00E94C70F40F029F45F3F29
:101D900029F00C94BE0F51110C9409100C94C40F2F
:101DA0000E94E60F68F39923B1F3552391F3951B35
:101DB000550BBB27AA2762177307840738F09F5F6C
:101DC0005F4F220F331F441FAA1FA9F335D00E2ED9
:101DD0003AF0E0E832D091505040E695001CCAF746
:101DE0002BD0FE2F29D0660F771F881FBB1F261709
:101DF00037074807AB07B0E809F0BB0B802DBF01E0
:101E0000FF2793585F4F3AF09E3F510578F00C94AE
:101E1000BE0F0C9409105F3FE4F3983ED4F386950F
:101E200077956795B795F7959F5FC9F7880F911DCF
:101E30009695879597F90895E1E0660F771F881FBB
:101E4000BB1F621773078407BA0720F0621B730B6E
:101E5000840BBA0BEE1F88F7E09508950E94EE0FF1
:101E600088F09F5798F0B92F9927B751B0F0E1F05B
:101E7000660F771F881F991F1AF0BA95C9F714C00B
:101E8000B13091F00E940810B1E008950C94081050
:101E9000672F782F8827B85F39F0B93FCCF3869544
:101EA00077956795B395D9F73EF4909580957095A1
:101EB00061957F4F8F4F9F4F0895E89409C097FB1E
:101EC0003EF490958095709561957F4F8F4F9F4F11
:101ED0009923A9F0F92F96E9BB279395F695879555
:101EE00077956795B795F111F8CFFAF4BB0F11F418
:101EF00060FF1BC06F5F7F4F8F4F9F4F16C08823BF
:101F000011F096E911C0772321F09EE8872F762FF4
:101F100005C0662371F096E8862F70E060E02AF035
:101F20009A95660F771F881FDAF7880F9695879521
:101F300097F90895990F0008550FAA0BE0E8FEEFF6
:101F400016161706E807F907C0F012161306E4077D
:101F5000F50798F0621B730B840B950B39F40A2676
:101F600061F0232B242B252B21F408950A2609F454
:101F7000A140A6958FEF811D811D089597F99F6758
:101F800080E870E060E008959FEF80EC0895002401
:101F90000A941616170618060906089500240A94CE
:101FA00012161306140605060895092E0394000C54
:101FB00011F4882352F0BB0F40F4BF2B11F460FFE3
:101FC00004C06F5F7F4F8F4F9F4F089557FD90580C
:101FD000440F551F59F05F3F71F04795880F97FBED
:101FE000991F61F09F3F79F08795089512161306A7
:101FF0001406551FF2CF4695F1DF08C016161706D6
:102000001806991FF1CF869571056105089408950A
:10201000E894BB2766277727CB0197F90895EE0F41
:10202000FF1F0590F491E02D09940E942010A59FB8
:10203000900DB49F900DA49F800D911D11240895C3
:10204000A29FB001B39FC001A39F700D811D1124F9
:10205000911DB29F700D811D1124911D0895F8945A
:02206000FFCFB0
:10206200FFFFFF41686D65644164656C0000010219
:0E207200030706050400000000000000000146
:00000001FF
