:100000000C942A000C9447000C9447000C94470071
:100010000C9447000C9447000C9447000C94A500E6
:100020000C9447000C9447000C9447000C94470034
:100030000C9447000C9447000C9447000C94470024
:100040000C9447000C9447000C9447000C94470014
:100050000C94470011241FBECFE5D8E0DEBFCDBF12
:1000600011E0A0E6B0E0E2E7F1E102C005900D92F8
:10007000A036B107D9F721E0A0E6B1E001C01D929A
:10008000A639B207E1F70E948B080C94B7080C94CC
:1000900000000F920FB6F8940F921F9211242F9226
:1000A0003F924F925F926F927F928F929F92AF9208
:1000B000BF92CF92DF92EF92FF920F931F932F93F5
:1000C0003F934F935F936F937F938F939F93AF93E0
:1000D000BF93CF93DF93EF93FF93A0919201B091E1
:1000E00093010DB60D920EB60D920E94C4008111BF
:1000F0000E94DE01A0919201B0919301CD91CDBFFC
:10010000DD91DEBFFF91EF91DF91CF91BF91AF9174
:100110009F918F917F916F915F914F913F912F911F
:100120001F910F91FF90EF90DF90CF90BF90AF9015
:100130009F908F907F906F905F904F903F902F9007
:100140001F900F900FBE0F9008950E9449001895C0
:10015000E0916C01F0916D018081811107C08FEFFA
:100160009FEF90936201809361010895E0916C018B
:10017000F0916D010580F681E02D80819181909351
:1001800062018093610108950F931F93CF93DF93D2
:1001900080916001811101C1C0916801D091690114
:1001A0008E010F5F1F4F10936901009368010115C5
:1001B0001105B9F480916C0190916D0120916A0153
:1001C00030916B0130936D0120936C0190936B0122
:1001D00080936A01809163018F5F809363010E9425
:1001E000A80080916101909162010817190720F41D
:1001F00080E0B8C081E001C080E0E0916C01F09146
:100200006D019081911107C02FEF3FEF3093620194
:1002100020936101A7C0E0916C01F0916D01058010
:10022000F681E02D0680F781E02D228133810217CF
:10023000130728F4309362012093610193C0A285D3
:10024000B3852481358146815781E9015D834C83E3
:100250002681378144815581E9015B834A83119668
:100260002D913C911297AF014E5F5F4F24173507D8
:1002700031F42681378112963C932E931197138681
:1002800012869C9191509C93A489B589109719F17D
:100290002685378560897189E9017D836C83208992
:1002A000318966857785E9017B836A8311966D9133
:1002B0007C9112979F01245F3F4F6217730731F4BF
:1002C0002089318912963C932E931197158A148AAE
:1002D0009C9191509C93268990916701921710F4FC
:1002E0002093670130E0D901AA0FBB1FAA0FBB1FE3
:1002F000AA0FBB1F2A0F3B1FD901A259BE4F11964F
:100300000D90BC91A02DB583A48314962D913C91A2
:1003100015973783268314962D913C911597E90103
:100320005B834A8315965C934E931497A689B0E03D
:100330009D01220F331F220F331F220F331FA20FE5
:10034000B31FA259BE4FB387A2879C919F5F9C9316
:100350002689E0919201F09193019689291708F07E
:1003600049CF4BCFE0919201F0919301268930E083
:10037000F901EE0FFF1FEE0FFF1FEE0FFF1F2E0FF5
:100380003F1FF901E259FE4F9081923008F081E061
:100390009091640191110CC00CC080916501909105
:1003A00066010196909366018093650180E001C02B
:1003B00081E0DF91CF911F910F91089580916001AD
:1003C000882321F081E080936401089510926401F4
:1003D0002091670101C02150822F90E0FC01EE0FB7
:1003E000FF1FEE0FFF1FEE0FFF1FE80FF91FE2596F
:1003F000FE4F3081332379F3AC01440F551F440F76
:10040000551F440F551F480F591FDF010180F2810E
:10041000E02D0280F381E02D1296FC93EE9311976C
:100420004F585E4FE417F50729F442815381FD01CF
:1004300052834183FC01EE0FFF1FEE0FFF1FEE0FF3
:10044000FF1F8E0F9F1FFC01E259FE4F0180F281BA
:10045000E02D868197819093930180939201209360
:1004600067010895FC01DB0111961C921E9209C0E0
:100470002D913C9111972F5F3F4F11963C932E93F6
:10048000319680818111F4CF0895EF92FF920F93FE
:100490001F93CF93DF93CDB7DEB7C750D1400FB6D0
:1004A000F894DEBF0FBECDBF7C018B01FE013196FB
:1004B0008FEFDF011D928A95E9F7C050DF4F188258
:1004C000C050D140CD5FDE4F19821882C350D14059
:1004D000CB5FDE4F1882C550D140BE016D5F7E4FAD
:1004E000C7010E943202CA5FDE4F1882C650D14057
:1004F000C95FDE4F1882C750D140C95FDE4F1882F6
:10050000C750D14041C1CA5FDE4F9881C650D1402B
:10051000C95FDE4F8881C750D140F701E80FF11D58
:100520008081881F8827881FE1E0F0E0EC0FFD1F25
:10053000E90FF11D8083CA5FDE4F8881C650D1402C
:100540008F5FCA5FDE4F8883C650D140CA5FDE4FDF
:100550002881C650D140C95FDE4F8881C750D14045
:10056000F701E80FF11D8081807490E0082E892F3B
:10057000000C881F990B000C881F991FE1E0F0E028
:10058000EC0FFD1FE20FF11D8083CA5FDE4F8881F3
:10059000C650D1408F5FCA5FDE4F8883C650D140BE
:1005A000CA5FDE4F2881C650D140C95FDE4F8881C7
:1005B000C750D140F701E80FF11D8081807290E0B3
:1005C0009595879595958795959587959595879513
:1005D00095958795E1E0F0E0EC0FFD1FE20FF11D2E
:1005E0008083CA5FDE4F8881C650D1408F5FCA5F6B
:1005F000DE4F8883C650D140CA5FDE4F2881C65087
:10060000D140C95FDE4F8881C750D140F701E80F64
:10061000F11D8081807190E09595879595958795DE
:100620009595879595958795E1E0F0E0EC0FFD1F96
:10063000E20FF11D8083CA5FDE4F8881C650D14032
:100640008F5FCA5FDE4F8883C650D140CA5FDE4FDE
:100650002881C650D140C95FDE4F8881C750D14044
:10066000F701E80FF11D8081887090E095958795DE
:100670009595879595958795E1E0F0E0EC0FFD1F46
:10068000E20FF11D8083CA5FDE4F8881C650D140E2
:100690008F5FCA5FDE4F8883C650D140CA5FDE4F8E
:1006A0002881C650D140C95FDE4F8881C750D140F4
:1006B000F701E80FF11D8081847090E09595879592
:1006C00095958795E1E0F0E0EC0FFD1FE20FF11D3D
:1006D0008083CA5FDE4F8881C650D1408F5FCA5F7A
:1006E000DE4F8883C650D140CA5FDE4F2881C65096
:1006F000D140C95FDE4F8881C750D140F701E80F74
:10070000F11D8081827090E095958795E1E0F0E0A1
:10071000EC0FFD1FE20FF11D8083CA5FDE4F888161
:10072000C650D1408F5FCA5FDE4F8883C650D1402C
:10073000CA5FDE4F9881C650D140C95FDE4F8881C5
:10074000C750D140F701E80FF11D80818170E1E0D1
:10075000F0E0EC0FFD1FE90FF11D8083CA5FDE4F53
:100760008881C650D1408F5FCA5FDE4F8883C650F4
:10077000D140C95FDE4F8881C750D1408F5FC95FCC
:10078000DE4F8883C750D140C95FDE4F8881C75094
:10079000D14090E0CD5FDE4F28813981C350D140F8
:1007A0008217930708F4AFCECA5FDE4F8881C65028
:1007B000D140815FCB5FDE4F8883C550D140CA5F97
:1007C000DE4F1882C650D1400BC0CA5FDE4F888111
:1007D000C650D1408F5FCA5FDE4F8883C650D1407C
:1007E000CA5FDE4F8881C650D140E1E0F0E0EC0FF7
:1007F000FD1FE80FF11D8081813039F7CA5FDE4FA0
:100800008881C650D1408F5FCA5FDE4F8883C65053
:10081000D14060E041C0862F90E04FE050E0481B9F
:10082000590B21E030E0042E02C0220F331F0A943E
:10083000E2F720953095CF5FDE4FE881F981C15016
:10084000D1402E233F23CF5FDE4F39832883C15011
:10085000D140CA5FDE4F2881C650D140820F911D22
:10086000E1E0F0E0EC0FFD1FE80FF91F808190E060
:1008700002C0880F991F4A95E2F7CF5FDE4F2881AB
:100880003981C150D140822B932BCF5FDE4F9983AA
:100890008883C150D1406F5F603108F4BCCFDDC0A8
:1008A000CF5FDE4F88819981C150D140B5E08B2761
:1008B0009058CF5FDE4F99838883C150D140CF5F7E
:1008C000DE4F88819981C150D14099230CF04CC0F2
:1008D00090C0CA5FDE4F2881C650D14030E0CB5F68
:1008E000DE4F8881C550D14090E00F972817390717
:1008F0003CF081E0C050DF4F8883C050D1403DC004
:10090000CF5FDE4F88819981C150D140880F991FF8
:10091000CF5FDE4F99838883C150D140CA5FDE4FDD
:10092000E881C650D140F0E0709681E090E08C0FF5
:100930009D1FE80FF91F2081CF5FDE4F88819981CD
:10094000C150D140822BCF5FDE4F99838883C15045
:10095000D140CA5FDE4F8881C650D1408F5FCA5FE9
:10096000DE4F8883C650D140CF5FDE4F88819981AA
:10097000C150D14099230CF0ACCFC050DF4F8881DB
:10098000C050D14081117AC0CF5FDE4F88819981FC
:10099000C150D140880F991FCF5FDE4F9983888364
:1009A000C150D140CA5FDE4FE881C650D140F0E06F
:1009B0007096A1E0B0E0AC0FBD1FEA0FFB1F2081D5
:1009C000CF5FDE4F88819981C150D140822BCF5FAC
:1009D000DE4F99838883C150D140CA5FDE4F888142
:1009E000C650D1408F5FCA5FDE4F8883C650D1406A
:1009F00034C0CF5FDE4F88819981C150D140880FCC
:100A0000991FCF5FDE4F99838883C150D140CA5F61
:100A1000DE4FE881C650D140F0E0709681E090E072
:100A20008C0F9D1FE80FF91F2081CF5FDE4F88815B
:100A30009981C150D140822BCF5FDE4F998388834B
:100A4000C150D140CA5FDE4F8881C650D1408F5F10
:100A5000CA5FDE4F8883C650D140CA5FDE4F28810F
:100A6000C650D14030E0CB5FDE4F8881C550D140C9
:100A700090E00F97821793070CF012CFCF5FDE4FF5
:100A800088819981C150D140D8018D939C93CD5FCD
:100A9000DE4F88819981C350D140F701E80FF91FDB
:100AA000CF5FDE4F28813981C150D1403083FC01B6
:100AB0003196EE0DFF1DCF5FDE4F28813981C15089
:100AC000D14020830296F701E80FF91F108280E0E1
:100AD000C95FDE4F0FB6F894DEBF0FBECDBFDF910A
:100AE000CF911F910F91FF90EF900895EF92FF9299
:100AF0000F931F93CF93DF93CDB7DEB7C750D1408D
:100B00000FB6F894DEBF0FBECDBF7C018B01FE0196
:100B100031968FEFDF011D928A95E9F7C050DF4FC4
:100B20001882C050D140CD5FDE4F19821882C35069
:100B3000D140CB5FDE4F1882C550D140BE016D5F02
:100B40007E4FC7010E943202CA5FDE4F1882C65034
:100B5000D140C95FDE4F1882C750D14041C1CA5F42
:100B6000DE4F9881C650D140C95FDE4F8881C750A3
:100B7000D140F701E80FF11D8081881F8827881F69
:100B8000E1E0F0E0EC0FFD1FE90FF11D8083CA5F8B
:100B9000DE4F8881C650D1408F5FCA5FDE4F8883A9
:100BA000C650D140CA5FDE4F2881C650D140C95FD0
:100BB000DE4F8881C750D140F701E80FF11D8081D9
:100BC000807490E0082E892F000C881F990B000C70
:100BD000881F991FE1E0F0E0EC0FFD1FE20FF11D0F
:100BE0008083CA5FDE4F8881C650D1408F5FCA5F65
:100BF000DE4F8883C650D140CA5FDE4F2881C65081
:100C0000D140C95FDE4F8881C750D140F701E80F5E
:100C1000F11D8081807290E09595879595958795D7
:100C2000959587959595879595958795E1E0F0E061
:100C3000EC0FFD1FE20FF11D8083CA5FDE4F88813C
:100C4000C650D1408F5FCA5FDE4F8883C650D14007
:100C5000CA5FDE4F2881C650D140C95FDE4F888110
:100C6000C750D140F701E80FF11D8081807190E0FD
:100C7000959587959595879595958795959587955C
:100C8000E1E0F0E0EC0FFD1FE20FF11D8083CA5F91
:100C9000DE4F8881C650D1408F5FCA5FDE4F8883A8
:100CA000C650D140CA5FDE4F2881C650D140C95FCF
:100CB000DE4F8881C750D140F701E80FF11D8081D8
:100CC000887090E0959587959595879595958795EA
:100CD000E1E0F0E0EC0FFD1FE20FF11D8083CA5F41
:100CE000DE4F8881C650D1408F5FCA5FDE4F888358
:100CF000C650D140CA5FDE4F2881C650D140C95F7F
:100D0000DE4F8881C750D140F701E80FF11D808187
:100D1000847090E09595879595958795E1E0F0E052
:100D2000EC0FFD1FE20FF11D8083CA5FDE4F88814B
:100D3000C650D1408F5FCA5FDE4F8883C650D14016
:100D4000CA5FDE4F2881C650D140C95FDE4F88811F
:100D5000C750D140F701E80FF11D8081827090E00B
:100D600095958795E1E0F0E0EC0FFD1FE20FF11D96
:100D70008083CA5FDE4F8881C650D1408F5FCA5FD3
:100D8000DE4F8883C650D140CA5FDE4F9881C6507F
:100D9000D140C95FDE4F8881C750D140F701E80FCD
:100DA000F11D80818170E1E0F0E0EC0FFD1FE90FA3
:100DB000F11D8083CA5FDE4F8881C650D1408F5FAE
:100DC000CA5FDE4F8883C650D140C95FDE4F88813D
:100DD000C750D1408F5FC95FDE4F8883C750D14075
:100DE000C95FDE4F8881C750D14090E0CD5FDE4FB4
:100DF00028813981C350D1408217930708F4AFCEC0
:100E0000CA5FDE4F8881C650D140CB5FDE4F8883FA
:100E1000C550D140CA5FDE4F1882C650D1400BC0CA
:100E2000CA5FDE4F8881C650D1408F5FCA5FDE4FF8
:100E30008883C650D140CA5FDE4F8881C650D140FA
:100E4000E1E0F0E0EC0FFD1FE80FF11D8081813043
:100E500039F7CA5FDE4F8881C650D1408F5FCA5FC5
:100E6000DE4F8883C650D14060E041C0862F90E0BD
:100E70004FE050E0481B590B21E030E0042E02C047
:100E8000220F331F0A94E2F720953095CF5FDE4F93
:100E9000E881F981C150D1402E233F23CF5FDE4F3F
:100EA00039832883C150D140CA5FDE4F2881C650A4
:100EB000D140820F911DE1E0F0E0EC0FFD1FE80F43
:100EC000F91F808190E002C0880F991F4A95E2F7D0
:100ED000CF5FDE4F28813981C150D140822B932BC7
:100EE000CF5FDE4F99838883C150D1406F5F6031FF
:100EF00008F4BCCFDDC0CF5FDE4F88819981C1503F
:100F0000D140B5E08B279058CF5FDE4F998388831F
:100F1000C150D140CF5FDE4F88819981C150D1400F
:100F200099230CF04CC090C0CA5FDE4F2881C65098
:100F3000D14030E0CB5FDE4F8881C550D14090E09A
:100F40000F97281739073CF081E0C050DF4F8883A6
:100F5000C050D1403DC0CF5FDE4F88819981C150E4
:100F6000D140880F991FCF5FDE4F99838883C1508E
:100F7000D140CA5FDE4FE881C650D140F0E07096A4
:100F800081E090E08C0F9D1FE80FF91F2081CF5F5B
:100F9000DE4F88819981C150D140822BCF5FDE4FD7
:100FA00099838883C150D140CA5FDE4F8881C65083
:100FB000D1408F5FCA5FDE4F8883C650D140CF5F7C
:100FC000DE4F88819981C150D14099230CF0ACCF7C
:100FD000C050DF4F8881C050D14081117AC0CF5FAF
:100FE000DE4F88819981C150D140880F991FCF5F12
:100FF000DE4F99838883C150D140CA5FDE4FE881BC
:10100000C650D140F0E07096A1E0B0E0AC0FBD1F3B
:10101000EA0FFB1F2081CF5FDE4F88819981C1508D
:10102000D140822BCF5FDE4F99838883C150D1405E
:10103000CA5FDE4F8881C650D1408F5FCA5FDE4FE6
:101040008883C650D14034C0CF5FDE4F88819981FC
:10105000C150D140880F991FCF5FDE4F998388839D
:10106000C150D140CA5FDE4FE881C650D140F0E0A8
:10107000709681E090E08C0F9D1FE80FF91F208192
:10108000CF5FDE4F88819981C150D140822BCF5FE5
:10109000DE4F99838883C150D140CA5FDE4F88817B
:1010A000C650D1408F5FCA5FDE4F8883C650D140A3
:1010B000CA5FDE4F2881C650D14030E0CB5FDE4FA3
:1010C0008881C550D14090E00F97821793070CF0AC
:1010D00012CFCF5FDE4F88819981C150D140D801B6
:1010E0008D939C93CF5FDE4F88819981C150D14011
:1010F000892B11F480E001C081E0C95FDE4F0FB69B
:10110000F894DEBF0FBECDBFDF91CF911F910F913D
:10111000FF90EF900895CF93DF9300D000D0CDB72C
:10112000DEB764E971E080E690E00E94450264E980
:1011300071E080E690E00E94760519821A821B8297
:101140001C820BC089819A81AB81BC810196A11D53
:10115000B11D89839A83AB83BC8389819A81AB81DA
:10116000BC81883A9146A105B10560F3E6CFF894B9
:02117000FFCFAF
:10117200414C490000000000000000000000000097
:10118200000000000000000000000000000000005D
:10119200000000000000000000000000000000004D
:1011A200000000000000000000000000000000003D
:1011B200000000000000000000000000000000002D
:1011C200000000000000000000000000000000001D
:1011D200000000000000000000000000000000000D
:1011E20000000000000000000000000000000000FD
:1011F20000000000000000000000000000000000ED
:1012020000000000000000000000000000000000DC
:1012120000000000000000000000000000000000CC
:1012220000000000000000000000000000000000BC
:1012320000000000000000000000000000000000AC
:10124200000000000000000000000000000000009C
:10125200000000000000000000000000000000008C
:10126200000000000000000000000000000000007C
:00000001FF
