:100000000C9431000C944E000C944E000C944E0055
:100010000C944E000C944E000C944E000C94AC00CA
:100020000C944E000C944E000C944E000C944E0018
:100030000C944E000C944E000C944E000C944E0008
:100040000C944E000C944E000C944E000C944E00F8
:100050000C944E0072087D08880893089E08A90831
:10006000B40811241FBECFE5D8E0DEBFCDBF10E03D
:10007000A0E6B0E0E4E9F9E102C005900D92A637F0
:10008000B107D9F720E0A6E7B0E001C01D92A43B7C
:10009000B207E1F70E943A0B0C94C80C0C940000D4
:1000A0000F920FB6F8940F921F9211242F923F9245
:1000B0004F925F926F927F928F929F92AF92BF9278
:1000C000CF92DF92EF92FF920F931F932F933F9364
:1000D0004F935F936F937F938F939F93AF93BF9350
:1000E000CF93DF93EF93FF93A091A800B091A90065
:1000F0000DB60D920EB60D920E94CB0081110E949A
:10010000E501A091A800B091A900CD91CDBFDD91EE
:10011000DEBFFF91EF91DF91CF91BF91AF919F91A2
:100120008F917F916F915F914F913F912F911F918F
:100130000F91FF90EF90DF90CF90BF90AF909F9086
:100140008F907F906F905F904F903F902F901F9077
:100150000F900FBE0F9008950E9450001895E091E7
:100160008200F09183008081811107C08FEF9FEFA3
:1001700090937800809377000895E0918200F09149
:1001800083000580F681E02D808191819093780035
:100190008093770008950F931F93CF93DF938091FF
:1001A0007600811101C1C0917E00D0917F008E0147
:1001B0000F5F1F4F10937F0000937E000115110504
:1001C000B9F4809182009091830020918000309159
:1001D000810030938300209382009093810080936C
:1001E0008000809179008F5F809379000E94AF003A
:1001F00080917700909178000817190720F480E02B
:10020000B8C081E001C080E0E0918200F0918300FD
:100210009081911107C02FEF3FEF3093780020932A
:100220007700A7C0E0918200F09183000580F681FD
:10023000E02D0680F781E02D22813381021713071C
:1002400028F4309378002093770093C0A285B3857B
:100250002481358146815781E9015D834C83268164
:10026000378144815581E9015B834A8311962D9141
:100270003C911297AF014E5F5F4F2417350731F461
:100280002681378112963C932E93119713861286FE
:100290009C9191509C93A489B589109719F126855A
:1002A000378560897189E9017D836C832089318973
:1002B00066857785E9017B836A8311966D917C91D0
:1002C00012979F01245F3F4F6217730731F4208913
:1002D000318912963C932E931197158A148A9C911A
:1002E00091509C93268990917D00921710F4209351
:1002F0007D0030E0D901AA0FBB1FAA0FBB1FAA0FB8
:10030000BB1F2A0F3B1FD901AC57BF4F11960D9051
:10031000BC91A02DB583A48314962D913C91159783
:100320003783268314962D913C911597E9015B83C1
:100330004A8315965C934E931497A689B0E09D016D
:10034000220F331F220F331F220F331FA20FB31FA1
:10035000AC57BF4FB387A2879C919F5F9C93268920
:10036000E091A800F091A9009689291708F049CFDB
:100370004BCFE091A800F091A900268930E0F90167
:10038000EE0FFF1FEE0FFF1FEE0FFF1F2E0F3F1F81
:10039000F901EC57FF4F9081923008F081E0909185
:1003A0007A0091110CC00CC080917B0090917C0070
:1003B000019690937C0080937B0080E001C081E0F7
:1003C000DF91CF911F910F9108958091760088233E
:1003D00021F081E080937A00089510927A002091B4
:1003E0007D0001C02150822F90E0FC01EE0FFF1F25
:1003F000EE0FFF1FEE0FFF1FE80FF91FEC57FF4F27
:100400003081332379F3AC01440F551F440F551F3E
:10041000440F551F480F591FDF010180F281E02D65
:100420000280F381E02D1296FC93EE9311974957C9
:100430005F4FE417F50729F442815381FD01528390
:100440004183FC01EE0FFF1FEE0FFF1FEE0FFF1F9A
:100450008E0F9F1FFC01EC57FF4F0180F281E02DB2
:10046000868197819093A9008093A80020937D00B6
:1004700008950F931F93CF93DF93C82F809163004C
:10048000833009F4CCC038F4813009F45FC0823085
:1004900009F480C0FFC0843009F4E4C08F3F09F044
:1004A000F9C004E610E0F801D08140E061818D2FB1
:1004B0000E945C0740E0F80162818D2F0E945C077A
:1004C0004C2F407150E0559547955595479555955A
:1004D000479555954795F80167818D2F0E945C07D8
:1004E0004C2F407250E05595479555954795559539
:1004F00047955595479555954795F80166818D2FF8
:100500000E945C074C2F407450E0042E452F000CD5
:10051000441F550B000C441F551FF80165818D2F9A
:100520000E945C074C2F441F4427441FF80164813C
:100530008D2F0E945C0741E0F80163818D2F0E949E
:100540005C0781E0809363008FEFABC069E372E0EA
:1005500082E00E94DB0A8B3F09F09EC029E332E073
:1005600041E050E060E070E082E00E94CC0969E385
:1005700072E082E00E94DB0A8111F9CFE4E6F0E04C
:1005800040E0638180810E945C0782E08093630089
:100590008FEF87C004E610E0F801D08140E0618170
:1005A0008D2F0E945C0740E0F80162818D2F0E9430
:1005B0005C074C2F4170F80167818D2F0E945C070A
:1005C0004C2F427050E055954795F80166818D2F6C
:1005D0000E945C074C2F447050E055954795559507
:1005E0004795F80165818D2F0E945C07C8704C2FDC
:1005F00050E0559547955595479555954795F80180
:1006000064818D2F0E945C0741E0F80163818D2F8A
:100610000E945C0783E0809363008FEF42C069E330
:1006200072E082E00E94DB0A8B3FC1F529E332E0F1
:1006300041E050E060E070E082E00E94CC0969E3B4
:1006400072E082E00E94DB0A8111F9CFE4E6F0E07B
:1006500040E0638180810E945C0784E080936300B6
:100660008FEF1FC069E372E082E00E94DB0AC82FAF
:100670008B3F49F429E332E042E050E060E070E073
:1006800082E00E944A0AC1110BC08FEF8093630081
:1006900080E007C081E005C08FEF03C08FEF01C08D
:1006A0008FEFDF91CF911F910F9108959F92AF929D
:1006B000BF92CF92DF92EF92FF920F931F93CF934F
:1006C000DF931F92CDB7DEB76B0119829091600066
:1006D000953009F410C138F4933009F495C0943082
:1006E00009F4B6C04AC1963019F09F3F49F045C1A0
:1006F0000E943902811143C18FEF8093600044C191
:100700001092AA000F2EF4E6EF2EF0E0FF2EF02D4F
:10071000F701B480108140E06B2D812F0E94F30619
:10072000F701C58040E06C2D812F0E94F306F70190
:10073000D68040E06D2D812F0E94F306F7010781DE
:1007400040E0602F812F0E94F306F701918041E085
:10075000692D812F0E94F306F701A28041E06A2DE6
:10076000812F0E94F306F701F38041E06F2D812F66
:100770000E94F30641E0692D812F0E945C0741E051
:100780006A2D812F0E945C0741E06F2D812F0E940E
:100790005C07AE014F5F5F4F6B2D812F0E94C50735
:1007A0009091AA008981892B880F8093AA00AE01BD
:1007B0004F5F5F4F6C2D812F0E94C5079091AA005B
:1007C0008981892B880F8093AA00AE014F5F5F4F0C
:1007D0006D2D812F0E94C5079091AA008981892BD8
:1007E000880F8093AA00AE014F5F5F4F602F812F6B
:1007F0000E94C5079091AA008981892B880F809358
:10080000AA0083E08093600066E573E082E00E94C6
:10081000DB0A8B3F09F0B5C026E533E041E050E04C
:1008200060E070E082E00E94CC0966E573E082E05F
:100830000E94DB0A8111F9CFE4E6F0E040E0638139
:1008400080810E945C0784E0809360008FEF9CC0F1
:1008500004E610E0F801F08041E061818F2D0E94F4
:100860005C0741E0F80162818F2D0E945C0741E046
:10087000F80163818F2D0E945C07AE014F5F5F4FCF
:10088000F80164818F2D0E94C5079091AA0089818B
:10089000892B880F8093AA00AE014F5F5F4FF8014C
:1008A00065818F2D0E94C5079091AA008981892BAF
:1008B000880F8093AA00AE014F5F5F4FF8016681F9
:1008C0008F2D0E94C5079091AA008981892B880FDE
:1008D0008093AA00AE014F5F5F4FF80167818F2DB3
:1008E0000E94C5079091AA008981892B8093AA0054
:1008F00085E08093600066E573E082E00E94DB0A99
:100900008B3F09F040C026E533E041E050E060E075
:1009100070E082E00E94CC0966E573E082E00E940C
:10092000DB0A8111F9CF04E610E0F801F08040E025
:1009300063818F2D0E945C0786E08093600041E018
:10094000F80164818F2D0E94F30641E0F801658172
:100950008F2D0E94F30641E0F80166818F2D0E94E1
:10096000F30641E0F80167818F2D0E94F306809124
:10097000AA00F601808380E007C08FEF05C08FEFEB
:1009800003C08FEF01C08FEF0F90DF91CF911F91C8
:100990000F91FF90EF90DF90CF90BF90AF909F901E
:1009A00008950F931F93CF93DF93C82F8091620018
:1009B000823009F484C020F4813009F45CC0E7C0BF
:1009C000833009F4C1C08F3F09F0E1C004E610E0B4
:1009D000F801D08141E061818D2F0E945C0740E0E9
:1009E000F80162818D2F0E945C074C2F441F442721
:1009F000441FF80164818D2F0E945C074C2F4074C6
:100A000050E0042E452F000C441F550B000C441FD2
:100A1000551FF80165818D2F0E945C074C2F407295
:100A200050E055954795559547955595479555955A
:100A3000479555954795F80166818D2F0E945C0773
:100A4000C0714C2F50E05595479555954795559554
:100A5000479555954795F80167818D2F0E945C0752
:100A600041E0F80163818D2F0E945C0781E0809353
:100A700062008FEF91C069E372E082E00E94DB0ABE
:100A80008B3F09F086C029E332E041E050E060E0AE
:100A900070E082E00E94CC0969E372E082E00E948B
:100AA000DB0A8111F9CFE4E6F0E040E06381808168
:100AB0000E945C0782E0809362008FEF6DC004E6C5
:100AC00010E0F801D08141E061818D2F0E945C0728
:100AD00040E0F80162818D2F0E945C074C2F487026
:100AE00050E0559547955595479555954795F8018B
:100AF00064818D2F0E945C074C2F447050E0559507
:100B0000479555954795F80165818D2F0E945C07A3
:100B10004C2F427050E055954795F80166818D2F16
:100B20000E945C074C2F4170F80167818D2F0E9455
:100B30005C0741E0F80163818D2F0E945C0783E030
:100B4000809362008FEF28C069E372E082E00E9428
:100B5000DB0A8B3F01F529E332E041E050E060E041
:100B600070E082E00E94CC0969E372E082E00E94BA
:100B7000DB0A8111F9CFE4E6F0E040E06381808197
:100B80000E945C078FEF8093620080E005C081E0E7
:100B900003C08FEF01C08FEFDF91CF911F910F91B5
:100BA0000895BF92CF92DF92EF92FF920F931F931F
:100BB000CF93DF93809161008B3009F4C3C090F430
:100BC000883009F4A1C038F4853009F47BC0863040
:100BD00009F490C0E9C0893009F4A0C08A3009F452
:100BE000A7C0E2C08E3009F4CBC038F48C3009F4D1
:100BF000B3C08D3009F4BAC0D7C08F3009F4CAC071
:100C00008F3F09F0D1C082E00E94C50804E610E0E1
:100C1000F801B480C08141E06B2D8C2F0E94F30657
:100C2000F801C58041E06C2D8C2F0E94F306F8017D
:100C3000D68041E06D2D8C2F0E94F306F801E780ED
:100C400041E06E2D8C2F0E94F306F801F18041E007
:100C50006F2D8C2F0E94F306F801D28141E06D2F99
:100C60008C2F0E94F306F801138141E0612F8C2F35
:100C70000E94F30640E06B2D8C2F0E945C0740E041
:100C80006C2D8C2F0E945C0740E06D2D8C2F0E94F4
:100C90005C0740E06E2D8C2F0E945C0740E06F2DBA
:100CA0008C2F0E945C0740E06D2F8C2F0E945C0708
:100CB00040E0612F8C2F0E945C0785E080936100EB
:100CC0008FEF87C069E372E082E00E94DB0AC82FE1
:100CD0008B3F49F429E332E04FE050E060E070E000
:100CE00082E00E944A0AC11161C086E080936100DF
:100CF0008FEF6FC083E00E943902811159C088E0F4
:100D0000809361008FEF65C083E00E9439028111FA
:100D100051C089E0809361008FEF5BC083E00E9447
:100D20003902811149C08AE0809361008FEF51C080
:100D300082E00E943902811141C08BE08093610002
:100D40008FEF47C088E20E943902811139C08CE0E0
:100D5000809361008FEF3DC08CE00E9439028111C9
:100D600031C08DE0809361008FEF33C086E00E9438
:100D70003902811129C08EE0809361008FEF29C074
:100D800081E00E943902811121C08FE080936100CF
:100D90008FEF1FC080E80E943902811119C08FEFC8
:100DA0008093610080E015C081E013C08FEF11C017
:100DB0008FEF0FC08FEF0DC08FEF0BC08FEF09C00B
:100DC0008FEF07C08FEF05C08FEF03C08FEF01C01B
:100DD0008FEFDF91CF911F910F91FF90EF90DF90F8
:100DE000CF90BF900895423008F060C0683008F09E
:100DF0005FC08130E1F030F0823071F1833009F46E
:100E000040C058C02AB381E090E0062E02C0880F8F
:100E1000991F0A94E2F750E002C0440F551F6A95EB
:100E2000E2F780958223482B4ABB80E0089527B3E0
:100E300081E090E0062E02C0880F991F0A94E2F725
:100E400050E002C0440F551F6A95E2F78095822357
:100E5000482B47BB80E0089524B381E090E0062E44
:100E600002C0880F991F0A94E2F750E002C0440FB5
:100E7000551F6A95E2F780958223482B44BB80E09A
:100E8000089521B381E090E0062E02C0880F991FDB
:100E90000A94E2F750E002C0440F551F6A95E2F74A
:100EA00080958223482B41BB80E0089581E008951E
:100EB00081E0089581E00895423008F060C0683014
:100EC00008F05FC08130E1F030F0823071F18330A2
:100ED00009F440C058C02BB381E090E0062E02C058
:100EE000880F991F0A94E2F750E002C0440F551F83
:100EF0006A95E2F780958223482B4BBB80E00895EA
:100F000028B381E090E0062E02C0880F991F0A9452
:100F1000E2F750E002C0440F551F6A95E2F7809552
:100F20008223482B48BB80E0089525B381E090E000
:100F3000062E02C0880F991F0A94E2F750E002C003
:100F4000440F551F6A95E2F780958223482B45BBD5
:100F500080E0089522B381E090E0062E02C0880F61
:100F6000991F0A94E2F750E002C0440F551F6A959A
:100F7000E2F780958223482B42BB80E0089581E010
:100F8000089581E0089581E008956830D8F541150D
:100F90005105D1F1813091F028F08230D9F08330C1
:100FA00029F134C089B390E002C0959587956A9580
:100FB000E2F78170FA01808380E0089586B390E0C3
:100FC00002C0959587956A95E2F78170FA01808352
:100FD00080E0089583B390E002C0959587956A9567
:100FE000E2F78170FA01808380E0089580B390E099
:100FF00002C0959587956A95E2F78170FA01808322
:1010000080E0089581E0089581E0089581E00895E9
:10101000823008F04EC090E0FC01EE0FFF1F8E0FF3
:101020009F1FFC01E459FF4F8281833009F128F4AE
:10103000813041F0823089F0A2C0843021F18530C6
:1010400069F19DC080E090E0A0E0BEE3FB018083F9
:101050009183A283B38380E0089580E090E0A0E8CC
:10106000BFE3FB0180839183A283B38380E0089573
:1010700080E090E0A0E0B1E4FB0180839183A28353
:10108000B38380E0089580E090E0A0E0B2E4FB014B
:1010900080839183A283B38380E0089580E090E011
:1010A000A0E0B3E4FB0180839183A283B38380E05B
:1010B0000895823009F065C090E0FC01EE0FFF1F3B
:1010C0008E0F9F1FFC01E459FF4FE2818E2F90E0AD
:1010D000FC013197E730F10508F055C0E65DFF4FA0
:1010E0000C94A80C80E090E0A0E0BEE3FB018083BC
:1010F0009183A283B38380E0089580E090E0A0E82C
:10110000BFE3FB0180839183A283B38380E00895D2
:1011100080E090E0A0E8B0E4FB0180839183A283AB
:10112000B38380E0089580E090E0A0E0B1E4FB01AB
:1011300080839183A283B38380E0089580E090E070
:10114000A0E8B1E4FB0180839183A283B38380E0B4
:10115000089580E090E0A0E0B2E4FB0180839183F9
:10116000A283B38380E0089580E090E0A0E0B3E440
:10117000FB0180839183A283B38380E008958CEF89
:10118000089580E008958CEF08958130B1F018F053
:10119000823071F144C090E0FC01EE0FFF1F8E0F12
:1011A0009F1FFC01E459FF4F808183BF89B78C7F6B
:1011B0009181892B89BF80E0089590E0FC01EE0FBA
:1011C000FF1F8E0F9F1FFC01E459FF4F80818EBDD2
:1011D00089B7282F277E9181892F90E0880F991F4A
:1011E000880F991F880F991F822B89BF80E008956F
:1011F00090E0FC01EE0FFF1F8E0F9F1FFC01E459D2
:10120000FF4F808185BD89B7282F2F73918130E4EE
:10121000939FC0011124822B89BF80E008958EEF37
:101220000895813071F018F0823031F01FC0E2E58E
:10123000F0E0A3E5B0E009C0E4E4F0E0A5E4B0E04C
:1012400004C0ECE4F0E0AEE4B0E0718360832C9184
:1012500090E0FC01EE0FFF1F8E0F9F1FFC01E45971
:10126000FF4F8281822B8C9380E008958EEF08954A
:101270006115710509F47AC0813041F120F08230A6
:1012800009F452C075C090E0FC01EE0FFF1F8E0FF5
:101290009F1FFC01E459FF4F8081811109C008B6EE
:1012A00000FE68C0FB01108298B7916098BF089556
:1012B000883009F061C008B601FE60C081E0FB0122
:1012C000808388B7826088BF80E0089590E0FC0149
:1012D000EE0FFF1F8E0F9F1FFC01E459FF4F80810F
:1012E000811109C008B602FE4BC0FB01108298B7FD
:1012F000946098BF0895883009F044C098B7892F4A
:10130000807194FF08C081E0FB01808388B7806111
:1013100088BF80E0089593FF37C091E0FB01908380
:1013200098B7986098BF089590E0FC01EE0FFF1FFA
:101330008E0F9F1FFC01E459FF4F8081811109C06E
:1013400008B606FE23C0FB01108298B7906498BFD0
:1013500008958830E9F408B607FE1CC081E0FB015F
:10136000808388B7806888BF80E008958FEF0895F4
:101370008EEF08958DEF089580E008958DEF089524
:101380008DEF089580E008958DEF08958DEF089515
:1013900080E008958DEF08958F929F92AF92BF9253
:1013A000CF92DF92EF92FF921F93CF93DF9300D003
:1013B00000D0CDB7DEB7182F6A017B01833008F06B
:1013C00054C02115310509F452C03093AC0020936C
:1013D000AB008091AD0081114CC0BE016F5F7F4FAB
:1013E000812F0E9408088C3FF1F189809A80AB80A0
:1013F000BC8020E030E0A901C501B4010E94500B7F
:10140000882361F0C701B6010E94F60BA501940183
:101410000E94550B0E94C70B6B017C01BB27AF2DAF
:101420009E2D8D2D8093B0009093B100A093B200BB
:10143000B093B300C092AE00892B8A2B8B2B49F45A
:1014400081E08093AF006C2D70E0812F0E94110924
:1014500005C06FEF70E0812F0E94110981E0809339
:10146000AD008DEF07C08CEF05C08EEF03C081E0AB
:1014700001C081E00F900F900F900F90DF91CF91FE
:101480001F91FF90EF90DF90CF90BF90AF909F9013
:101490008F9008958F929F92AF92BF92DF92EF92BA
:1014A000FF920F931F93CF93DF9300D000D0CDB75F
:1014B000DEB7182F042FD52EE62EF72E833008F036
:1014C00065C02115310509F463C03093AC00209349
:1014D000AB008091AD0081115DC0BE016F5F7F4F99
:1014E000812F0E9408088C3F09F44EC089809A80A1
:1014F000AB80BC8020E030E0A901C501B4010E94AE
:10150000500B882381F0602F7D2D8E2D9F2D0E9402
:10151000F60BA50194010E94550B0E94C70B062FE4
:10152000D72EE82EF92EA8EEB3E0202F3D2D4E2D1C
:101530005F2D0E94AE0CBB27A92F982F872F809379
:10154000B0009093B100A093B200B093B30028EE26
:10155000029F002D11240093AE00892B8A2B8B2B28
:1015600049F481E08093AF00602F70E0812F0E94EA
:10157000110905C06FEF70E0812F0E94110981E011
:101580008093AD008DEF07C08CEF05C08EEF03C0D8
:1015900081E001C081E00F900F900F900F90DF91DC
:1015A000CF911F910F91FF90EF90DF90BF90AF9080
:1015B0009F908F9008951F93CF93DF931F92CDB785
:1015C000DEB79091AD00992309F44AC02091AB0099
:1015D0003091AC002617370709F044C0913009F06C
:1015E00043C0182FBE016F5F7F4F0E9438098111E1
:1015F00035C08091AF00813041F41092AD0010925F
:10160000AF001092AE0080E030C08091B0009091A9
:10161000B100A091B200B091B3000197A109B10946
:101620008093B0009093B100A093B200B093B30048
:10163000892B8A2B8B2B59F481E08093AF0060912A
:10164000AE0070E0812F0E9411098DEF0EC06FEF88
:1016500070E0812F0E9411098DEF07C080E005C066
:101660008BEF03C081E001C081E00F90DF91CF914B
:101670001F910895CF93DF931F92CDB7DEB70E94DD
:10168000D1058111FCCF81E40E94D1048111FBCFEF
:101690001982BE016F5F7F4F80E80E945603F9CF29
:1016A0000E94330C08F481E008950E94690B0C94A9
:1016B0006E0C0E94670C58F00E94600C40F029F4F8
:1016C0005F3F29F00C94570C51110C94A20C0C9410
:1016D0005D0C0E947F0C68F39923B1F3552391F3BD
:1016E000951B550BBB27AA2762177307840738F091
:1016F0009F5F5F4F220F331F441FAA1FA9F335D0EE
:101700000E2E3AF0E0E832D091505040E695001CA1
:10171000CAF72BD0FE2F29D0660F771F881FBB1F5B
:10172000261737074807AB07B0E809F0BB0B802D39
:10173000BF01FF2793585F4F3AF09E3F510578F065
:101740000C94570C0C94A20C5F3FE4F3983ED4F336
:10175000869577956795B795F7959F5FC9F7880F39
:10176000911D9695879597F90895E1E0660F771F8B
:10177000881FBB1F621773078407BA0720F0621B1C
:10178000730B840BBA0BEE1F88F7E09508950E9447
:10179000870C88F09F5798F0B92F9927B751B0F070
:1017A000E1F0660F771F881F991F1AF0BA95C9F7E5
:1017B00014C0B13091F00E94A10CB1E008950C94D6
:1017C000A10C672F782F8827B85F39F0B93FCCF389
:1017D000869577956795B395D9F73EF49095809562
:1017E000709561957F4F8F4F9F4F0895E89409C082
:1017F00097FB3EF490958095709561957F4F8F4F44
:101800009F4F9923A9F0F92F96E9BB279395F69559
:10181000879577956795B795F111F8CFFAF4BB0FD7
:1018200011F460FF1BC06F5F7F4F8F4F9F4F16C03B
:10183000882311F096E911C0772321F09EE8872FC5
:10184000762F05C0662371F096E8862F70E060E081
:101850002AF09A95660F771F881FDAF7880F9695FA
:10186000879597F90895990F0008550FAA0BE0E89E
:10187000FEEF16161706E807F907C0F01216130652
:10188000E407F50798F0621B730B840B950B39F492
:101890000A2661F0232B242B252B21F408950A26F8
:1018A00009F4A140A6958FEF811D811D089597F938
:1018B0009F6780E870E060E008959FEF80EC0895F6
:1018C00000240A941616170618060906089500241F
:1018D0000A9412161306140605060895092E039499
:1018E000000C11F4882352F0BB0F40F4BF2B11F40D
:1018F00060FF04C06F5F7F4F8F4F9F4F089557FD6C
:101900009058440F551F59F05F3F71F04795880F6D
:1019100097FB991F61F09F3F79F087950895121604
:1019200013061406551FF2CF4695F1DF08C01616B0
:1019300017061806991FF1CF869571056105089461
:101940000895E894BB2766277727CB0197F9089578
:10195000EE0FFF1F0590F491E02D09940E94B90C41
:10196000A59F900DB49F900DA49F800D911D1124F3
:101970000895A29FB001B39FC001A39F700D811D68
:101980001124911DB29F700D811D1124911D089588
:04199000F894FFCFF9
:1019940006FFFFFF00010203070605040000000024
:0619A4000000000001003C
:00000001FF
