S02A00004D43555F546F5F4D43555F426C7565746F6F74685F436F6D6D756E69636174696F6E2E73726563E5
S11300000C942A000C9447000C9447000C9447006D
S11300100C9447000C9447000C9447000C94A500E2
S11300200C9447000C9447000C9447000C94470030
S11300300C9447000C9447000C9447000C94470020
S11300400C9447000C9447000C9447000C94470010
S11300500C94470011241FBECFE5D8E0DEBFCDBF0E
S113006011E0A0E6B0E0E0EFF7E002C005900D92E9
S1130070A036B107D9F721E0A0E6B1E001C01D9296
S1130080A439B207E1F70E94F1030C94F6030C942F
S113009000000F920FB6F8940F921F9211242F9222
S11300A03F924F925F926F927F928F929F92AF9204
S11300B0BF92CF92DF92EF92FF920F931F932F93F1
S11300C03F934F935F936F937F938F939F93AF93DC
S11300D0BF93CF93DF93EF93FF93A0919201B091DD
S11300E093010DB60D920EB60D920E94C4008111BB
S11300F00E94DE01A0919201B0919301CD91CDBFF8
S1130100DD91DEBFFF91EF91DF91CF91BF91AF9170
S11301109F918F917F916F915F914F913F912F911B
S11301201F910F91FF90EF90DF90CF90BF90AF9011
S11301309F908F907F906F905F904F903F902F9003
S11301401F900F900FBE0F9008950E9449001895BC
S1130150E0916C01F0916D018081811107C08FEFF6
S11301609FEF90936201809361010895E0916C0187
S1130170F0916D010580F681E02D8081918190934D
S113018062018093610108950F931F93CF93DF93CE
S113019080916001811101C1C0916801D091690110
S11301A08E010F5F1F4F10936901009368010115C1
S11301B01105B9F480916C0190916D0120916A014F
S11301C030916B0130936D0120936C0190936B011E
S11301D080936A01809163018F5F809363010E9421
S11301E0A80080916101909162010817190720F419
S11301F080E0B8C081E001C080E0E0916C01F09142
S11302006D019081911107C02FEF3FEF3093620190
S113021020936101A7C0E0916C01F0916D0105800C
S1130220F681E02D0680F781E02D228133810217CB
S1130230130728F4309362012093610193C0A285CF
S1130240B3852481358146815781E9015D834C83DF
S11302502681378144815581E9015B834A83119664
S11302602D913C911297AF014E5F5F4F24173507D4
S113027031F42681378112963C932E93119713867D
S113028012869C9191509C93A489B589109719F179
S11302902685378560897189E9017D836C8320898E
S11302A0318966857785E9017B836A8311966D912F
S11302B07C9112979F01245F3F4F6217730731F4BB
S11302C02089318912963C932E931197158A148AAA
S11302D09C9191509C93268990916701921710F4F8
S11302E02093670130E0D901AA0FBB1FAA0FBB1FDF
S11302F0AA0FBB1F2A0F3B1FD901A259BE4F11964B
S11303000D90BC91A02DB583A48314962D913C919E
S113031015973783268314962D913C911597E901FF
S11303205B834A8315965C934E931497A689B0E039
S11303309D01220F331F220F331F220F331FA20FE1
S1130340B31FA259BE4FB387A2879C919F5F9C9312
S11303502689E0919201F09193019689291708F07A
S113036049CF4BCFE0919201F0919301268930E07F
S1130370F901EE0FFF1FEE0FFF1FEE0FFF1F2E0FF1
S11303803F1FF901E259FE4F9081923008F081E05D
S11303909091640191110CC00CC080916501909101
S11303A066010196909366018093650180E001C027
S11303B081E0DF91CF911F910F91089580916001A9
S11303C0882321F081E080936401089510926401F0
S11303D02091670101C02150822F90E0FC01EE0FB3
S11303E0FF1FEE0FFF1FEE0FFF1FE80FF91FE2596B
S11303F0FE4F3081332379F3AC01440F551F440F72
S1130400551F440F551F480F591FDF010180F2810A
S1130410E02D0280F381E02D1296FC93EE93119768
S11304204F585E4FE417F50729F442815381FD01CB
S113043052834183FC01EE0FFF1FEE0FFF1FEE0FEF
S1130440FF1F8E0F9F1FFC01E259FE4F0180F281B6
S1130450E02D86819781909393018093920120935C
S113046067010895FC01DB0111961C921E9209C0DC
S11304702D913C9111972F5F3F4F11963C932E93F2
S1130480319680818111F4CF0895CF92DF92EF925B
S1130490FF920F931F93CF93DF93CDB7DEB7C55071
S11304A0D1400FB6F894DEBF0FBECDBF8C01FE0164
S11304B031968FEFDF011D928A95E9F7C050DF4F27
S11304C0188219821A821B82C050D140CC5FDE4F41
S11304D019821882C450D140BE016C5F7E4FC8019E
S11304E00E94320290E050E089C0F801E60FF71F45
S11304F08081282F221F2227221FE1E0F0E0EC0F49
S1130500FD1FE50FF11D208341E0450F282F2074C6
S113051030E0022E232F000C221F330B000C221F6D
S1130520331FE1E0F0E0EC0FFD1FE40FF11D208329
S113053042E0450F282F207230E0359527953595F8
S11305402795359527953595279535952795E1E098
S1130550F0E0EC0FFD1FE40FF11D208343E0450F95
S1130560282F207130E035952795359527953595B9
S1130570279535952795E1E0F0E0EC0FFD1FE40F9A
S1130580F11D208344E0450F282F287030E0359575
S113059027953595279535952795E1E0F0E0EC0F03
S11305A0FD1FE40FF11D208345E0450F282F247023
S11305B030E03595279535952795E1E0F0E0EC0F8F
S11305C0FD1FE40FF11D208346E0450F282F227004
S11305D030E035952795E1E0F0E0EC0FFD1FE40FE6
S11305E0F11D208327E0250FE1E0F0E0EC0FFD1F73
S11305F0E20FF11D81708083585F9F5F692F70E067
S1130600CC5FDE4F28813981C450D1406217730713
S113061008F46BCF515F40E001C04F5F642F70E07E
S1130620E1E0F0E0EC0FFD1FE60FF71F8081813061
S1130630A1F7E0E031C0CE2ED12CDB01AC0DBD1D05
S113064081E090E08C0F9D1FA80FB91F8C9190E062
S1130650A0E0B0E06894EE24E4F8F12CEC18FD0876
S113066004C0880F991FAA1FBB1FEA94D2F7C05079
S1130670DF4FC880D980EA80FB80C050D1408C29EC
S11306809D29AE29BF29C050DF4F88839983AA834F
S1130690BB83C050D140EF5FE13168F263C0C0500A
S11306A0DF4FC880D980EA80FB80C050D140A5E0EC
S11306B0CA26A0E8DA26A1E0EA26C050DF4FC882A5
S11306C0D982EA82FB82C050D140C050DF4FC8803B
S11306D0D980EA80FB80C050D140CD28CE28CF28D5
S11306E009F44AC0409768177907DCF5C050DF4F1A
S11306F088819981AA81BB81C050D140880F991FFC
S1130700AA1FBB1FC050DF4F88839983AA83BB8372
S1130710C050D1404F5FE42FF0E0709681E090E04C
S11307208C0F9D1FE80FF91F6081C050DF4F888137
S11307309981AA81BB81C050D140862BC050DF4F24
S113074088839983AA83BB83C050D140C050DF4FB4
S113075088819981AA81BB81C050D140A0FFC6CFB6
S113076001C04F5F642F70E0852F90E0FC013F973C
S11307706E177F070CF493CFF801E20FF31FC050FC
S1130780DF4F88819981AA81BB81C050D140908379
S1130790CC5FDE4F88819981C450D140FC013196F1
S11307A0E00FF11FC050DF4F488159816A817B817E
S11307B0C050D14040830296F801E80FF91F10821F
S11307C080E0CB5FDE4F0FB6F894DEBF0FBECDBF27
S11307D0DF91CF911F910F91FF90EF90DF90CF9019
S11307E0089580E690E00E944502FFCFF894FFCF81
S11307F0414C49000000000000000000000000001F
S113080000000000000000000000000000000000E4
S113081000000000000000000000000000000000D4
S113082000000000000000000000000000000000C4
S113083000000000000000000000000000000000B4
S113084000000000000000000000000000000000A4
S11308500000000000000000000000000000000094
S11308600000000000000000000000000000000084
S11308700000000000000000000000000000000074
S11308800000000000000000000000000000000064
S11308900000000000000000000000000000000054
S11308A00000000000000000000000000000000044
S11308B00000000000000000000000000000000034
S11308C00000000000000000000000000000000024
S11308D00000000000000000000000000000000014
S11308E00000000000000000000000000000000004
S9030000FC
