:100000000C9431000C944E000C944E000C944E0055
:100010000C944E000C944E000C944E000C94130261
:100020000C944E000C944E000C944E000C944E0018
:100030000C944E000C944E000C944E000C944E0008
:100040000C944E000C944E000C944E000C944E00F8
:100050000C944E00910C9C0CA70CB20CBD0CC80C5F
:10006000D30C11241FBECFE5D8E0DEBFCDBF10E01A
:10007000A0E6B0E0E6EEF1E202C005900D92A038F5
:10008000B107D9F726E0A0E8B0E001C01D92A53D78
:10009000B207E1F70E94610F0C94F1100C9400007C
:1000A000FC010396928381832FEF3FEF34832383F8
:1000B000968385839087878310820895FC0111863B
:1000C00010860895CF93DF93EB01488159814F3F0C
:1000D0002FEF520721F4FC01A781B0850DC0DC0190
:1000E000139601C0DF011296ED91FC9113972081C8
:1000F000318142175307B0F71296ED91FC91139797
:10010000FB83EA83D583C483BD83AC831396DC93DE
:10011000CE93129799878887FC0120812F5F2083D7
:10012000DF91CF910895CF93DF93FC01A085B18536
:10013000C281D381848195819D838C83C481D58143
:10014000828193819B838A8311968D919C911297D2
:10015000E817F90731F48481958112969C938E9368
:100160001197118610868C9181508C938C91DF9120
:10017000CF9108951BBC8CE78ABD8BE08EBD89B7FB
:10018000806189BF089531E1FC013083319722E21B
:1001900020833197A3E3A0833197608331977083E5
:1001A00031971082319760E86083319710823197E0
:1001B00062E06083319763E06083319764E060833D
:1001C000319765E06083319766E06083319767E03F
:1001D0006083319768E06083319769E0608331978D
:1001E00060E1608331973083319732E1308331971A
:1001F00033E13083319734E13083319735E1308317
:10020000319736E13083319737E13083319738E1E8
:100210003083319739E13083319730E23083319741
:1002200031E2308331972083319723E22083319765
:10023000408331975083319726E22083319727E21C
:100240002083319728E22083319729E22083319758
:1002500020E32083319721E32083869708950E942D
:10026000BA00A091C806B091C906CD91CDBFDD916D
:10027000DEBFFF91EF91DF91CF91BF91AF919F9141
:100280008F917F916F915F914F913F912F911F912E
:100290000F91FF90EF90DF90CF90BF90AF909F9025
:1002A0008F907F906F905F904F903F902F901F9016
:1002B0000F900FBE0F90089581E008950F920FB632
:1002C000F8940F921F9211242F923F924F925F92B7
:1002D0006F927F928F929F92AF92BF92CF92DF9256
:1002E000EF92FF920F931F932F933F934F935F9340
:1002F0006F937F938F939F93AF93BF93CF93DF932E
:10030000EF93FF93A091C806B091C9060DB60D9268
:100310000EB60D920E94C207A091C806B091C90600
:10032000CD91CDBFDD91DEBFFF91EF91DF91CF91F8
:10033000BF91AF919F918F917F916F915F914F91FD
:100340003F912F911F910F91FF90EF90DF90CF90F1
:10035000BF90AF909F908F907F906F905F904F90E5
:100360003F902F901F900F900FBE0F9008950F9207
:100370000FB6F8940F921F9211242F923F924F9232
:100380005F926F927F928F929F92AF92BF92CF9225
:10039000DF92EF92FF920F931F932F933F934F9310
:1003A0005F936F937F938F939F93AF93BF93CF93FD
:1003B000DF93EF93FF93A091C806B091C9060DB6E5
:1003C0000D920EB60D920E94BD0581110E94C207CA
:1003D000A091C806B091C906CD91CDBFDD91DEBF19
:1003E000FF91EF91DF91CF91BF91AF919F918F914D
:1003F0007F916F915F914F913F912F911F910F913D
:10040000FF90EF90DF90CF90BF90AF909F908F9034
:100410007F906F905F904F903F902F901F900F9024
:100420000FBE0F9008950E94B7011895ECE8F0E018
:10043000A0E9B0E0B183A08313821282E8E6F6E07F
:10044000F0938B00E0938A00138212821182108253
:1004500088ED95E013969C938E931297ED93FC9301
:100460009093870080938600909389008093880002
:1004700080E090E890938100809380000895CF936E
:10048000DF93EC01ACE8B0E001C0DF01ED91FC913D
:100490001197EC17FD07C8F312968D919C91139755
:1004A0009D01280F391FC217D30749F42A813B81C8
:1004B000820F931F13969C938E931297ED018A815E
:1004C0009B819E01280F391FE217F307C1F4209189
:1004D0008A0030918B00E217F30771F0228133819B
:1004E000820F931F9B838A83ED91FC9111978081EA
:1004F00091819983888305C03983288302C0F98359
:10050000E883CA17DB0711F0CD93DC93DF91CF911D
:100510000895EF92FF920F931F93CF93DF938C0177
:100520000E94B70580918A0090918B00892B11F46D
:100530000E94160280918000909181008023912377
:10054000892B09F077C00115110549F0C8010496FF
:100550000817190718F000E010E001C08C01011520
:10056000110509F46AC08091880090918900801774
:10057000910708F465C0C0918C00D0918D00ECE823
:10058000F0E002C0FE01EC018A819B818017910797
:1005900020F4888199810097A9F780918A00909131
:1005A0008B00C817D90709F44EC0E080F18084E0C1
:1005B000E80EF11C88819981918380832A813B8197
:1005C000201B310B2930310550F0CE01800F911FD7
:1005D000FC01338322831B830A830E943F022A810A
:1005E0003B818091880090918900821B930B9093AE
:1005F000890080938800409186005091870084177D
:10060000950720F490938700809386008091800066
:1006100090918100282B392B3B832A8319821882E1
:10062000809184009091850001969093850080933D
:1006300084000BC0E12CF12C08C0E12CF12C05C08A
:10064000E12CF12C02C0E12CF12C0E94D706C7014D
:10065000DF91CF911F910F91FF90EF9008950F932D
:100660001F93CF93DF93009799F1EC0124974A8170
:100670005B812091800030918100BA016223732355
:10068000672B31F168817981672B11F520953095C1
:10069000242335233B832A830E94B7058A819B81CB
:1006A0002091880030918900820F931F90938900D8
:1006B00080938800CE010E943F0280918200909139
:1006C0008300019690938300809382000E94D70656
:1006D000DF91CF911F910F910895E0919006F091D5
:1006E00091068081811107C08FEF9FEF9093700674
:1006F00080936F060895E0919006F0919106058031
:10070000F681E02D808191819093700680936F0631
:100710000895CF93DF93EC018F89988D0E942F036A
:10072000CE010E942F03DF91CF9108956F927F92A7
:100730008F929F92AF92BF92CF92DF92EF920F93E0
:100740001F93CF93DF93CDB7DEB74C01D5015796FA
:100750008D919C915897215031093C01620E731E76
:100760006115710589F416C0822F90E0FB01E80F36
:10077000F91F3081D501A80FB91F59963C9380818C
:10078000882329F02F5F01C020E0283068F3F501AD
:1007900010A203C0D50159961C92B3E0BE1520F4F7
:1007A0000F2EF3E0EF2EF02DF501E68AC50102963B
:1007B0000E945E00C5010C960E945E00D50119964C
:1007C000BC92AE92189784E090E08E1991091D9624
:1007D0009C938E931C975396BC92AE92529784E052
:1007E000F501B196DF011D928A95E9F7F50115A291
:1007F000A801B401C3010E94C300D5018D939C934D
:10080000C114D10419F0F601B182A082DF91CF9119
:100810001F910F91EF90DF90CF90BF90AF909F907E
:100820008F907F906F900895CF93C0E010C08C2F71
:1008300090E09C01220F331F220F331F220F331F22
:10084000820F931F8C55994F0E945000CF5FC43088
:1008500070F38BE996E00E94500082E996E00E94D6
:10086000500085E896E00E9450008CE796E00E94D8
:1008700050008BE996E0909391068093900682E970
:1008800096E090938F0680938E06CF910895CF9334
:10089000DF93EC010FB6F8940F9280917A068F5F88
:1008A00080937A068091C8069091C906892B59F4E5
:1008B000D093C906C093C80680917A06813099F416
:1008C0000E94140410C08091760681110CC0E09142
:1008D000C806F091C90696898E89891720F0D093B1
:1008E000C906C093C806809171068F5F8093710618
:1008F0008E8990917706981710F48093770690E090
:10090000FC01EE0FFF1FEE0FFF1FEE0FFF1F8E0FFC
:100910009F1FFC01EC55F94F0180F281E02DFD8312
:10092000EC83848195819F838E83A481B581CE01E0
:10093000029613969C938E93129795838483EE89E7
:10094000F0E0CF01880F991F880F991F880F991F1A
:10095000E80FF91FEC55F94FFB87EA8780818F5F1D
:1009600080830F900FBE80917606882351F0E0912E
:10097000C806F091C90696898E89981710F40E94CE
:100980005E01DF91CF910895CF93DF931CC00FB626
:10099000F8940F92E0918106F0918206C681D7818A
:1009A000CE0102960E94930080917A068150809336
:1009B0007A0680917B06815080937B060F900FBE54
:1009C000CE010E94890380917B068111E0CFDF91E7
:1009D000CF9108950E94C4048091A4068230D0F380
:1009E0000E945E01F7CF0F931F93CF93DF93EC012B
:1009F00000917806109179068091C8069091C906F9
:100A000002960E949300C00FD11FE091C806F0919A
:100A1000C906D383C283C017D10768F46091C806A2
:100A20007091C90680918E0690918F066E5F7F4F00
:100A30000E94620017C06091C8067091C90680913B
:100A40009006909191066E5F7F4F0E9462008091A8
:100A50006F0690917006C817D90720F4D0937006DE
:100A6000C0936F06DF91CF911F910F9108952F9240
:100A70003F924F925F926F927F928F929F92AF922E
:100A8000BF92CF92DF92EF92FF920F931F93CF937B
:100A9000DF933C011B015A012901CA010E9489020E
:100AA0006C01892B71F086E290E00E948902EC01D2
:100AB000892B19F0D88ECF8A06C0C6010E942F0359
:100AC00002C0C0E0D0E0209791F0950140E050E0F6
:100AD000812C912C5E016701E02E8201B101C301DE
:100AE0000E949603CE010E94470481E001C08FEF6F
:100AF000DF91CF911F910F91FF90EF90DF90CF90FA
:100B0000BF90AF909F908F907F906F905F904F902D
:100B10003F902F900895EF92FF920F930F2EFDE6D6
:100B2000EF2EF6E0FF2EF02D00E020E030E045E56E
:100B300050E064E670E08AEE94E00E943705813070
:100B400081F4F8948FEF9FEF9093700680936F0677
:100B500081E08093760610927906109278060E94C2
:100B60002F01809160000F91FF90EF900895809188
:100B70006C068F5F80936C0608950F931F93CF933D
:100B8000DF9380916C06811101C1C0917806D091EC
:100B900079068E010F5F1F4F109379060093780638
:100BA00001151105B9F4809190069091910620915C
:100BB0008E0630918F063093910620939006909385
:100BC0008F0680938E06809172068F5F80937206E7
:100BD0000E946D0380916F069091700608171907A7
:100BE00020F480E0B8C081E001C080E0E091900690
:100BF000F09191069081911107C02FEF3FEF309354
:100C0000700620936F06A7C0E0919006F0919106C0
:100C10000580F681E02D0680F781E02D2281338169
:100C20000217130728F43093700620936F0693C0C1
:100C3000A285B3852481358146815781E9015D8391
:100C40004C832681378144815581E9015B834A8346
:100C500011962D913C911297AF014E5F5F4F241773
:100C6000350731F42681378112963C932E931197E4
:100C7000138612869C9191509C93A489B5891097F4
:100C800019F12685378560897189E9017D836C8337
:100C90002089318966857785E9017B836A8311968E
:100CA0006D917C9112979F01245F3F4F62177307EC
:100CB00031F42089318912963C932E931197158A2D
:100CC000148A9C9191509C93268990917706921753
:100CD00010F42093770630E0D901AA0FBB1FAA0FAA
:100CE000BB1FAA0FBB1F2A0F3B1FD901AC55B94F21
:100CF00011960D90BC91A02DB583A48314962D91CF
:100D00003C9115973783268314962D913C91159726
:100D1000E9015B834A8315965C934E931497A689E9
:100D2000B0E09D01220F331F220F331F220F331F0C
:100D3000A20FB31FAC55B94FB387A2879C919F5F99
:100D40009C932689E091C806F091C90696892917D7
:100D500008F049CF4BCFE091C806F091C90626892B
:100D600030E0F901EE0FFF1FEE0FFF1FEE0FFF1F28
:100D70002E0F3F1FF901EC55F94F9081923008F08A
:100D800081E09091730691110CC00CC080917406A3
:100D9000909175060196909375068093740680E095
:100DA00001C081E0DF91CF911F910F910895CF9302
:100DB000DF930FB6F8940F9280916C068150809368
:100DC0006C0680916C068111BFC080917A068111FA
:100DD00096C0BDC0E0918A06F0918B060680F7812F
:100DE000E02DA489B589C685D785808991899D83A1
:100DF0008C83C089D189868597859B838A83119648
:100E00002D913C911297CF010C962817390731F498
:100E10008089918912969C938E931197158A148AD2
:100E20008C9181508C93A285B385C481D5818681B4
:100E300097819D838C83C681D781848195819B8393
:100E40008A8311968D919C9112979F012E5F3F4F3F
:100E50008217930731F48681978112969C938E9323
:100E60001197138612868C9181508C93868990916C
:100E70007706981710F48093770690E0DC01AA0FAC
:100E8000BB1FAA0FBB1FAA0FBB1F8A0F9B1FDC0132
:100E9000AC55B94F11960D90BC91A02DB583A4838C
:100EA00014968D919C911597978386831496CD9176
:100EB000DC9115973B832A8315963C932E931497C8
:100EC000A689B0E0CD01880F991F880F991F880F60
:100ED000991FA80FB91FAC55B94FB387A2878C9142
:100EE0008F5F8C939689A091C806B091C9065696DB
:100EF0008C91981730F081E08093730602C0E0E097
:100F0000F0E080918506811165CFEF2B11F00E94F2
:100F10006D03C0917406D0917506209769F00E9408
:100F2000BD05882319F081E0809373062197B9F7F6
:100F3000109275061092740680917306882331F022
:100F40000E945E0181E003C080E001C080E00F905C
:100F50000FBEDF91CF910895CF93DF93EC01892BE2
:100F600049F00E94B70560E0CE010E94F3040E94A0
:100F7000D70601C080E0811102C00E945E01DF91AE
:100F8000CF91089580916C06882321F081E08093B1
:100F900073060895109273062091770601C02150C0
:100FA000822F90E0FC01EE0FFF1FEE0FFF1FEE0FF0
:100FB000FF1FE80FF91FEC55F94F3081332379F308
:100FC000AC01440F551F440F551F440F551F480FC8
:100FD000591FDF010180F281E02D0280F381E02DB5
:100FE0001296FC93EE9311974955594FE417F50764
:100FF00029F442815381FD0152834183FC01EE0FAC
:10100000FF1FEE0FFF1FEE0FFF1F8E0F9F1FFC0134
:10101000EC55F94F0180F281E02D86819781909304
:10102000C9068093C8062093770608950F931F93EF
:10103000CF93DF93C82F80916300833009F4CCC035
:1010400038F4813009F45FC0823009F480C0FFC0F9
:10105000843009F4E4C08F3F09F0F9C009E610E0DC
:10106000F801D08140E061818D2F0E94BE0B40E0ED
:10107000F80162818D2F0E94BE0B4C2F407150E011
:101080005595479555954795559547955595479548
:10109000F80167818D2F0E94BE0B4C2F407250E0EB
:1010A0005595479555954795559547955595479528
:1010B00055954795F80166818D2F0E94BE0B4C2FE8
:1010C000407450E0042E452F000C441F550B000CBB
:1010D000441F551FF80165818D2F0E94BE0B4C2FB8
:1010E000441F4427441FF80164818D2F0E94BE0BCA
:1010F00041E0F80163818D2F0E94BE0B81E0809357
:1011000063008FEFABC066E178E082E00E94FA0EE8
:101110008B3F09F09EC026E138E041E050E060E0FE
:1011200070E082E00E94EB0D66E178E082E00E94D0
:10113000FA0E8111F9CFE9E6F0E040E063818081A9
:101140000E94BE0B82E0809363008FEF87C009E6A8
:1011500010E0F801D08140E061818D2F0E94BE0B2C
:1011600040E0F80162818D2F0E94BE0B4C2F417030
:10117000F80167818D2F0E94BE0B4C2F427050E00A
:1011800055954795F80166818D2F0E94BE0B4C2F17
:10119000447050E05595479555954795F801658100
:1011A0008D2F0E94BE0BC8704C2F50E0559547956F
:1011B0005595479555954795F80164818D2F0E9467
:1011C000BE0B41E0F80163818D2F0E94BE0B83E0CE
:1011D000809363008FEF42C066E178E082E00E9476
:1011E000FA0E8B3FC1F526E138E041E050E060E0C7
:1011F00070E082E00E94EB0D66E178E082E00E9400
:10120000FA0E8111F9CFE9E6F0E040E063818081D8
:101210000E94BE0B84E0809363008FEF1FC066E1E5
:1012200078E082E00E94FA0EC82F8B3F49F426E155
:1012300038E042E050E060E070E082E00E94690E39
:10124000C1110BC08FEF8093630080E007C081E085
:1012500005C08FEF03C08FEF01C08FEFDF91CF91FB
:101260001F910F9108950F931F93CF93DF93C82F72
:1012700080916200823009F484C020F4813009F446
:101280005CC0E7C0833009F4C1C08F3F09F0E1C002
:1012900009E610E0F801D08141E061818D2F0E94C4
:1012A000BE0B40E0F80162818D2F0E94BE0B4C2FD7
:1012B000441F4427441FF80164818D2F0E94BE0BF8
:1012C0004C2F407450E0042E452F000C441F550B4A
:1012D000000C441F551FF80165818D2F0E94BE0B25
:1012E0004C2F407250E0559547955595479555952B
:1012F00047955595479555954795F80166818D2FEA
:101300000E94BE0BC0714C2F50E0559547955595E6
:1013100047955595479555954795F80167818D2FC8
:101320000E94BE0B41E0F80163818D2F0E94BE0B2D
:1013300081E0809362008FEF91C066E178E082E007
:101340000E94FA0E8B3F09F086C026E138E041E0AA
:1013500050E060E070E082E00E94EB0D66E178E032
:1013600082E00E94FA0E8111F9CFE9E6F0E040E058
:10137000638180810E94BE0B82E0809362008FEFC8
:101380006DC009E610E0F801D08141E061818D2F48
:101390000E94BE0B40E0F80162818D2F0E94BE0BBF
:1013A0004C2F487050E05595479555954795559564
:1013B0004795F80164818D2F0E94BE0B4C2F44701D
:1013C00050E05595479555954795F80165818D2FC6
:1013D0000E94BE0B4C2F427050E055954795F80186
:1013E00066818D2F0E94BE0B4C2F4170F8016781E2
:1013F0008D2F0E94BE0B41E0F80163818D2F0E946A
:10140000BE0B83E0809362008FEF28C066E178E036
:1014100082E00E94FA0E8B3F01F526E138E041E0C0
:1014200050E060E070E082E00E94EB0D66E178E061
:1014300082E00E94FA0E8111F9CFE9E6F0E040E087
:10144000638180810E94BE0B8FEF8093620080E0F9
:1014500005C081E003C08FEF01C08FEFDF91CF9116
:101460001F910F910895BF92CF92DF92EF92FF925A
:101470000F931F93CF93DF93809161008B3009F41A
:10148000C3C090F4883009F4A1C038F4853009F461
:101490007BC0863009F490C0E9C0893009F4A0C04F
:1014A0008A3009F4A7C0E2C08E3009F4CBC038F40A
:1014B0008C3009F4B3C08D3009F4BAC0D7C08F3076
:1014C00009F4CAC08F3F09F0D1C082E00E94E40C49
:1014D00009E610E0F801B480C08141E06B2D8C2F4B
:1014E0000E94550BF801C58041E06C2D8C2F0E94A5
:1014F000550BF801D68041E06D2D8C2F0E94550BC5
:10150000F801E78041E06E2D8C2F0E94550BF80109
:10151000F18041E06F2D8C2F0E94550BF801D28194
:1015200041E06D2F8C2F0E94550BF801138141E093
:10153000612F8C2F0E94550B40E06B2D8C2F0E9449
:10154000BE0B40E06C2D8C2F0E94BE0B40E06D2D39
:101550008C2F0E94BE0B40E06E2D8C2F0E94BE0B84
:1015600040E06F2D8C2F0E94BE0B40E06D2F8C2F22
:101570000E94BE0B40E0612F8C2F0E94BE0B85E0C5
:10158000809361008FEF87C066E178E082E00E947F
:10159000FA0EC82F8B3F49F426E138E04FE050E0C7
:1015A00060E070E082E00E94690EC11161C086E0D7
:1015B000809361008FEF6FC083E00E941608811155
:1015C00059C088E0809361008FEF65C083E00E947E
:1015D0001608811151C089E0809361008FEF5BC0D4
:1015E00083E00E941608811149C08AE0809361005F
:1015F0008FEF51C082E00E941608811141C08BE03C
:10160000809361008FEF47C088E20E941608811125
:1016100039C08CE0809361008FEF3DC08CE00E9468
:101620001608811131C08DE0809361008FEF33C0C7
:1016300086E00E941608811129C08EE08093610027
:101640008FEF29C081E00E941608811121C08FE030
:10165000809361008FEF1FC080E80E9416088111FF
:1016600019C08FEF8093610080E015C081E013C046
:101670008FEF11C08FEF0FC08FEF0DC08FEF0BC03A
:101680008FEF09C08FEF07C08FEF05C08FEF03C04A
:101690008FEF01C08FEFDF91CF911F910F91FF90DE
:1016A000EF90DF90CF90BF900895423008F060C077
:1016B000683008F05FC08130E1F030F0823071F1C5
:1016C000833009F440C058C02AB381E090E0062E70
:1016D00002C0880F991F0A94E2F750E002C0440F3D
:1016E000551F6A95E2F780958223482B4ABB80E01C
:1016F000089527B381E090E0062E02C0880F991F5D
:101700000A94E2F750E002C0440F551F6A95E2F7D1
:1017100080958223482B47BB80E0089524B381E065
:1017200090E0062E02C0880F991F0A94E2F750E05D
:1017300002C0440F551F6A95E2F780958223482B1B
:1017400044BB80E0089521B381E090E0062E02C002
:10175000880F991F0A94E2F750E002C0440F551F0A
:101760006A95E2F780958223482B41BB80E008957B
:1017700081E0089581E0089581E00895423008F005
:1017800060C0683008F05FC08130E1F030F0823036
:1017900071F1833009F440C058C02BB381E090E070
:1017A000062E02C0880F991F0A94E2F750E002C08B
:1017B000440F551F6A95E2F780958223482B4BBB57
:1017C00080E0089528B381E090E0062E02C0880FE3
:1017D000991F0A94E2F750E002C0440F551F6A9522
:1017E000E2F780958223482B48BB80E0089525B31B
:1017F00081E090E0062E02C0880F991F0A94E2F75C
:1018000050E002C0440F551F6A95E2F7809582238D
:10181000482B45BB80E0089522B381E090E0062E7E
:1018200002C0880F991F0A94E2F750E002C0440FEB
:10183000551F6A95E2F780958223482B42BB80E0D2
:10184000089581E0089581E0089581E0089582304F
:1018500008F04EC090E0FC01EE0FFF1F8E0F9F1F9F
:10186000FC01EF58FF4F8281833009F128F4813069
:1018700041F0823089F0A2C0843021F1853069F1D5
:101880009DC080E090E0A0E0BEE3FB0180839183F7
:10189000A283B38380E0089580E090E0A0E8BFE3F6
:1018A000FB0180839183A283B38380E0089580E06D
:1018B00090E0A0E0B1E4FB0180839183A283B38335
:1018C00080E0089580E090E0A0E0B2E4FB01808336
:1018D0009183A283B38380E0089580E090E0A0E04C
:1018E000B3E4FB0180839183A283B38380E00895F6
:1018F000823009F065C090E0FC01EE0FFF1F8E0FF3
:101900009F1FFC01EF58FF4FE2818E2F90E0FC01FA
:101910003197E730F10508F055C0E65DFF4F0C94B4
:10192000D11080E090E0A0E0BEE3FB0180839183D2
:10193000A283B38380E0089580E090E0A0E8BFE355
:10194000FB0180839183A283B38380E0089580E0CC
:1019500090E0A0E8B0E4FB0180839183A283B3838D
:1019600080E0089580E090E0A0E0B1E4FB01808396
:101970009183A283B38380E0089580E090E0A0E8A3
:10198000B1E4FB0180839183A283B38380E0089557
:1019900080E090E0A0E0B2E4FB0180839183A28329
:1019A000B38380E0089580E090E0A0E0B3E4FB0121
:1019B00080839183A283B38380E008958CEF0895A0
:1019C00080E008958CEF08958130B1F018F08230F6
:1019D00071F144C090E0FC01EE0FFF1F8E0F9F1FBE
:1019E000FC01EF58FF4F808183BF89B78C7F9181C5
:1019F000892B89BF80E0089590E0FC01EE0FFF1F66
:101A00008E0F9F1FFC01EF58FF4F80818EBD89B75D
:101A1000282F277E9181892F90E0880F991F880FAA
:101A2000991F880F991F822B89BF80E0089590E04D
:101A3000FC01EE0FFF1F8E0F9F1FFC01EF58FF4FA1
:101A4000808185BD89B7282F2F73918130E4939FC2
:101A5000C0011124822B89BF80E008958EEF089584
:101A6000813071F018F0823031F01FC0E2E5F0E013
:101A7000A3E5B0E009C0E4E4F0E0A5E4B0E004C010
:101A8000ECE4F0E0AEE4B0E0718360832C9190E090
:101A9000FC01EE0FFF1F8E0F9F1FFC01EF58FF4F41
:101AA0008281822B8C9380E008958EEF08956115DA
:101AB000710509F47AC0813041F120F0823009F4D7
:101AC00052C075C090E0FC01EE0FFF1F8E0F9F1FEC
:101AD000FC01EF58FF4F8081811109C008B600FE5C
:101AE00068C0FB01108298B7916098BF0895883054
:101AF00009F061C008B601FE60C081E0FB0180838F
:101B000088B7826088BF80E0089590E0FC01EE0F06
:101B1000FF1F8E0F9F1FFC01EF58FF4F8081811127
:101B200009C008B602FE4BC0FB01108298B7946052
:101B300098BF0895883009F044C098B7892F807104
:101B400094FF08C081E0FB01808388B7806188BF73
:101B500080E0089593FF37C091E0FB01908398B730
:101B6000986098BF089590E0FC01EE0FFF1F8E0F64
:101B70009F1FFC01EF58FF4F8081811109C008B6FB
:101B800006FE23C0FB01108298B7906498BF0895A9
:101B90008830E9F408B607FE1CC081E0FB018083B1
:101BA00088B7806888BF80E008958FEF08958EEF32
:101BB00008958DEF089580E008958DEF08958DEFDD
:101BC000089580E008958DEF08958DEF089580E0E9
:101BD00008958DEF08958F929F92AF92BF92CF920A
:101BE000DF92EF92FF921F93CF93DF9300D000D04C
:101BF000CDB7DEB7182F6A017B01833008F054C0DF
:101C00002115310509F452C03093CB062093CA0642
:101C10008091CC0681114CC0BE016F5F7F4F812F38
:101C20000E94270C8C3FF1F189809A80AB80BC80A8
:101C300020E030E0A901C501B4010E94790F88239A
:101C400061F0C701B6010E941F10A50194010E9416
:101C50007E0F0E94F00F6B017C01BB27AF2D9E2DE4
:101C60008D2D8093CF069093D006A093D106B0938C
:101C7000D206C092CD06892B8A2B8B2B49F481E0AA
:101C80008093CE066C2D70E0812F0E94300D05C030
:101C90006FEF70E0812F0E94300D81E08093CC06C1
:101CA0008DEF07C08CEF05C08EEF03C081E001C04F
:101CB00081E00F900F900F900F90DF91CF911F91C7
:101CC000FF90EF90DF90CF90BF90AF909F908F905C
:101CD00008958F929F92AF92BF92DF92EF92FF9200
:101CE0000F931F93CF93DF9300D000D0CDB7DEB713
:101CF000182F042FD52EE62EF72E833008F065C05E
:101D00002115310509F463C03093CB062093CA0630
:101D10008091CC0681115DC0BE016F5F7F4F812F26
:101D20000E94270C8C3F09F44EC089809A80AB80BA
:101D3000BC8020E030E0A901C501B4010E94790F08
:101D4000882381F0602F7D2D8E2D9F2D0E941F10E6
:101D5000A50194010E947E0F0E94F00F062FD72E3E
:101D6000E82EF92EA8EEB3E0202F3D2D4E2D5F2D4D
:101D70000E94D710BB27A92F982F872F8093CF06BB
:101D80009093D006A093D106B093D20628EE029F7E
:101D9000002D11240093CD06892B8A2B8B2B49F41F
:101DA00081E08093CE06602F70E0812F0E94300D7D
:101DB00005C06FEF70E0812F0E94300D81E08093AD
:101DC000CC068DEF07C08CEF05C08EEF03C081E01D
:101DD00001C081E00F900F900F900F90DF91CF9195
:101DE0001F910F91FF90EF90DF90BF90AF909F9069
:101DF0008F9008951F93CF93DF931F92CDB7DEB7D7
:101E00009091CC06992309F44AC02091CA063091DA
:101E1000CB062617370709F044C0913009F043C0BC
:101E2000182FBE016F5F7F4F0E94570D811135C083
:101E30008091CE06813041F41092CC061092CE06ED
:101E40001092CD0680E030C08091CF069091D006F0
:101E5000A091D106B091D2060197A109B109809352
:101E6000CF069093D006A093D106B093D206892BCB
:101E70008A2B8B2B59F481E08093CE066091CD069E
:101E800070E0812F0E94300D8DEF0EC06FEF70E07B
:101E9000812F0E94300D8DEF07C080E005C08BEFD1
:101EA00003C081E001C081E00F90DF91CF911F91CD
:101EB000089581E40E94330982E090E00E94AC071B
:101EC000F8CF0E94330A8111FCCF0F2EF3EDEF2ED5
:101ED000F6E0FF2EF02D01E020E030E048EC50E08D
:101EE0006AE770E089E59FE00E9437050E948B0554
:101EF000FFCF0E945C1008F481E008950E94920FC9
:101F00000C9497100E94901058F00E94891040F095
:101F100029F45F3F29F00C94801051110C94CB10E0
:101F20000C9486100E94A81068F39923B1F35523EE
:101F300091F3951B550BBB27AA27621773078407DC
:101F400038F09F5F5F4F220F331F441FAA1FA9F372
:101F500035D00E2E3AF0E0E832D091505040E69560
:101F6000001CCAF72BD0FE2F29D0660F771F881FC1
:101F7000BB1F261737074807AB07B0E809F0BB0BB4
:101F8000802DBF01FF2793585F4F3AF09E3F5105C8
:101F900078F00C9480100C94CB105F3FE4F3983EE3
:101FA000D4F3869577956795B795F7959F5FC9F7B1
:101FB000880F911D9695879597F90895E1E0660F32
:101FC000771F881FBB1F621773078407BA0720F0AB
:101FD000621B730B840BBA0BEE1F88F7E095089514
:101FE0000E94B01088F09F5798F0B92F9927B751E9
:101FF000B0F0E1F0660F771F881F991F1AF0BA95AD
:10200000C9F714C0B13091F00E94CA10B1E0089530
:102010000C94CA10672F782F8827B85F39F0B93F22
:10202000CCF3869577956795B395D9F73EF490955F
:102030008095709561957F4F8F4F9F4F0895E894DD
:1020400009C097FB3EF490958095709561957F4F00
:102050008F4F9F4F9923A9F0F92F96E9BB279395AE
:10206000F695879577956795B795F111F8CFFAF4BE
:10207000BB0F11F460FF1BC06F5F7F4F8F4F9F4FEF
:1020800016C0882311F096E911C0772321F09EE84D
:10209000872F762F05C0662371F096E8862F70E0B3
:1020A00060E02AF09A95660F771F881FDAF7880F8D
:1020B0009695879597F90895990F0008550FAA0BE3
:1020C000E0E8FEEF16161706E807F907C0F012164B
:1020D0001306E407F50798F0621B730B840B950B4E
:1020E00039F40A2661F0232B242B252B21F40895A3
:1020F0000A2609F4A140A6958FEF811D811D089540
:1021000097F99F6780E870E060E008959FEF80ECAA
:10211000089500240A94161617061806090608954D
:1021200000240A9412161306140605060895092EB3
:102130000394000C11F4882352F0BB0F40F4BF2B22
:1021400011F460FF04C06F5F7F4F8F4F9F4F089562
:1021500057FD9058440F551F59F05F3F71F0479558
:10216000880F97FB991F61F09F3F79F0879508953D
:10217000121613061406551FF2CF4695F1DF08C05C
:10218000161617061806991FF1CF86957105610579
:1021900008940895E894BB2766277727CB0197F921
:1021A0000895EE0FFF1F0590F491E02D09940E9411
:1021B000E210A59F900DB49F900DA49F800D911DDE
:1021C00011240895A29FB001B39FC001A39F700D79
:1021D000811D1124911DB29F700D811D1124911D2F
:0621E0000895F894FFCF02
:1021E60003FFFFFF49444C450000010203070605B3
:1021F600040000000000000000015461736B310010
:00000001FF
