:100000000C9439000C9456000C9456000C94560035
:100010000C9456000C9456000C9456000C94B600A8
:100020000C9456000C9456000C9456000C945600F8
:100030000C9456000C9456000C9456000C945600E8
:100040000C9456000C9456000C9456000C945600D8
:100050000C945600070913091F092B093709430996
:100060004F09B20DBE0DCA0DF10D0E0E310E4E0E22
:100070005A0E11241FBECFE5D8E0DEBFCDBF10E081
:10008000A0E6B0E0ECE0F2E202C005900D92AE3DD9
:10009000B107D9F721E0AEEDB0E001C01D92A13269
:1000A000B207E1F70E94570F0C9404110C94000062
:1000B0000F920FB6F8940F921F9211242F923F9235
:1000C0004F925F926F927F928F929F92AF92BF9268
:1000D000CF92DF92EF92FF920F931F932F933F9354
:1000E0004F935F936F937F938F939F93AF93BF9340
:1000F000CF93DF93EF93FF93A091DE00B091DF00E9
:100100000DB60D920EB60D920E94BA00882311F022
:100110000E948902A091DE00B091DF00CD91CDBF99
:10012000DD91DEBFFF91EF91DF91CF91BF91AF9154
:100130009F918F917F916F915F914F913F912F91FF
:100140001F910F91FF90EF90DF90CF90BF90AF90F5
:100150009F908F907F906F905F904F903F902F90E7
:100160001F900F900FBE0F90089500000E9458003E
:1001700018950000CF93DF93CDB7DEB72F970FB65A
:10018000F894DEBF0FBECDBF198280911101882384
:1001900009F0ACC1809108019091090101969B83FF
:1001A0008A838A819B8190930901809308018A81C7
:1001B0009B81892BD9F480910401909105019D8345
:1001C0008C838091060190910701909305018093A3
:1001D00004018C819D819093070180930601809199
:1001E0000E018F5F80930E010E94FD0280910F012E
:1001F000909110012A813B812817390708F456C1D4
:100200008091040190910501FC018081882339F4DB
:100210008FEF9FEF9093100180930F0147C1809162
:10022000040190910501FC0185819681FC01868184
:1002300097819F838E838E819F81FC018281938130
:10024000998788872A813B8188859985281739076E
:1002500038F4888599859093100180930F0126C109
:100260008E819F81FC01828593859B878A878E8101
:100270009F81FC01848195812E813F81F901268136
:100280003781FC01358324838E819F81FC01868127
:1002900097812E813F81F90124813581FC013383CF
:1002A00022838A859B85FC01218132818E819F81F9
:1002B00002962817390751F48E819F81FC0126810F
:1002C00037818A859B85FC01328321838E819F81C2
:1002D000FC01138612868A859B85FC0180812FEFA5
:1002E000280F8A859B85FC0120838E819F81FC01DC
:1002F00084899589892B09F445C08E819F81FC01F1
:10030000848995899D878C878E819F81FC01868554
:1003100097852E813F81F90120893189FC01358340
:1003200024838E819F81FC01808991892E813F8168
:10033000F90126853785FC01338322838C859D85D1
:10034000FC01218132818E819F810C96281739070B
:1003500051F48E819F81FC01208931898C859D8596
:10036000FC01328321838E819F81FC01158A148ACE
:100370008C859D85FC0180812FEF280F8C859D85C4
:10038000FC0120838E819F81FC01968980910A0166
:10039000891730F48E819F81FC01868980930A0140
:1003A0008E819F81FC018689282F30E0C901880F4A
:1003B000991F880F991F880F991F820F931F8F51C4
:1003C0009F4FFC01808191819F878E878E819F81C5
:1003D0002E853F85FC01358324838E859F85FC0116
:1003E000248135818E819F81FC01378326838E8510
:1003F0009F85FC01848195812E813F812E5F3F4F37
:10040000FC01338322838E819F819C012E5F3F4FAD
:100410008E859F85FC01358324838E819F81FC011D
:100420008689282F30E0C901880F991F880F991FEE
:10043000880F991F820F931F9C0120523F4F8E817E
:100440009F81FC01338722878E819F81FC018689F1
:10045000282F30E0C901880F991F880F991F880F36
:10046000991F820F931F80529F4FFC01808141E0B2
:10047000480FC901880F991F880F991F880F991F6E
:10048000820F931F80529F4FFC0140838E819F817A
:10049000FC0126898091DE009091DF00FC018689B5
:1004A000281708F4ADCE81E08983AACE8091DE00C2
:1004B0009091DF00FC018689282F30E0C901880F68
:1004C000991F880F991F880F991F820F931F8052C1
:1004D0009F4FFC018081823010F081E08983809100
:1004E0000D01882361F081E0898309C080910B01AF
:1004F00090910C01019690930C0180930B018981DE
:100500002F960FB6F894DEBF0FBECDBFDF91CF910F
:100510000895CF93DF9300D01F92CDB7DEB78091BF
:100520001101882321F081E080930D015FC01092BA
:100530000D0180910A01898303C0898181508983DB
:100540008981282F30E0C901880F991F880F991FD2
:10055000880F991F820F931F80529F4FFC0180814B
:10056000882359F38981282F30E0C901880F991F0A
:10057000880F991F880F991F820F931F80529F4FDA
:100580009B838A838A819B81FC0181819281FC010A
:10059000228133818A819B81FC01328321838A817C
:1005A0009B81FC01218132818A819B8103962817DE
:1005B000390769F48A819B81FC0181819281FC0168
:1005C000228133818A819B81FC01328321838A814C
:1005D0009B81FC0181819281FC01868197819093AE
:1005E000DF008093DE00898180930A0100000F9074
:1005F0000F900F90DF91CF910895CF93DF93CDB7F8
:10060000DEB78091040190910501FC01808188236F
:1006100039F48FEF9FEF9093100180930F010EC07C
:100620008091040190910501FC0185819681FC0176
:10063000808191819093100180930F010000DF91E0
:10064000CF910895CF93DF9300D01F92CDB7DEB73F
:100650008B838FEF898381E08A8380916000882F6C
:1006600090E08531910509F4D9C08F3F910521F0C3
:10067000449709F4AFC0ECC09091C0008091BF00D6
:1006800040E0692F0E94AF079091C1008091BF00A8
:1006900040E0692F0E94AF078B81282F2170909135
:1006A000D3008091C800422F692F0E94AF078B8131
:1006B000882F90E08270992795958795282F9091A3
:1006C000D2008091C800422F692F0E94AF078B8112
:1006D000882F90E0847099279595879595958795B3
:1006E000282F9091D1008091C800422F692F0E943D
:1006F000AF078B81882F90E0887099279595879513
:100700009595879595958795282F9091D000809104
:10071000C800422F692F0E94AF078B81882F90E07D
:100720008071992795958795959587959595879546
:1007300095958795282F9091CF008091C800422FE2
:10074000692F0E94AF078B81882F90E080729927D4
:100750009595879595958795959587959595879581
:1007600095958795282F9091CE008091C800422FB3
:10077000692F0E94AF078B81882F90E080749927A2
:10078000082E892F000C881F990B000C881F991FB9
:10079000282F9091CD008091C800422F692F0E9490
:1007A000AF078B81282F221F2227221F9091CC0078
:1007B0008091C800422F692F0E94AF079091C2001C
:1007C0008091BF0041E0692F0E94AF0784E18093D0
:1007D000600044C062E273E082E00E940A0D8B3F39
:1007E000D1F522E233E041E050E060E070E082E0E9
:1007F0000E94B50B000062E273E082E00E940A0DE5
:100800008823C9F79091C2008091BF0040E0692F12
:100810000E94AF0785E1809360001DC062E273E033
:1008200082E00E940A0D8A838A818B3F49F422E28A
:1008300033E042E050E060E070E082E00E945A0C59
:100840008A81882351F419828FEF8093600005C05C
:1008500081E0898303C0000001C0000089810F90FE
:100860000F900F90DF91CF910895CF93DF9300D039
:10087000CDB7DEB78A838FEF898380916100882F9F
:1008800090E08431910509F4B2C08F3F910509F0E1
:10089000D3C09091C9008091C70041E0692F0E94A8
:1008A000AF079091CA008091C70040E0692F0E9475
:1008B000AF078A81282F21709091D3008091C800C2
:1008C000422F692F0E94AF078A81882F90E08270A3
:1008D000992795958795282F9091D2008091C800EF
:1008E000422F692F0E94AF078A81882F90E0847081
:1008F00099279595879595958795282F9091D10063
:100900008091C800422F692F0E94AF078A81882FEB
:1009100090E08870992795958795959587959595F9
:100920008795282F9091D0008091C800422F692F81
:100930000E94AF078A81882F90E080719927959552
:100940008795959587959595879595958795282F62
:100950009091CF008091C800422F692F0E94AF076D
:100960008A81882F90E08072992795958795959533
:100970008795959587959595879595958795282F32
:100980009091CE008091C800422F692F0E94AF073E
:100990008A81882F90E080749927082E892F000C77
:1009A000881F990B000C881F991F282F9091CD004C
:1009B0008091C800422F692F0E94AF078A81282F9B
:1009C000221F2227221F9091CC008091C800422F25
:1009D000692F0E94AF079091C2008091BF0041E053
:1009E000692F0E94AF0784E18093610029C065E30D
:1009F00074E082E00E940A0D8B3F09F525E334E0A4
:100A000041E050E060E070E082E00E94B50B000041
:100A100065E374E082E00E940A0D8823C9F7909193
:100A2000C2008091BF0040E0692F0E94AF078FEFA6
:100A300080936100198203C081E0898301C00000B6
:100A400089810F900F90DF91CF910895CF93DF931D
:100A500000D01F92CDB7DEB78FEF898381E08A8304
:100A60008FEF8B8380916200882F90E08B3091050F
:100A700009F419C18C309105BCF48830910509F452
:100A8000EEC08930910544F48530910509F4C1C068
:100A9000069709F4D8C040C18930910509F4EBC02C
:100AA0000A9709F4F4C038C18E30910509F41DC1CC
:100AB0008F30910544F48C30910509F400C10D97F5
:100AC00009F408C129C18F30910509F419C18F3F7C
:100AD000910509F021C182E00E9464099091CC0047
:100AE0008091C80041E0692F0E94EB069091CD00F3
:100AF0008091C80041E0692F0E94EB069091CE00E2
:100B00008091C80041E0692F0E94EB069091CF00D0
:100B10008091C80041E0692F0E94EB069091D000BF
:100B20008091C80041E0692F0E94EB069091D100AE
:100B30008091C80041E0692F0E94EB069091D2009D
:100B40008091C80041E0692F0E94EB069091D3008C
:100B50008091C80041E0692F0E94EB069091C90086
:100B60008091C70041E0692F0E94EB069091CA0076
:100B70008091C70041E0692F0E94EB069091CB0065
:100B80008091C70041E0692F0E94EB069091CC0054
:100B90008091C80040E0692F0E94AF079091CD007E
:100BA0008091C80040E0692F0E94AF079091CE006D
:100BB0008091C80040E0692F0E94AF079091CF005C
:100BC0008091C80040E0692F0E94AF079091D0004B
:100BD0008091C80040E0692F0E94AF079091D1003A
:100BE0008091C80040E0692F0E94AF079091D20029
:100BF0008091C80040E0692F0E94AF079091D30018
:100C00008091C80040E0692F0E94AF0785E0809383
:100C1000620062E273E082E00E940A0D8A838A81A8
:100C20008B3F49F422E233E04FE050E060E070E0B7
:100C300082E00E945A0C8A81882309F070C086E005
:100C4000809362006CC080E30E9422038B838B81BF
:100C5000882309F066C088E08093620062C080E368
:100C60000E9422038B838B81882309F05CC089E07A
:100C70008093620058C080E30E9422038B838B81A3
:100C8000882309F052C08AE0809362004EC088E356
:100C90000E9422038B838B81882309F048C08BE05C
:100CA0008093620044C08CE00E9422038B838B817E
:100CB000882309F03EC08CE0809362003AC086E051
:100CC0000E9422038B838B818823A9F58DE080937A
:100CD000620031C082E00E9422038B838B818823D3
:100CE00061F58EE08093620028C080E80E942203B4
:100CF0008B838B81882319F58FE0809362001FC05E
:100D000080E80E9422038B838B818823D1F48FEFAC
:100D100080936200198215C081E0898313C00000AE
:100D200011C000000FC000000DC000000BC000008B
:100D300009C0000007C0000005C0000003C000009B
:100D400001C0000089810F900F900F90DF91CF912B
:100D50000895CF93DF9300D000D0CDB7DEB79C834A
:100D60008B838FEF89838FEF8A838B819C81892B83
:100D700041F180911201882F90E02B813C81820FFC
:100D8000931FFC0180818823C1F082E089838091D8
:100D90001201882F90E02B813C81820F931FFC0170
:100DA00080810E9435048A838A81882361F480913E
:100DB00012018F5F8093120106C0109212011982F6
:100DC00002C081E0898389810F900F900F900F906E
:100DD000DF91CF910895CF93DF9300D000D0CDB7AE
:100DE000DEB78A836B834C8319828C81882331F030
:100DF0008C81813019F081E08983A9C08B81883092
:100E000018F081E08983A3C08A81882F90E0813027
:100E1000910589F1823091051CF4892B49F094C029
:100E20008230910509F44AC0039709F46AC08CC066
:100E30008AE390E02AE330E0F9012081622F2B81E0
:100E4000422F50E021E030E002C0220F331F4A95CC
:100E5000E2F7209562232C81222F30E04B81442F32
:100E600050E002C0220F331F4A95E2F7262BFC0107
:100E7000208319826CC087E390E027E330E0F9011A
:100E80002081622F2B81422F50E021E030E002C010
:100E9000220F331F4A95E2F7209562232C81222FDF
:100EA00030E04B81442F50E002C0220F331F4A959F
:100EB000E2F7262BFC012083198249C084E390E0ED
:100EC00024E330E0F9012081622F2B81422F50E092
:100ED00021E030E002C0220F331F4A95E2F720954F
:100EE00062232C81222F30E04B81442F50E002C03E
:100EF000220F331F4A95E2F7262BFC01208319822B
:100F000026C081E390E021E330E0F9012081622FE7
:100F10002B81422F50E021E030E002C0220F331F2E
:100F20004A95E2F7209562232C81222F30E04B81F5
:100F3000442F50E002C0220F331F4A95E2F7262BC0
:100F4000FC012083198203C081E08983000089812C
:100F50000F900F900F900F90DF91CF910895CF9346
:100F6000DF9300D000D0CDB7DEB78A836B834C838C
:100F700019828C81882331F08C81813019F081E0D5
:100F80008983A9C08B81883018F081E08983A3C050
:100F90008A81882F90E08130910589F18230910516
:100FA0001CF4892B49F094C08230910509F44AC0A1
:100FB000039709F46AC08CC08BE390E02BE330E028
:100FC000F9012081622F2B81422F50E021E030E097
:100FD00002C0220F331F4A95E2F7209562232C812D
:100FE000222F30E04B81442F50E002C0220F331FEC
:100FF0004A95E2F7262BFC01208319826CC088E316
:1010000090E028E330E0F9012081622F2B81422F0C
:1010100050E021E030E002C0220F331F4A95E2F792
:10102000209562232C81222F30E04B81442F50E009
:1010300002C0220F331F4A95E2F7262BFC012083C2
:10104000198249C085E390E025E330E0F901208171
:10105000622F2B81422F50E021E030E002C0220FAE
:10106000331F4A95E2F7209562232C81222F30E02E
:101070004B81442F50E002C0220F331F4A95E2F704
:10108000262BFC012083198226C082E390E022E314
:1010900030E0F9012081622F2B81422F50E021E0C6
:1010A00030E002C0220F331F4A95E2F720956223F9
:1010B0002C81222F30E04B81442F50E002C0220FC0
:1010C000331F4A95E2F7262BFC012083198203C0C7
:1010D00081E08983000089810F900F900F900F901D
:1010E000DF91CF910895CF93DF9300D01F92CDB7BA
:1010F000DEB789837B836A838981882321F0898194
:10110000813009F05FC08981282F30E0C901880F44
:10111000991F820F931F8A529F4FFC018081882F55
:1011200090E08330910539F18430910534F48130B9
:10113000910549F0029799F042C08430910539F148
:10114000059789F13CC02A813B8180E090E0A0E8CE
:10115000BDE3F90180839183A283B38332C02A81E6
:101160003B8180E090E0A0E0BFE3F90180839183C0
:10117000A283B38326C02A813B8180E090E0A0E86F
:10118000B0E4F90180839183A283B3831AC02A81DA
:101190003B8180E090E0A0E8B1E4F9018083918395
:1011A000A283B3830EC02A813B8180E090E0A0E857
:1011B000B2E4F90180839183A283B38302C08CEFF0
:1011C0007DC07BC08981823009F077C08981282F5A
:1011D00030E0C901880F991F820F931F8A529F4FD9
:1011E000FC018081882F90E0092E000CAA0BBB0B1C
:1011F00041E050E026E030E0841B950B28173907CA
:1012000008F459C0865D9F4FFC010C94E4102A81BC
:101210003B8180E090E0A0E8BDE3F9018083918309
:10122000A283B3834AC02A813B8180E090E0A0E0A2
:10123000BFE3F90180839183A283B3833EC02A81F7
:101240003B8180E090E0A0E0B0E4F90180839183ED
:10125000A283B38332C02A813B8180E090E0A0E882
:10126000B0E4F90180839183A283B38326C02A81ED
:101270003B8180E090E0A0E0B1E4F90180839183BC
:10128000A283B3831AC02A813B8180E090E0A0E86A
:10129000B1E4F90180839183A283B3830EC02A81D4
:1012A0003B8180E090E0A0E8B2E4F9018083918383
:1012B000A283B38302C08CEF01C080E00F900F9037
:1012C0000F90DF91CF910895CF93DF931F92CDB709
:1012D000DEB789838981882F90E081309105B1F153
:1012E0008230910509F46AC0892B09F0A2C043E558
:1012F00050E08981282F30E0C901880F991F820FA3
:10130000931F8C529F4FFC018081FA01808389E5F5
:1013100090E029E530E0F90120812C7FFC01208359
:1013200049E550E089E590E0FC0160818981282F42
:1013300030E0C901880F991F820F931F8B529F4F76
:10134000FC018081862BFA01808375C04EE450E059
:101350008981282F30E0C901880F991F820F931FC0
:101360008C529F4FFC018081FA01808389E590E0D7
:1013700029E530E0F9012081277EFC01208349E541
:1013800050E089E590E0FC018081682F8981282F59
:1013900030E0C901880F991F820F931F8B529F4F16
:1013A000FC018081882F90E0880F991F880F991F7A
:1013B000880F991F862BFA0180833DC045E450E0D9
:1013C0008981282F30E0C901880F991F820F931F50
:1013D0008C529F4FFC018081FA01808389E590E067
:1013E00029E530E0F90120812F73FC01208349E5D4
:1013F00050E089E590E0FC018081682F8981282FE9
:1014000030E0C901880F991F820F931F8B529F4FA5
:10141000FC018081882F90E00024969587950794A1
:10142000969587950794982F802D862BFA018083B7
:1014300002C08EEF01C080E00F90DF91CF91089540
:10144000CF93DF93CDB7DEB727970FB6F894DEBF03
:101450000FBECDBF8D837F836E831A8219821C825B
:101460001B828D81882F90E08130910571F0823050
:101470009105A1F0892BD9F483E590E09A838983C3
:1014800082E590E09C838B8314C08EE490E09A8385
:1014900089838CE490E09C838B830BC085E490E08F
:1014A0009A83898384E490E09C838B8302C08EEFCF
:1014B0001EC08B819C812E813F81FC013183208362
:1014C00089819A81FC0140818D81282F30E0C901FA
:1014D000880F991F820F931F8A529F4FFC018081B2
:1014E000242F282B89819A81FC01208380E0279674
:1014F0000FB6F894DEBF0FBECDBFDF91CF91089538
:10150000CF93DF9300D01F92CDB7DEB789837B8363
:101510006A838A819B81892B11F48FEF20C1898195
:10152000882F90E08130910509F459C082309105EF
:1015300009F4C0C0892B09F00AC18981282F30E045
:10154000C901880F991F820F931F8C529F4FFC0176
:1015500080818823D1F488E590E0FC018081882F88
:1015600090E081709927892B71F08A819B81FC0121
:10157000108288E590E028E530E0F90120812160C3
:10158000FC012083E6C08DEFEAC08981282F30E07E
:10159000C901880F991F820F931F8C529F4FFC0126
:1015A0008081883009F0D5C088E590E0FC01808119
:1015B000882F90E082709927892B79F08A819B810E
:1015C00021E0FC01208388E590E028E530E0F90186
:1015D00020812260FC012083BCC08DEFC0C08981C6
:1015E000282F30E0C901880F991F820F931F8C525A
:1015F0009F4FFC0180818823D1F488E590E0FC01B5
:101600008081882F90E084709927892B71F08A81DE
:101610009B81FC01108288E590E028E530E0F9012B
:1016200020812460FC01208396C08DEF98C08981C1
:10163000282F30E0C901880F991F820F931F8C5209
:101640009F4FFC018081883009F085C088E590E0DB
:10165000FC018081882F90E080719927892B79F097
:101660008A819B8121E0FC01208388E590E028E5C8
:1016700030E0F90120812061FC0120836CC088E505
:1016800090E0FC018081882F90E088709927892B59
:1016900079F08A819B8121E0FC01208388E590E03C
:1016A00028E530E0F90120812860FC01208353C047
:1016B0008DEF55C08981282F30E0C901880F991F0F
:1016C000820F931F8C529F4FFC0180818823D1F49D
:1016D00088E590E0FC018081882F90E08074992754
:1016E000892B71F08A819B81FC01108288E590E052
:1016F00028E530E0F90120812064FC0120832DC021
:101700008DEF2DC08981282F30E0C901880F991FE6
:10171000820F931F8C529F4FFC0180818830E9F427
:1017200088E590E0FC01808188237CF48A819B819C
:1017300021E0FC01208388E590E028E530E0F90114
:1017400020812068FC01208308C08DEF08C08EEF47
:1017500006C0000003C0000001C0000080E00F9040
:101760000F900F90DF91CF910895EF92FF920F931A
:101770001F93CF93DF93CDB7DEB72C970FB6F894B6
:10178000DEBF0FBECDBF8E834F83588769877A87B0
:101790003C872B878E81833010F08EEF7EC08B8547
:1017A0009C85892B11F481E078C08B859C85909372
:1017B0001B0180931A0180911901882309F06CC0E4
:1017C000CE010296BC018E810E94730889838981B3
:1017D0008C3F11F48CEF61C08A819B81AC81BD810B
:1017E00020E030E0A901BC01CD010E948C0F8823CC
:1017F000F1F06F81788589859A850E9432107B018E
:101800008C018A819B81AC81BD819C01AD01C801A5
:10181000B7010E94910FDC01CB01BC01CD010E94F8
:101820000310DC01CB018F839887A987BA878F814A
:101830009885A985BA85892F9A2FAB2FBB278093CE
:10184000130190931401A0931501B09316018F8199
:10185000809318018091130190911401A0911501BA
:10186000B0911601892B8A2B8B2B61F481E0809338
:10187000170180911801882F90E0BC018E810E9491
:10188000200A05C06FEF70E08E810E94200A81E07F
:10189000809319018DEF01C081E02C960FB6F8946A
:1018A000DEBF0FBECDBFDF91CF911F910F91FF9093
:1018B000EF900895EF92FF920F931F93CF93DF93D2
:1018C000CDB7DEB72C970FB6F894DEBF0FBECDBFF5
:1018D0008E834F83588769877A873C872B878E81D1
:1018E000833010F08EEF89C08B859C85892B11F495
:1018F00081E083C08B859C8590931B0180931A01A6
:1019000080911901882309F077C0CE010296BC01AD
:101910008E810E947308898389818C3F11F48CEF3A
:101920006CC08A819B81AC81BD8120E030E0A9013F
:10193000BC01CD010E948C0F8823F1F06F81788566
:1019400089859A850E9432107B018C018A819B8156
:10195000AC81BD819C01AD01C801B7010E94910F0E
:10196000DC01CB01BC01CD010E940310DC01CB01E5
:101970008F839887A987BA872F81388549855A85AB
:1019800088EE93E0DC010E94EA10DC01CB01892F94
:101990009A2FAB2FBB278093130190931401A09330
:1019A0001501B09316019F8188EE989F802D112418
:1019B000809318018091130190911401A091150159
:1019C000B0911601892B8A2B8B2B61F481E08093D7
:1019D000170180911801882F90E0BC018E810E9430
:1019E000200A05C06FEF70E08E810E94200A81E01E
:1019F000809319018DEF01C081E02C960FB6F89409
:101A0000DEBF0FBECDBFDF91CF911F910F91FF9031
:101A1000EF900895CF93DF9300D000D01F92CDB701
:101A2000DEB78B837D836C8380911901882311F449
:101A30008BEF5CC080911A0190911B012C813D813C
:101A40002817390711F081E051C0809119018130C8
:101A500009F049C0CE010296BC018B810E94800A28
:101A600089838981882309F040C0809117018130E2
:101A700041F410921901109217011092180180E0A0
:101A800035C08091130190911401A0911501B0917E
:101A900016010197A109B1098093130190931401D4
:101AA000A0931501B0931601809113019091140138
:101AB000A0911501B0911601892B8A2B8B2B61F413
:101AC00081E08093170180911801882F90E0BC017C
:101AD0008B810E94200A05C06FEF70E08B810E940D
:101AE000200A8DEF03C081E001C080E00F900F90CD
:101AF0000F900F900F90DF91CF910895CF93DF93C8
:101B000000D0CDB7DEB78DE191E00E94440F83E6AF
:101B100090E00E94310F80916400863041F0809106
:101B20006400873021F080916400883021F4809136
:101B300064008093630080916300882F90E0092EF9
:101B4000000CAA0BBB0B43E050E027E030E0841B05
:101B5000950B2817390708F4CEC08F5C9F4FFC0106
:101B60000C94E410000081E00E9422038823D9F73E
:101B700067E670E08EE00E948C0EC4C0000081E039
:101B80000E9422038823D9F766E770E087E00E946D
:101B90008C0EB8C0000081E00E9422038823D9F790
:101BA000000080EC0E9422038823D9F719820CC020
:101BB0008981873078F400008AE20E943504882306
:101BC000D9F789818F5F898380911D019981981749
:101BD00078F301C000006EE770E08AE00E948C0E8E
:101BE00091C080911F01883241F410921E01109221
:101BF0001F0189E08093630085C0000081E00E949E
:101C000022038823D9F769E870E08AE00E948C0EED
:101C100080911F018F5F80931F0174C080911F010D
:101C2000883299F410921F0180911E018F5F80937A
:101C30001E0180911E01833021F488E080936300AF
:101C400061C085E0809363005DC0000081E00E9478
:101C500022038823D9F761E970E08AE00E948C0EA4
:101C600051C080911F01883C41F410921E011092D6
:101C70001F0185E08093630045C0000081E00E9461
:101C800022038823D9F76CE970E087E00E948C0E6C
:101C900080911F018F5F80931F0134C0000081E09D
:101CA0000E9422038823D9F764EA70E08CE00E9446
:101CB0008C0E28C0000081E00E9422038823D9F7FF
:101CC0001A820CC08A81873078F400008AE20E9470
:101CD00035048823D9F78A818F5F8A8380911D011B
:101CE0009A81981778F301C0000061EB70E08DE0F5
:101CF0000E948C0E07C0000081E00E94220388230E
:101D0000D9F70000809163008093640000000F9079
:101D10000F90DF91CF910895CF93DF9300D01F9262
:101D2000CDB7DEB789837B836A8380916500882F76
:101D300090E082309105A9F18F3F910521F0019744
:101D400009F466C087C080911C01282F30E089818A
:101D5000882F90E040E150E0BA01681B790BCB017D
:101D60002817390724F482E08093650073C08091BE
:101D70001C01282F30E08981882F90E04FE050E04F
:101D8000BA01681B790BCB012817390721F481E0D0
:101D9000809365005FC010921C0182E08093650013
:101DA00059C0000080911C0180680E942203882392
:101DB000C9F700008A819B810E94A9068823D1F778
:101DC000000080911C01815080680E9422038823BA
:101DD000C1F7000080E20E9435048823D9F7809182
:101DE0001C01282F30E08981882F90E040E150E0ED
:101DF000BA01681B790BCB012817390719F481E068
:101E00008093650080911C018F5F80931C0122C02C
:101E100080911C01815080931C0180911C018823BA
:101E200019F482E080936500000080911C018068B5
:101E30000E9422038823C9F700008A819B810E94A7
:101E4000A9068823D1F7000080E20E943504882388
:101E5000D9F7000000000F900F900F90DF91CF9105
:101E60000895CF93DF9300D0CDB7DEB79A838983EF
:101E70002091660089819A81FC01208300000F90E7
:101E80000F90DF91CF910895CF93DF9300D0CDB71E
:101E9000DEB79A8389832091200189819A81FC0190
:101EA000208300000F900F90DF91CF910895CF9382
:101EB000DF9300D000D01F92CDB7DEB786E08093CD
:101EC0001D01198200000E9426058823E1F70E9467
:101ED0007E0D89818F5F89831A821B821C821D82FD
:101EE0000BC08A819B81AC81BD810196A11DB11D72
:101EF0008A839B83AC83BD838A819B81AC81BD81B6
:101F0000803A9648A140B10560F389818431F9F6A1
:101F100085E080936300DBCF0E946F1008F481E0BE
:101F200008950E94A50F0C94AA100E94A31058F0C7
:101F30000E949C1040F029F45F3F29F00C9493100C
:101F400051110C94DE100C9499100E94BB1068F390
:101F50009923B1F3552391F3951B550BBB27AA2762
:101F600062177307840738F09F5F5F4F220F331F9C
:101F7000441FAA1FA9F335D00E2E3AF0E0E832D064
:101F800091505040E695001CCAF72BD0FE2F29D067
:101F9000660F771F881FBB1F261737074807AB0739
:101FA000B0E809F0BB0B802DBF01FF2793585F4FAE
:101FB0003AF09E3F510578F00C9493100C94DE108B
:101FC0005F3FE4F3983ED4F3869577956795B79590
:101FD000F7959F5FC9F7880F911D9695879597F99B
:101FE0000895E1E0660F771F881FBB1F6217730714
:101FF0008407BA0720F0621B730B840BBA0BEE1F29
:1020000088F7E09508950E94C31088F09F5798F0D4
:10201000B92F9927B751B0F0E1F0660F771F881FED
:10202000991F1AF0BA95C9F714C0B13091F00E9407
:10203000DD10B1E008950C94DD10672F782F88270C
:10204000B85F39F0B93FCCF3869577956795B3952E
:10205000D9F73EF490958095709561957F4F8F4F9D
:102060009F4F0895E89409C097FB3EF490958095A2
:10207000709561957F4F8F4F9F4F9923A9F0F92F4E
:1020800096E9BB279395F695879577956795B795CC
:10209000F111F8CFFAF4BB0F11F460FF1BC06F5FB2
:1020A0007F4F8F4F9F4F16C0882311F096E911C0C4
:1020B000772321F09EE8872F762F05C0662371F0E5
:1020C00096E8862F70E060E02AF09A95660F771FF9
:1020D000881FDAF7880F9695879597F90895990FD5
:1020E0000008550FAA0BE0E8FEEF16161706E807E2
:1020F000F907C0F012161306E407F50798F0621B03
:10210000730B840B950B39F40A2661F0232B242BD7
:10211000252B21F408950A2609F4A140A6958FEFF6
:10212000811D811D089597F99F6780E870E060E048
:1021300008959FEF80EC089500240A941616170660
:1021400018060906089500240A94121613061406A8
:1021500005060895092E0394000C11F4882352F00B
:10216000BB0F40F4BF2B11F460FF04C06F5F7F4FC3
:102170008F4F9F4F089557FD9058440F551F59F0AA
:102180005F3F71F04795880F97FB991F61F09F3F64
:1021900079F087950895121613061406551FF2CF8D
:1021A0004695F1DF08C0161617061806991FF1CFDD
:1021B00086957105610508940895E894BB27662704
:1021C0007727CB0197F90895EE0FFF1F0590F49143
:1021D000E02D09940E94F510A59F900DB49F900DDD
:1021E000A49F800D911D11240895A29FB001B39F5B
:1021F000C001A39F700D811D1124911DB29F700D10
:0C220000811D1124911D0895F894FFCF5A
:10220C00FFFFFFFFFFFFFF53797374656D204C6F69
:10221C006164696E670057656C636F6D6500456E30
:10222C0074657220506173730050617373204F4B4F
:10223C000057726F6E672050617373005761697439
:10224C00696E670053797374656D206973204F4E06
:10225C00004368616E67696E67205061737300009C
:10226C000102030706050400010102030706050429
:0E227C0003020100000000000000000001004D
:00000001FF
