S02A00004D43555F546F5F4D43555F426C7565746F6F74685F436F6D6D756E69636174696F6E2E73726563E5
S11300000C942A000C9447000C9447000C9447006D
S11300100C9447000C9447000C9447000C940C0279
S11300200C9447000C9447000C9447000C94470030
S11300300C9447000C9447000C9447000C94470020
S11300400C9447000C9447000C9447000C94470010
S11300500C94470011241FBECFE5D8E0DEBFCDBF0E
S113006010E0A0E6B0E0E4EBF1E102C005900D92EF
S1130070AC36B107D9F726E0ACE6B0E001C01D927A
S1130080A83BB207E1F70E94BF080C94D8080C946F
S11300900000FC010396928381832FEF3FEF3483AA
S11300A02383968385839087878310820895FC0138
S11300B0118610860895CF93DF93EB01488159810F
S11300C04F3F2FEF520721F4FC01A781B0850DC0EB
S11300D0DC01139601C0DF011296ED91FC91139798
S11300E02081318142175307B0F71296ED91FC91AC
S11300F01397FB83EA83D583C483BD83AC831396B0
S1130100DC93CE93129799878887FC0120812F5F17
S11301102083DF91CF910895CF93DF93FC01A085D5
S1130120B185C281D381848195819D838C83C4816F
S1130130D581828193819B838A8311968D919C9131
S11301401297E817F90731F48481958112969C93EC
S11301508E931197118610868C9181508C938C917B
S1130160DF91CF9108951BBC8CE78ABD8BE08EBDD7
S113017089B7806189BF089531E1FC0130833197EB
S113018022E220833197A3E3A083319760833197E0
S1130190708331971082319760E8608331971082C1
S11301A0319762E06083319763E06083319764E064
S11301B06083319765E06083319766E060833197AF
S11301C067E06083319768E06083319769E060831A
S11301D0319760E1608331973083319732E1308326
S11301E0319733E13083319734E13083319735E10E
S11301F03083319736E13083319737E1308331975B
S113020038E13083319739E13083319730E23083FC
S1130210319731E2308331972083319723E2208371
S11302203197408331975083319726E22083319769
S113023027E22083319728E22083319729E2208323
S1130240319720E32083319721E320838697089513
S11302500E94B300A091B406B091B506CD91CDBF74
S1130260DD91DEBFFF91EF91DF91CF91BF91AF910F
S11302709F918F917F916F915F914F913F912F91BA
S11302801F910F91FF90EF90DF90CF90BF90AF90B0
S11302909F908F907F906F905F904F903F902F90A2
S11302A01F900F900FBE0F90089581E008950F9254
S11302B00FB6F8940F921F9211242F923F924F92EF
S11302C05F926F927F928F929F92AF92BF92CF92E2
S11302D0DF92EF92FF920F931F932F933F934F93CD
S11302E05F936F937F938F939F93AF93BF93CF93BA
S11302F0DF93EF93FF93A091B406B091B5060DB6CA
S11303000D920EB60D920E94BB07A091B406B09157
S1130310B506CD91CDBFDD91DEBFFF91EF91DF91A9
S1130320CF91BF91AF919F918F917F916F915F9189
S11303304F913F912F911F910F91FF90EF90DF907C
S1130340CF90BF90AF909F908F907F906F905F9071
S11303504F903F902F901F900F900FBE0F900895D5
S11303600F920FB6F8940F921F9211242F923F927E
S11303704F925F926F927F928F929F92AF92BF92B1
S1130380CF92DF92EF92FF920F931F932F933F939D
S11303904F935F936F937F938F939F93AF93BF9389
S11303A0CF93DF93EF93FF93A091B406B091B5067A
S11303B00DB60D920EB60D920E94B60581110E94E3
S11303C0BB07A091B406B091B506CD91CDBFDD9128
S11303D0DEBFFF91EF91DF91CF91BF91AF919F91DC
S11303E08F917F916F915F914F913F912F911F91C9
S11303F00F91FF90EF90DF90CF90BF90AF909F90C0
S11304008F907F906F905F904F903F902F901F90B0
S11304100F900FBE0F9008950E94B0011895E8E761
S1130420F0E0ACE7B0E0B183A08313821282E4E58C
S1130430F6E0F0937700E093760013821282118243
S1130440108288ED95E013969C938E931297ED930A
S1130450FC93909373008093720090937500809343
S1130460740080E090E890936D0080936C00089590
S1130470CF93DF93EC01A8E7B0E001C0DF01ED9179
S1130480FC911197EC17FD07C8F312968D919C917E
S113049013979D01280F391FC217D30749F42A81E6
S11304A03B81820F931F13969C938E931297ED01B9
S11304B08A819B819E01280F391FE217F307C1F43B
S11304C02091760030917700E217F30771F02281D2
S11304D03381820F931F9B838A83ED91FC91119743
S11304E0808191819983888305C03983288302C0E0
S11304F0F983E883CA17DB0711F0CD93DC93DF910E
S1130500CF910895EF92FF920F931F93CF93DF93B0
S11305108C010E94B0058091760090917700892B20
S113052011F40E940F0280916C0090916D00802361
S11305309123892B09F077C00115110549F0C801F1
S113054004960817190718F000E010E001C08C01A8
S11305500115110509F46AC0809174009091750029
S11305608017910708F465C0C0917800D091790094
S1130570E8E7F0E002C0FE01EC018A819B8180176C
S1130580910720F4888199810097A9F780917600DA
S113059090917700C817D90709F44EC0E080F18024
S11305A084E0E80EF11C88819981918380832A81FB
S11305B03B81201B310B2930310550F0CE01800FD7
S11305C0911FFC01338322831B830A830E94380218
S11305D02A813B818091740090917500821B930B5A
S11305E09093750080937400409172005091730051
S11305F08417950720F49093730080937200809180
S11306006C0090916D00282B392B3B832A8319822F
S113061018828091700090917100019690937100FE
S1130620809370000BC0E12CF12C08C0E12CF12C5C
S113063005C0E12CF12C02C0E12CF12C0E94D00663
S1130640C701DF91CF911F910F91FF90EF90089513
S11306500F931F93CF93DF93009799F1EC012497A5
S11306604A815B8120916C0030916D00BA01622354
S11306707323672B31F168817981672B11F52095FC
S11306803095242335233B832A830E94B0058A8135
S11306909B812091740030917500820F931F909379
S11306A0750080937400CE010E94380280916E0020
S11306B090916F00019690936F0080936E000E945A
S11306C0D006DF91CF911F910F910895E0917C06A0
S11306D0F0917D068081811107C08FEF9FEF909389
S11306E05C0680935B060895E0917C06F0917D069C
S11306F00580F681E02D8081918190935C06809342
S11307005B060895CF93DF93EC018F89988D0E9447
S11307102803CE010E942803DF91CF9108956F92A0
S11307207F928F929F92AF92BF92CF92DF92EF927D
S11307300F931F93CF93DF93CDB7DEB74C01D50151
S113074057968D919C915897215031093C01620E26
S1130750731E6115710589F416C0822F90E0FB01A8
S1130760E80FF91F3081D501A80FB91F59963C93A2
S11307708081882329F02F5F01C020E0283068F3AE
S1130780F50110A203C0D50159961C92B3E0BE1521
S113079020F40F2EF3E0EF2EF02DF501E68AC501CB
S11307A002960E945700C5010C960E945700D5017D
S11307B01996BC92AE92189784E090E08E19910934
S11307C01D969C938E931C975396BC92AE9252970F
S11307D084E0F501B196DF011D928A95E9F7F501F0
S11307E015A2A801B401C3010E94BC00D5018D93D8
S11307F09C93C114D10419F0F601B182A082DF9157
S1130800CF911F910F91EF90DF90CF90BF90AF9059
S11308109F908F907F906F900895CF93C0E010C009
S11308208C2F90E09C01220F331F220F331F220FC5
S1130830331F820F931F8057994F0E944900CF5F47
S1130840C43070F387E896E00E9449008EE796E092
S11308500E94490081E796E00E94490088E696E0FC
S11308600E94490087E896E090937D0680937C0679
S11308708EE796E090937B0680937A06CF91089555
S1130880CF93DF93EC010FB6F8940F928091660634
S11308908F5F809366068091B4069091B506892B8C
S11308A059F4D093B506C093B4068091660681309E
S11308B099F40E940D0410C08091620681110CC04D
S11308C0E091B406F091B50696898E89891720F0D7
S11308D0D093B506C093B40680915D068F5F809374
S11308E05D068E8990916306981710F480936306D1
S11308F090E0FC01EE0FFF1FEE0FFF1FEE0FFF1F36
S11309008E0F9F1FFC01E057F94F0180F281E02D0B
S1130910FD83EC83848195819F838E83A481B5813B
S1130920CE01029613969C938E931297958384839B
S1130930EE89F0E0CF01880F991F880F991F880F67
S1130940991FE80FF91FE057F94FFB87EA87808169
S11309508F5F80830F900FBE80916206882351F0D1
S1130960E091B406F091B50696898E89981710F433
S11309700E945701DF91CF910895CF93DF931CC05C
S11309800FB6F8940F92E0916D06F0916E06C68151
S1130990D781CE0102960E948C0080916606815018
S11309A080936606809167068150809367060F9056
S11309B00FBECE010E948203809167068111E0CFB1
S11309C0DF91CF9108950E94BD04809190068230FA
S11309D0D0F30E945701F7CF0F931F93CF93DF9368
S11309E0EC0100916406109165068091B406909123
S11309F0B50602960E948C00C00FD11FE091B40688
S1130A00F091B506D383C283C017D10768F460910F
S1130A10B4067091B50680917A0690917B066E5F5C
S1130A207F4F0E945B0017C06091B4067091B506B9
S1130A3080917C0690917D066E5F7F4F0E945B00E3
S1130A4080915B0690915C06C817D90720F4D09377
S1130A505C06C0935B06DF91CF911F910F910895BF
S1130A602F923F924F925F926F927F928F929F92BA
S1130A70AF92BF92CF92DF92EF92FF920F931F93A8
S1130A80CF93DF933C011B015A012901CA010E9443
S1130A9082026C01892B71F086E290E00E9482024E
S1130AA0EC01892B19F0D88ECF8A06C0C6010E94AA
S1130AB0280302C0C0E0D0E0209791F0950140E007
S1130AC050E0812C912C5E016701E02E8201B1017E
S1130AD0C3010E948F03CE010E94400481E001C043
S1130AE08FEFDF91CF911F910F91FF90EF90DF90E7
S1130AF0CF90BF90AF909F908F907F906F905F90BA
S1130B004F903F902F900895EF92FF920F930F2EE6
S1130B10F9E5EF2EF6E0FF2EF02D00E020E030E0C6
S1130B2045E550E061E670E083EE94E00E94300514
S1130B30813081F4F8948FEF9FEF90935C0680935B
S1130B405B0681E08093620610926506109264064B
S1130B500E942801809160000F91FF90EF9008950A
S1130B60809158068F5F8093580608950F931F93C2
S1130B70CF93DF9380915806811101C1C09164061F
S1130B80D09165068E010F5F1F4F10936506009389
S1130B90640601151105B9F480917C0690917D06D7
S1130BA020917A0630917B0630937D0620937C0653
S1130BB090937B0680937A0680915E068F5F809384
S1130BC05E060E94660380915B0690915C0608179E
S1130BD0190720F480E0B8C081E001C080E0E09112
S1130BE07C06F0917D069081911107C02FEF3FEFB5
S1130BF030935C0620935B06A7C0E0917C06F091DD
S1130C007D060580F681E02D0680F781E02D2281A6
S1130C1033810217130728F430935C0620935B0694
S1130C2093C0A285B3852481358146815781E9012A
S1130C305D834C832681378144815581E9015B833F
S1130C404A8311962D913C911297AF014E5F5F4FED
S1130C502417350731F42681378112963C932E935D
S1130C601197138612869C9191509C93A489B589FF
S1130C70109719F12685378560897189E9017D838B
S1130C806C832089318966857785E9017B836A8352
S1130C9011966D917C9112979F01245F3F4F6217CB
S1130CA0730731F42089318912963C932E9311975E
S1130CB0158A148A9C9191509C932689909163067D
S1130CC0921710F42093630630E0D901AA0FBB1FDA
S1130CD0AA0FBB1FAA0FBB1F2A0F3B1FD901A05786
S1130CE0B94F11960D90BC91A02DB583A483149691
S1130CF02D913C9115973783268314962D913C9121
S1130D001597E9015B834A8315965C934E93149778
S1130D10A689B0E09D01220F331F220F331F220F3B
S1130D20331FA20FB31FA057B94FB387A2879C915B
S1130D309F5F9C932689E091B406F091B50696894D
S1130D40291708F049CF4BCFE091B406F091B506CE
S1130D50268930E0F901EE0FFF1FEE0FFF1FEE0FA3
S1130D60FF1F2E0F3F1FF901E057F94F908192307A
S1130D7008F081E090915F0691110CC00CC0809145
S1130D8060069091610601969093610680936006D7
S1130D9080E001C081E0DF91CF911F910F91089510
S1130DA0CF93DF930FB6F8940F9280915806815039
S1130DB080935806809158068111BFC080916606C1
S1130DC0811196C0BDC0E0917606F0917706068049
S1130DD0F781E02DA489B589C685D7858089918955
S1130DE09D838C83C089D189868597859B838A83DB
S1130DF011962D913C911297CF010C962817390723
S1130E0031F48089918912969C938E931197158A57
S1130E10148A8C9181508C93A285B385C481D58129
S1130E20868197819D838C83C681D78184819581B6
S1130E309B838A8311968D919C9112979F012E5FBB
S1130E403F4F8217930731F48681978112969C93C2
S1130E508E931197138612868C9181508C93868978
S1130E6090916306981710F48093630690E0DC0178
S1130E70AA0FBB1FAA0FBB1FAA0FBB1F8A0F9B1F62
S1130E80DC01A057B94F11960D90BC91A02DB583EC
S1130E90A48314968D919C911597978386831496B9
S1130EA0CD91DC9115973B832A8315963C932E9321
S1130EB01497A689B0E0CD01880F991F880F991F58
S1130EC0880F991FA80FB91FA057B94FB387A287DE
S1130ED08C918F5F8C939689A091B406B091B506DE
S1130EE056968C91981730F081E080935F0602C08B
S1130EF0E0E0F0E080917106811165CFEF2B11F0F5
S1130F000E946603C0916006D0916106209769F043
S1130F100E94B605882319F081E080935F0621972B
S1130F20B9F7109261061092600680915F068823DB
S1130F3031F00E94570181E003C080E001C080E0ED
S1130F400F900FBEDF91CF910895CF93DF93EC0103
S1130F50892B49F00E94B00560E0CE010E94EC04A8
S1130F600E94D00601C080E0811102C00E94570196
S1130F70DF91CF91089580915806882321F081E074
S1130F8080935F06089510925F062091630601C066
S1130F902150822F90E0FC01EE0FFF1FEE0FFF1F88
S1130FA0EE0FFF1FE80FF91FE057F94F308133238D
S1130FB079F3AC01440F551F440F551F440F551FBF
S1130FC0480F591FDF010180F281E02D0280F38177
S1130FD0E02D1296FC93EE9311974D56594FE4175A
S1130FE0F50729F442815381FD0152834183FC01B9
S1130FF0EE0FFF1FEE0FFF1FEE0FFF1F8E0F9F1F41
S1131000FC01E057F94F0180F281E02D8681978140
S11310109093B5068093B4062093630608954230F6
S113102008F060C0683008F05FC08130E1F030F053
S1131030823071F1833009F440C058C02AB381E092
S113104090E0062E02C0880F991F0A94E2F750E040
S113105002C0440F551F6A95E2F780958223482BFE
S11310604ABB80E0089527B381E090E0062E02C0D9
S1131070880F991F0A94E2F750E002C0440F551FED
S11310806A95E2F780958223482B47BB80E0089558
S113109024B381E090E0062E02C0880F991F0A94C1
S11310A0E2F750E002C0440F551F6A95E2F78095BD
S11310B08223482B44BB80E0089521B381E090E073
S11310C0062E02C0880F991F0A94E2F750E002C06E
S11310D0440F551F6A95E2F780958223482B41BB44
S11310E080E0089581E0089581E0089581E0089505
S11310F06830C0F5813091F028F08230D9F0833027
S113110029F132C081E090E002C0880F991F6A95EE
S1131110E2F79BB389278BBB80E0089581E090E0E0
S113112002C0880F991F6A95E2F798B3892788BB94
S113113080E0089581E090E002C0880F991F6A95CD
S1131140E2F795B3892785BB80E0089581E090E0BC
S113115002C0880F991F6A95E2F792B3892782BB70
S113116080E0089581E0089581E0089560E080E0E2
S11311700E94780888EE93E00E94A507F7CF41E02B
S113118060E080E00E940F080F2EF6EBEF2EF6E0F1
S1131190FF2EF02D01E020E030E04BE250E066E667
S11311A070E086EB98E00E9430050E948405FFCF32
S10711B0F894FFCFDD
S10F11B40349444C45007461736B310026
S9030000FC
